:020000040800F2
:100000000050002039130008CD110008D511000858
:10001000DD110008E5110008ED11000800000000E6
:10002000000000000000000000000000F5110008C2
:1000300001120008000000000D120008191200084B
:100040008113000881130008811300088113000840
:100050008113000881130008811300088113000830
:100060008113000881130008811300088113000820
:100070008113000881130008811300088113000810
:100080008113000881130008811300088113000800
:1000900081130008811300088113000881130008F0
:1000A00081130008811300088113000881130008E0
:1000B00081130008811300088113000881130008D0
:1000C00081130008811300088113000881130008C0
:1000D00081130008811300088113000881130008B0
:1000E000811300088113000881130008000000003C
:1000F0000000000000000000000000000000000000
:0C01000000000000000000005FF808F1A3
:10010C0010B5054C237833B9044B13B10448AFF345
:10011C0000800123237010BD680000200000000047
:10012C002446000808B5034B1BB103490348AFF341
:10013C00008008BD000000006C0000202446000870
:10014C007BB972B90029BEBF00204FF0004106E018
:10015C0008BF00281CBF6FF000414FF0FF3000F0CB
:10016C00BFB9ADF1080C6DE904CE002909DB002BF9
:10017C001ADB00F035F8DDF804E0DDE9022304B009
:10018C007047404261EB4101002B1BDB00F028F86B
:10019C00DDF804E0DDE9022304B0404261EB4101EB
:1001AC00524263EB43037047524263EB430300F04C
:1001BC0017F8DDF804E0DDE9022304B0404261EBFE
:1001CC0041017047524263EB430300F009F8DDF83C
:1001DC0004E0DDE9022304B0524263EB43037047B1
:1001EC002DE9F047089D8E4604468846002B4AD1DF
:1001FC008A42174662D9B2FA82F64EB1C6F1200392
:10020C0001FA06F820FA03F3B74043EA0808B440B1
:10021C004FEA174EB8FBFEF11FFA87FC0EFB118854
:10022C0001FB0CF2230C43EA08439A4209D9FB1850
:10023C0001F1FF3080F0EB809A4240F2E880023905
:10024C003B449A1AB2FBFEF00EFB102200FB0CFC96
:10025C00A3B243EA02439C4509D9FB1800F1FF32D3
:10026C0080F0D7809C4540F2D4803B44023840EA71
:10027C0001400021A3EB0C031DB10022F340C5E9A2
:10028C000032BDE8F0878B4205D90DB1C5E90001FC
:10029C0000210846F5E7B3FA83F1002946D17345EE
:1002AC0002D3824200F20881841A6EEB0302012011
:1002BC009046002DE5D0C5E90048E2E7002A00F0A1
:1002CC009180B2FA82F6002E40F0A5808A1A0121A4
:1002DC00030C4FEA174E80B2BCB2B2FBFEFC0EFB15
:1002EC001C2243EA024304FB0CF29A4207D9FB1886
:1002FC000CF1FF3802D29A4200F2E380C4469B1AFA
:10030C00B3FBFEF20EFB123302FB04F440EA034390
:10031C009C4207D9FB1802F1FF3002D29C4200F23A
:10032C00CD8002461B1B42EA0C40A5E7C1F120061A
:10033C008B4022FA06F71F432EFA06FA4FEA1749AA
:10034C00BAFBF9F80EFA01FE20FA06F309FB18AA1B
:10035C001FFA87FC43EA0E0300FA01FE08FB0CF0BF
:10036C001C0C44EA0A44A04202FA01F20AD93C19D4
:10037C0008F1FF3A80F09E80A04240F29B80A8F1E9
:10038C0002083C44241A98B2B4FBF9F309FB134459
:10039C0003FB0CFC40EA0444A44509D93C1903F1C5
:1003AC00FF3080F08580A44540F28280023B3C44C3
:1003BC0043EA0840A4EB0C04A0FB028C64454346C2
:1003CC00E14664D361D05DB1BEEB030264EB09047A
:1003DC0004FA06F622FA01F31E43CC40C5E9006488
:1003EC0000214EE7B1FBF2FC010C41EA0E4180B258
:1003FC0040EA01423B46B1FBF7F138463C46B84671
:10040C00BE462026A2EB080241EA0C4165E70146F4
:10041C0017E710462BE7C6F120012EFA01FCB74076
:10042C000EFA06FE20FA01F141EA0E014FEA174ED0
:10043C00BCFBFEF8BCB20EFB18CC08FB04F90A0C92
:10044C0042EA0C42B04091454FEA104380B23ED98B
:10045C00BA1808F1FF3C01D291451FD8A2EB090252
:10046C00B2FBFEF909FB04F80EFB192A8AB242EA28
:10047C000A42424529D2BA1809F1FF31C2D242458B
:10048C00C0D2A9F102013A44BCE7C6459BD2B8EBF5
:10049C0002036CEB070C0138E14694E7A7EB090962
:1004AC004A44B2FBFEF9A8F1020C09FB04F8DBE7A5
:1004BC0003467DE7D04665E70846FAE63B44023A38
:1004CC0030E7ACF1020C3B4419E749469AE7A2EB42
:1004DC000902B2FBFEF9C44609FB04F8C4E700BFED
:1004EC00704700BF80B586B000AFF860B9607A6025
:1004FC00FB68012B02D0FB68022B11D17B689AB2EE
:10050C004FF0FF33B968094802F01CFF0346FB7536
:10051C00FB7D002B01D17B6804E04FF0FF3301E041
:10052C004FF0FF3318461837BD4680BDD800002069
:10053C0080B586B004AFB623FB716423029301230C
:10054C000193FB1D00930123E022EC21124801F0E2
:10055C0077FB052000F072FF2723BB716423029305
:10056C0001230193BB1D00930123F422EC210A48C3
:10057C0001F066FB20237B7164230293012301931A
:10058C007B1D00930123F522EC21034801F058FB5D
:10059C0000BF0837BD4680BD8400002080B58EB0FA
:1005AC0004AF7860544B1B6814337B626423029352
:1005BC000123019307F10B0300930123F322EC2198
:1005CC004E4801F037FCFB7A03F00103002B04D0FA
:1005DC00494B1B687A6A9A42E8D864230293182321
:1005EC00019307F10C03009301238822EC2143486B
:1005FC0001F020FC7B7B1BB21B021AB23B7B1BB2B3
:10060C0013431BB29AB27B681A80FB7B1BB21B0292
:10061C001AB2BB7B1BB213431AB27B685A807B7C29
:10062C001BB21B021AB23B7C1BB213431AB27B687F
:10063C009A80FB7C1BB21B021AB2BB7C1BB213430D
:10064C001BB29AB27B68DA807B7D1BB21B021AB29A
:10065C003B7D1BB213431AB27B681A81FB7D1BB224
:10066C001B021AB2BB7D1BB213431AB27B685A81B0
:10067C007B7E1BB21B021AB23B7E1BB213431AB217
:10068C007B689A81FB7E1BB21B021AB2BB7E1BB22B
:10069C0013431AB27B68DA817B7F1BB21B021AB23E
:1006AC003B7F1BB213431AB27B681A82FB7F1BB2CF
:1006BC001B021AB2BB7F1BB213431AB27B685A825D
:1006CC0097F821301BB21B021AB297F820301BB2DC
:1006DC0013431AB27B689A8297F823301BB21B0221
:1006EC001AB297F822301BB213431AB27B68DA8223
:1006FC0000BF2837BD4680BD50010020840000207B
:10070C0080B588B004AF786064230293062301930C
:10071C0007F1080300930123F722EC210F4801F0A5
:10072C0089FB3B7A1A037B7A1B011343BA7A1209B1
:10073C00D2B213431A467B681A60FB7A1A033B7BCE
:10074C001B0113437A7B1209D2B213431A467B68FE
:10075C005A6000BF1037BD4680BD00BF840000202A
:10076C002DE9B04FCCB000AFC7F80C01C7F8081199
:10077C00C7F80421D7F808315B68DA08D7F80C31D0
:10078C001B885B00D21AD7F80C31B3F9023002FB8C
:10079C0003F3DB0AC7F82C31D7F808315B681A0968
:1007AC00D7F80C311B88D11AD7F808315B681A09B5
:1007BC00D7F80C311B88D31A01FB03F31A0BD7F8AB
:1007CC000C31B3F9043002FB03F39B0BC7F828314F
:1007DC00D7F82C21D7F828311A44AF4B1A60AE4BFE
:1007EC001A6813469B00134480331A12D7F804314D
:1007FC005A60A94B1B68A3F5FA33DA17BB64FA6489
:10080C00D7E91223C7E94823D7F82421D7F8203198
:10081C0003FB02F1D7F82421D7F8203102FB03F3B4
:10082C00CA18D7F82031A3FB034553191D46D7F836
:10083C000C31B3F910301BB2DA17C7F8C030C7F857
:10084C00C420D7E93001034603FB05F20B4604FB39
:10085C0003F313440246A4FB02894B449946C7E9AF
:10086C004689C7E94689D7F80C31B3F90E301BB26B
:10087C00DA17C7F8B830C7F8BC20D7F82031D7E959
:10088C002E452A4602FB03F2D7F82431214601FB00
:10089C0003F31A44D7F820312146A3FB01AB02EB3A
:1008AC000B039B464FF000004FF000014FEA4B4109
:1008BC0041EADA314FEA4A40D7E9462314183C643E
:1008CC004B417B64D7E91034C7E94634D7F80C3177
:1008DC00B3F90C301BB2DA17C7F8B030C7F8B42034
:1008EC004FF000004FF00001D7F8B030D9000020D5
:1008FC00D7E946231418BC634B41FB63D7E90E348C
:10090C00C7E94634D7F82421D7F8203103FB02F18C
:10091C00D7F82421D7F8203102FB03F3CA18D7F8F3
:10092C002031A3FB0331C7F8FC10C7F8F830D7F817
:10093C00FC30D318C7F8FC30D7F80C31B3F90A30B7
:10094C001BB2DA17C7F8A830C7F8AC20D7E93E3489
:10095C002246D7E92A89414601FB02F24D46184648
:10096C002146034603FB05F3134402464146A2FB12
:10097C000121C7F8F410C7F8F020D7F8F42013447D
:10098C00C7F8F4304FF000004FF00001D7E93C45B8
:10099C002346180A2A4640EA02602B461912D7F859
:1009AC000C31B3F908301BB2DA17C7F8A030C7F80E
:1009BC00A420D7F82031D7E928894A4602FB03F254
:1009CC00D7F82431444604FB03F31A44D7F82031FA
:1009DC004446A3FB0434C7F8EC40C7F8E830D7F81A
:1009EC00EC30D318C7F8EC304FF000024FF0000396
:1009FC00D7E93A894C462303C44643EA1C53444680
:100A0C00220384183C6341EB03037B63D7E90C346A
:100A1C00C7E94834D7E9482303F50041C7F89C10CF
:100A2C00C7F89820D7F80C31DB889BB20022C7F8A6
:100A3C009030C7F89420D7E926342246D7E9248988
:100A4C00414601FB02F24D4618462146034603FB84
:100A5C0005F3134402464146A2FB0121C7F8E410FA
:100A6C00C7F8E020D7F8E4201344C7F8E4304FF07F
:100A7C0000024FF00003D7E9384529464A102946B1
:100A8C00CB17C7E94823D7E94823134306D1D7F836
:100A9C00043100221A6056E148010020D7F80831D1
:100AAC001B680022C7F88830C7F88C200023D7E9D0
:100ABC0022120846D0F58010B86263EB0203FB6289
:100ACC00D7E90A34C7E94434D7E944234FF000008E
:100ADC004FF00001D90741EA5201D007D7E946236C
:100AEC00841AC7F8804061EB0303C7F88430D7E958
:100AFC00204522462B46911839625B417B62D7E92F
:100B0C00082321465118B96129464B41FB614FF02E
:100B1C0000024FF00003D7E9068949468B01414694
:100B2C0043EA916341468A01414689183961494635
:100B3C0043EB010179614FF000024FF00003D7E95C
:100B4C00048949468B00C44643EA9C7341468A009B
:100B5C0010461946034622469B18BB600B462A4694
:100B6C0042EB0303FB604FF000024FF00003D7E9A8
:100B7C00028949468B00C44643EA9C7341468A006D
:100B8C0010461946034622469B18BB672B460A465D
:100B9C0042EB0303FB67D7E94823D7E91E01FFF7B4
:100BAC00CFFA02460B46C7E94423D7F80C31B3F908
:100BBC0016301BB2DA173B677A67D7E944234FF03C
:100BCC0000004FF00001500B40EAC3405913D7E925
:100BDC001C452B4600FB03F2234603FB01F3134495
:100BEC002246A2FB0021C7F8DC10C7F8D820D7F8A2
:100BFC00DC201344C7F8DC30D7E944234FF0000065
:100C0C004FF00001500B40EAC3405913D7E9364569
:100C1C002B4600FB03F2234603FB01F3134422464D
:100C2C00A2FB0021C7F8D410C7F8D020D7F8D420E5
:100C3C001344C7F8D4304FF000024FF00003D7E94B
:100C4C00344521464A0E204629460C4642EAC41237
:100C5C004B16C7E94823D7F80C31B3F914301BB243
:100C6C00DA17BB66FA66D7F81031D7E91A452A4667
:100C7C0002FB03F2D7F81431214601FB03F31344B2
:100C8C00D7F810212146A2FB0121C7F8CC10C7F8D8
:100C9C00C820D7F8CC201344C7F8CC304FF0000252
:100CAC004FF00003D7E932452146CA0C20462946AD
:100CBC000C4642EA4432CB14C7E94623D7E9440137
:100CCC00D7E9482384183C6641EB03037B66D7E9DC
:100CDC004623D7E9184521468918B965294643EBBF
:100CEC000101F9654FF000004FF00001D7E91645FE
:100CFC002346180A2A4640EA02602B461912D7F8F6
:100D0C000C31B3F912301BB2DA173B657A654FF030
:100D1C0000024FF00003D7E914894C462301C44666
:100D2C0043EA1C734446220184183C6041EB0303E4
:100D3C007B60D7E90034C7E94434D7F810311A0A7C
:100D4C00D7F804311A6007F59877BD46BDE8B08F27
:100D5C0080B584B000AF00F00FFB00F069F800F034
:100D6C0013F900F0ABF800F0E5F8284802F0E8FDC4
:100D7C004FF47A7000F062FBFFF7DAFB2448FFF7C0
:100D8C000DFC234B1B881946214BDB881A46204B44
:100D9C00B3F908301F4802F06BFD00237B604FF461
:100DAC00FA73FB604FF47A73BB601B4B1B687B6060
:100DBC007A68FB689A4208D94FF40051174800F042
:100DCC00E1FD7B6803F5FA73FB607A68BB689A42B5
:100DDC00EBD31348FFF794FC124A11490C48FFF768
:100DEC00BFFCBB6803F57A73BB600D4B1B680C4AE8
:100DFC00526819460C4802F03BFD0A4B1B68094A25
:100E0C0052681946094802F033FDCEE73C4600080B
:100E1C00200100204C460008500100200010014029
:100E2C00380100204001002078460008A446000844
:100E3C0080B590B000AF07F11803282200211846A6
:100E4C0002F05EFE3B1D00221A605A609A60DA6066
:100E5C001A610123BB614FF48033FB6100233B62B9
:100E6C000123BB6202237B634FF48033BB634FF4DB
:100E7C00E013FB6307F11803184601F003FE034669
:100E8C00002B01D000F0D8F80F237B600223BB604D
:100E9C000023FB604FF480633B6100237B613B1DAF
:100EAC000221184602F070F80346002B01D000F026
:100EBC00C3F800BF4037BD4680BD000080B500AF11
:100ECC00184B194A1A60174B184A5A60154B0022D6
:100EDC009A60144B0022DA60124B4FF480421A6174
:100EEC00104B00225A610F4B00229A610D4B0022CD
:100EFC00DA610C4B00221A620D4B1B690C4A43F44D
:100F0C00800313610A4B1B69094A23F480031361A4
:100F1C00044800F051FD0346002B01D000F08CF882
:100F2C0000BF80BD8400002000580040A086010056
:100F3C000010024080B500AF114B124A1A60104BE2
:100F4C004FF4E1325A600E4B00229A600C4B002297
:100F5C00DA600B4B00221A61094B0C225A61084BC8
:100F6C0000229A61064B0022DA61054802F09AF9D8
:100F7C000346002B01D000F05FF800BF80BD00BF1E
:100F8C00D80000200038014080B588B000AF07F1D0
:100F9C00100300221A605A609A60DA60244B9B6935
:100FAC00234A43F010039361214B9B6903F0100318
:100FBC00FB60FB681E4B9B691D4A43F02003936149
:100FCC001B4B9B6903F02003BB60BB68184B9B69F0
:100FDC00174A43F008039361154B9B6903F0080310
:100FEC007B607B68124B9B69114A43F0040393614D
:100FFC000F4B9B6903F004033B603B6801224FF4E9
:10100C0000510C4800F0A6FC4FF400533B61112337
:10101C007B610023BB610223FB6107F110031946BE
:10102C00044800F013FB00BF2037BD4680BD00BF55
:10103C00001002400010014080B400AF72B600BF37
:10104C0000BFFDE780B485B000AF154B9B69144A17
:10105C0043F001039361124B9B6903F00103BB60E6
:10106C00BB680F4BDB690E4A43F08053D3610C4BCA
:10107C00DB6903F080537B607B680A4B5B68FB6029
:10108C00FB6823F0E063FB60FB6843F00073FB60DC
:10109C00044AFB68536000BF1437BD4680BC7047E0
:1010AC00001002400000014080B588B000AF7860AD
:1010BC0007F1100300221A605A609A60DA607B68AC
:1010CC001B68164A934224D1154B9B69144A43F072
:1010DC0008039361124B9B6903F00803FB60FB68E8
:1010EC004FF440633B6112237B610323FB6107F1E7
:1010FC00100319460B4800F0A9FA094BDB69084AA2
:10110C0043F48003D361064BDB6903F48003BB60BB
:10111C00BB6800BF2037BD4680BD00BF00580040F3
:10112C0000100240000C014080B588B000AF786020
:10113C0007F1100300221A605A609A60DA607B682B
:10114C001B681C4A934231D11B4B9B691A4A43F4CE
:10115C0080439361184B9B6903F48043FB60FB68ED
:10116C00154B9B69144A43F004039361124B9B6922
:10117C0003F00403BB60BB684FF400733B610223B4
:10118C007B610323FB6107F1100319460B4800F048
:10119C005DFA4FF480633B6100237B610023BB61EC
:1011AC0007F110031946054800F050FA00BF20372C
:1011BC00BD4680BD003801400010024000080140CF
:1011CC0080B400AF00BFFDE780B400AF00BFFDE707
:1011DC0080B400AF00BFFDE780B400AF00BFFDE7F7
:1011EC0080B400AF00BFFDE780B400AF00BFBD46C8
:1011FC0080BC704780B400AF00BFBD4680BC704758
:10120C0080B400AF00BFBD4680BC704780B500AF56
:10121C0000F0F8F800BF80BD80B586B000AFF86074
:10122C00B9607A6000237B610AE0AFF3008001466D
:10123C00BB685A1CBA60CAB21A707B6901337B61F5
:10124C007A697B689A42F0DB7B6818461837BD4692
:10125C0080BD80B483B000AF78604FF0FF33184688
:10126C000C37BD4680BC704780B483B000AF78604B
:10127C0039603B684FF400525A60002318460C3713
:10128C00BD4680BC704780B483B000AF786001234A
:10129C0018460C37BD4680BC704780B485B000AF93
:1012AC00F860B9607A60002318461437BD4680BCDC
:1012BC007047000080B586B000AF7860144A154BBB
:1012CC00D31A7B617B693B61134B1B68002B02D1EA
:1012DC00114B124A1A60104B1A687B6813443A6916
:1012EC009A4207D202F05AFC03460C221A604FF0C5
:1012FC00FF3309E0084B1B68FB60074B1A687B68DF
:10130C001344054A1360FB6818461837BD4680BD68
:10131C0000500020000400004C010020A00200201E
:10132C0080B400AF00BFBD4680BC7047FFF7F8FF2C
:10133C000B480C490C4A002302E0D458C450043327
:10134C00C4188C42F9D3094A094C002301E01360FC
:10135C000432A242FBD302F027FCFFF7F9FC7047E2
:10136C0000000020680000203847000868000020BA
:10137C00A0020020FEE7000080B500AF084B1B6800
:10138C00074A43F010031360032000F02BF90F20E1
:10139C0000F008F8FFF756FE0023184680BD00BF8A
:1013AC000020024080B582B000AF7860124B1A6802
:1013BC00124B1B7819464FF47A73B3FBF1F3B2FB63
:1013CC00F3F3184600F035F90346002B01D0012346
:1013DC000EE07B680F2B0AD8002279684FF0FF30A3
:1013EC0000F00BF9064A7B681360002300E0012330
:1013FC0018460837BD4680BD0000002008000020BC
:10140C000400002080B400AF054B1B781A46054B36
:10141C001B681344034A136000BFBD4680BC704771
:10142C00080000205001002080B400AF024B1B6864
:10143C001846BD4680BC70475001002080B584B072
:10144C0000AF7860FFF7F0FFB8607B68FB60FB686B
:10145C00B3F1FF3F05D00A4B1B781A46FB681344C7
:10146C00FB6000BFFFF7E0FF0246BB68D31AFA68C7
:10147C009A42F7D800BF00BF1037BD4680BD00BFF1
:10148C000800002080B485B000AF78607B6803F062
:10149C000703FB600C4BDB68BB60BA684FF6FF03BD
:1014AC001340BB60FB681A02BB68134343F0BF6375
:1014BC0043F40033BB60044ABB68D36000BF1437ED
:1014CC00BD4680BC704700BF00ED00E080B400AFAB
:1014DC00044BDB681B0A03F007031846BD4680BCAF
:1014EC00704700BF00ED00E080B483B000AF03464E
:1014FC003960FB7197F90730002B0ADB3B68DAB2D5
:10150C000C4997F907301201D2B20B4483F800232F
:10151C000AE03B68DAB20849FB7903F00F03043B9D
:10152C001201D2B20B441A7600BF0C37BD4680BCF8
:10153C00704700BF00E100E000ED00E080B489B02E
:10154C0000AFF860B9607A60FB6803F00703FB61D9
:10155C00FB69C3F10703042B28BF0423BB61FB69A0
:10156C000433062B02D9FB69033B00E000237B61AB
:10157C004FF0FF32BB6902FA03F3DA43BB681A403F
:10158C007B699A404FF0FF317B6901FA03F3D94331
:10159C007B680B40134318462437BD4680BC70470C
:1015AC0080B582B000AF78607B68013BB3F1807F7F
:1015BC0001D301230FE00A4A7B68013B53600F21E2
:1015CC004FF0FF30FFF790FF054B00229A60044B61
:1015DC0007221A60002318460837BD4680BD00BF9D
:1015EC0010E000E080B582B000AF78607868FFF75B
:1015FC0049FF00BF0837BD4680BD80B586B000AF3F
:10160C000346B9607A60FB7300237B61FFF75EFFD2
:10161C0078617A68B9687869FFF790FF024697F9A4
:10162C000F3011461846FFF75FFF00BF1837BD4655
:10163C0080BD80B582B000AF78607868FFF7B0FFEE
:10164C00034618460837BD4680BD000080B48BB0F9
:10165C0000AF7860396000237B6200233B6269E154
:10166C0001227B6A02FA03F3FB613B681B68FA698F
:10167C001340BB61BA69FB699A4240F058813B68E0
:10168C005B689A4A93425ED0984A934275D8984ABE
:10169C00934258D0964A93426FD8964A934252D06E
:1016AC00944A934269D8944A93424CD0924A9342BA
:1016BC0063D8924A934246D0904A93425DD8122BFB
:1016CC002AD8122B59D801A252F823F0531700082C
:1016DC002D1700083F17000881170008871700080E
:1016EC008717000887170008871700088717000856
:1016FC008717000887170008871700088717000846
:10170C008717000887170008871700088717000835
:10171C003517000849170008794A934213D02CE07A
:10172C003B68DB683B6229E03B68DB6804333B6267
:10173C0024E03B68DB6808333B621FE03B68DB68F6
:10174C000C333B621AE03B689B68002B02D10423EC
:10175C003B6213E03B689B68012B05D108233B627D
:10176C007B68FA691A6109E008233B627B68FA69B5
:10177C005A6103E000233B6200E000BFBB69FF2B12
:10178C0001D87B6801E07B6804337B61BB69FF2B6C
:10179C0002D87B6A9B0002E07B6A083B9B003B61A2
:1017AC007B691A680F213B6901FA03F3DB431A408A
:1017BC00396A3B6901FA03F31A437B691A603B6887
:1017CC005B6803F08053002B00F0B1804D4B9B699C
:1017DC004C4A43F0010393614A4B9B6903F00103AC
:1017EC00BB60BB68484A7B6A9B08023352F82330C3
:1017FC00FB607B6A03F003039B000F2202FA03F3E6
:10180C00DB43FA681340FB607B68404A934213D079
:10181C007B683F4A93420DD07B683E4A934207D087
:10182C007B683D4A934201D1032306E0042304E084
:10183C00022302E0012300E000237A6A02F0030293
:10184C0092009340FA681343FB602F497B6A9B0814
:10185C000233FA6841F823203B685B6803F4801379
:10186C00002B06D02D4B9A682C49BB6913438B6017
:10187C0006E02A4B9A68BB69DB43284913408B600E
:10188C003B685B6803F40013002B06D0234BDA682B
:10189C002249BB691343CB6006E0204BDA68BB6975
:1018AC00DB431E491340CB603B685B6803F4003399
:1018BC00002B06D0194B5A681849BB6913434B606F
:1018CC0006E0164B5A68BB69DB43144913404B6066
:1018DC003B685B6803F48033002B21D00F4B1A68F4
:1018EC000E49BB6913430B6021E000BF00003210AE
:1018FC000000311000002210000021100000121016
:10190C0000001110001002400000014000080140CE
:10191C00000C014000100140001401400004014083
:10192C000B4B1A68BB69DB43094913400B607B6A9C
:10193C0001337B623B681A687B6A22FA03F3002B43
:10194C007FF48EAE00BF00BF2C37BD4680BC704705
:10195C000004014080B483B000AF78600B467B80FC
:10196C0013467B707B78002B03D07A887B681A61D6
:10197C0003E07B881A047B681A6100BF0C37BD46F4
:10198C0080BC704780B485B000AF78600B467B801C
:10199C007B68DB68FB607A88FB6813401A04FB6881
:1019AC00D9437B880B401A437B681A6100BF1437FC
:1019BC00BD4680BC7047000080B584B000AF786035
:1019CC007B68002B01D101232BE17B6893F83D3020
:1019DC00DBB2002B06D17B68002283F83C207868B0
:1019EC00FFF762FB7B68242283F83D207B681B6831
:1019FC001A687B681B6822F001021A607B681B68FE
:101A0C001A687B681B6842F400421A607B681B688A
:101A1C001A687B681B6822F400421A6001F0FCFB18
:101A2C00F8607B685B68814A934207D8FB68804A00
:101A3C00934294BF01230023DBB206E0FB687D4A8E
:101A4C00934294BF01230023DBB2002B01D001236E
:101A5C00E7E0FB68784AA2FB03239B0CBB607B6826
:101A6C001B685B6823F03F017B681B68BA680A43FC
:101A7C005A607B681B681B6A23F03F017B685B68BC
:101A8C006A4A934202D8BB68013309E0BB684FF441
:101A9C00967202FB03F3694AA2FB03239B090133F1
:101AAC007A6812680B4313627B681B68DB6923F44A
:101ABC004F4222F0FF027B685B685C498B4219D86D
:101ACC00FB68591E7B685B685B00B1FBF3F3591C28
:101ADC0040F6FC730B40002B0AD0FB68591E7B6848
:101AEC005B685B00B1FBF3F30133C3F30B0351E011
:101AFC0004234FE07B689B68002B11D1FB68581EB8
:101B0C007B6859680B465B000B44B0FBF3F3013365
:101B1C00C3F30B03002B0CBF01230023DBB212E039
:101B2C00FB68581E7B6859680B469B000B44990058
:101B3C000B44B0FBF3F30133C3F30B03002B0CBFCB
:101B4C0001230023DBB2002B01D0012322E07B68B0
:101B5C009B68002B0ED1FB68581E7B6859680B469E
:101B6C005B000B44B0FBF3F30133C3F30B0343F4FF
:101B7C0000430FE0FB68581E7B6859680B469B00BE
:101B8C000B4499000B44B0FBF3F30133C3F30B0389
:101B9C0043F44043796809681343CB617B681B6845
:101BAC001B6823F0C0017B68DA697B681B6A1A43E7
:101BBC007B681B680A431A607B681B689B6823F46C
:101BCC00034323F0FF037A6811697A68D2681143E2
:101BDC007A6812680B4393607B681B68DB6823F0A0
:101BEC00FF017B685A697B689B691A437B681B6899
:101BFC000A43DA607B681B681A687B681B6842F0D2
:101C0C0001021A607B6800221A647B68202283F828
:101C1C003D207B6800221A637B68002283F83E20FB
:101C2C00002318461037BD4680BD00BFA0860100BA
:101C3C007F841E00FF083D0083DE1B43D34D6210E2
:101C4C0080B588B002AFF860084611461A460346C4
:101C5C007B810B463B811346FB80FFF7E5FB7861EC
:101C6C00FB6893F83D30DBB2202B40F0D9807B69C8
:101C7C000093192301226D49F86800F0CDFC03464E
:101C8C00002B01D00223CCE0FB6893F83C30012BF5
:101C9C0001D10223C5E0FB68012283F83C20FB68DC
:101CAC001B681B6803F00103012B07D0FB681B6842
:101CBC001A68FB681B6842F001021A60FB681B681B
:101CCC001A68FB681B6822F400621A60FB68212208
:101CDC0083F83D20FB68402283F83E20FB680022FD
:101CEC001A64FB683A6A5A62FB68BA8C5A85FB68BC
:101CFC005B8D9AB2FB681A85FB684D4ADA62F888EC
:101D0C003A8979897B690193BB6A00930346F86829
:101D1C0000F004FB0346002B52D0012381E07A69CA
:101D2C00B96AF86800F092FD0346002B0DD0FB68F1
:101D3C001B6C042B07D1FB681B681A68FB681B68BB
:101D4C0042F400721A6001236BE0FB685B6A1A783C
:101D5C00FB681B681A61FB685B6A5A1CFB685A6259
:101D6C00FB681B8D013B9AB2FB681A85FB685B8D87
:101D7C009BB2013B9AB2FB685A85FB681B685B6996
:101D8C0003F00403042B1BD1FB681B8D002B17D015
:101D9C00FB685B6A1A78FB681B681A61FB685B6AF4
:101DAC005A1CFB685A62FB681B8D013B9AB2FB689C
:101DBC001A85FB685B8D9BB2013B9AB2FB685A8516
:101DCC00FB681B8D002BAAD17A69B96AF86800F000
:101DDC0085FD0346002B0DD0FB681B6C042B07D133
:101DEC00FB681B681A68FB681B6842F400721A6077
:101DFC00012316E0FB681B681A68FB681B6842F439
:101E0C0000721A60FB68202283F83D20FB680022D8
:101E1C0083F83E20FB68002283F83C20002300E07E
:101E2C00022318461837BD4680BD00BF02001000C3
:101E3C000000FFFF80B58CB002AFF8600846114679
:101E4C001A4603467B810B463B811346FB800023DD
:101E5C003B62FFF7E9FA7862FB6893F83D30DBB23E
:101E6C00202B40F050827B6A009319230122824977
:101E7C00F86800F0D1FB0346002B01D0022343E2AB
:101E8C00FB6893F83C30012B01D102233CE2FB6848
:101E9C00012283F83C20FB681B681B6803F00103DC
:101EAC00012B07D0FB681B681A68FB681B6842F0A3
:101EBC0001021A60FB681B681A68FB681B6822F435
:101ECC0000621A60FB68222283F83D20FB684022E6
:101EDC0083F83E20FB6800221A64FB683A6B5A6256
:101EEC00FB68BA8E5A85FB685B8D9AB2FB681A85C3
:101EFC00FB68624ADA62F8883A8979897B6A0193CD
:101F0C00BB6B00930346F86800F09EFA0346002B67
:101F1C0001D00123F8E1FB681B8D002B13D10023AA
:101F2C00FB61FB681B685B69FB61FB681B689B6959
:101F3C00FB61FB69FB681B681A68FB681B6842F451
:101F4C0000721A60CCE1FB681B8D012B1ED1FB6863
:101F5C001B681A68FB681B6822F480621A6072B6F0
:101F6C0000BF0023BB61FB681B685B69BB61FB683E
:101F7C001B689B69BB61BB69FB681B681A68FB68C3
:101F8C001B6842F400721A6062B635E0FB681B8D68
:101F9C00022B1ED1FB681B681A68FB681B6842F495
:101FAC0000621A6072B600BF00237B61FB681B687D
:101FBC005B697B61FB681B689B697B617B69FB6868
:101FCC001B681A68FB681B6822F480621A6062B690
:101FDC0012E0FB681B681A68FB681B6842F480629D
:101FEC001A6000233B61FB681B685B693B61FB6803
:101FFC001B689B693B613B6972E1FB681B8D032B82
:10200C0000F21F81FB681B8D012B23D17A6AB96BFF
:10201C00F86800F0ABFC0346002B01D0012373E100
:10202C00FB681B681A69FB685B6AD2B21A70FB68A2
:10203C005B6A5A1CFB685A62FB681B8D013B9AB2A7
:10204C00FB681A85FB685B8D9BB2013B9AB2FB68FF
:10205C005A8545E1FB681B8D022B52D17B6A00939C
:10206C00BB6B00220649F86800F0D6FA0346002B39
:10207C0008D0012348E100BF020010000000FFFF60
:10208C000400010072B600BFFB681B681A68FB688D
:10209C001B6842F400721A60FB681B681A69FB68C3
:1020AC005B6AD2B21A70FB685B6A5A1CFB685A6294
:1020BC00FB681B8D013B9AB2FB681A85FB685B8D34
:1020CC009BB2013B9AB2FB685A8562B600BFFB68B3
:1020DC001B681A69FB685B6AD2B21A70FB685B6A90
:1020EC005A1CFB685A62FB681B8D013B9AB2FB6859
:1020FC001A85FB685B8D9BB2013B9AB2FB685A85D3
:10210C00EEE07B6A0093BB6B00228149F86800F01B
:10211C0083FA0346002B01D00123F5E0FB681B6812
:10212C001A68FB681B6822F480621A6072B600BFE2
:10213C00FB681B681A69FB685B6AD2B21A70FB6891
:10214C005B6A5A1CFB685A62FB681B8D013B9AB296
:10215C00FB681A85FB685B8D9BB2013B9AB2FB68EE
:10216C005A856C4B1B68DB086B4AA2FB03231A0ACB
:10217C0013469B001344DA00D31A3B623B6A013BC3
:10218C003B623B6A002B18D1FB6800221A63FB6888
:10219C00202283F83D20FB68002283F83E20FB6858
:1021AC001B6C43F02002FB681A6462B600BFFB682C
:1021BC00002283F83C200123A6E0FB681B685B69C6
:1021CC0003F00403042BD9D1FB681B681A68FB6865
:1021DC001B6842F400721A60FB681B681A69FB6882
:1021EC005B6AD2B21A70FB685B6A5A1CFB685A6253
:1021FC00FB681B8D013B9AB2FB681A85FB685B8DF3
:10220C009BB2013B9AB2FB685A8562B600BFFB6871
:10221C001B681A69FB685B6AD2B21A70FB685B6A4E
:10222C005A1CFB685A62FB681B8D013B9AB2FB6817
:10223C001A85FB685B8D9BB2013B9AB2FB685A8591
:10224C004EE07A6AB96BF86800F090FB0346002BFD
:10225C0001D0012358E0FB681B681A69FB685B6AB4
:10226C00D2B21A70FB685B6A5A1CFB685A62FB6834
:10227C001B8D013B9AB2FB681A85FB685B8D9BB288
:10228C00013B9AB2FB685A85FB681B685B6903F0DB
:10229C000403042B24D1FB681B8D032B07D1FB6893
:1022AC001B681A68FB681B6822F480621A60FB6862
:1022BC001B681A69FB685B6AD2B21A70FB685B6AAE
:1022CC005A1CFB685A62FB681B8D013B9AB2FB6877
:1022DC001A85FB685B8D9BB2013B9AB2FB685A85F1
:1022EC00FB681B8D002B7FF488AEFB68202283F8E3
:1022FC003D20FB68002283F83E20FB68002283F817
:10230C003C20002300E0022318462837BD4680BD40
:10231C00040001000000002089B5F81480B588B0D5
:10232C0002AFF860084611461A4603467B810B46FD
:10233C003B811346FB80FB681B681A68FB681B68B3
:10234C0042F480721A607B6A00933B6A00224FF061
:10235C000111F86800F060F90346002B0DD0FB6802
:10236C001B681B6803F48073B3F5807F03D1FB6893
:10237C004FF400721A6403235FE07B89DBB21A46C8
:10238C00FB681B6802F0FE021A617B6A3A6A2D49EF
:10239C00F86800F0BBF90346002B01D001234CE098
:1023AC0000237B61FB681B685B697B61FB681B68B6
:1023BC009B697B617B697A6A396AF86800F046FA36
:1023CC000346002B0DD0FB681B6C042B07D1FB685C
:1023DC001B681A68FB681B6842F400721A600123C0
:1023EC002BE0FB88012B05D13B89DAB2FB681B681B
:1023FC001A6121E03B891B0A9BB2DAB2FB681B68AD
:10240C001A617A6A396AF86800F020FA0346002BE0
:10241C000DD0FB681B6C042B07D1FB681B681A687A
:10242C00FB681B6842F400721A60012305E03B89CB
:10243C00DAB2FB681B681A61002318461837BD46D0
:10244C0080BD00BF0200010080B588B002AFF8600B
:10245C00084611461A4603467B810B463B811346C0
:10246C00FB80FB681B681A68FB681B6842F480627F
:10247C001A60FB681B681A68FB681B6842F4807260
:10248C001A607B6A00933B6A00224FF00111F868D6
:10249C0000F0C2F80346002B0DD0FB681B681B68CC
:1024AC0003F48073B3F5807F03D1FB684FF40072A3
:1024BC001A640323AAE07B89DBB21A46FB681B680B
:1024CC0002F0FE021A617B6A3A6A5249F86800F01F
:1024DC001DF90346002B01D0012397E000237B61FB
:1024EC00FB681B685B697B61FB681B689B697B6194
:1024FC007B697A6A396AF86800F0A8F90346002B00
:10250C000DD0FB681B6C042B07D1FB681B681A6889
:10251C00FB681B6842F400721A60012376E0FB88AA
:10252C00012B05D13B89DAB2FB681B681A6121E0EB
:10253C003B891B0A9BB2DAB2FB681B681A617A6A88
:10254C00396AF86800F082F90346002B0DD0FB685D
:10255C001B6C042B07D1FB681B681A68FB681B6893
:10256C0042F400721A60012350E03B89DAB2FB6836
:10257C001B681A617A6A396AF86800F067F90346D1
:10258C00002B0DD0FB681B6C042B07D1FB681B6860
:10259C001A68FB681B6842F400721A60012335E06C
:1025AC00FB681B681A68FB681B6842F480721A602F
:1025BC007B6A00933B6A00224FF00111F86800F02F
:1025CC002BF80346002B0DD0FB681B681B6803F42B
:1025DC008073B3F5807F03D1FB684FF400721A64EB
:1025EC00032313E07B89DBB243F00103DAB2FB680F
:1025FC001B681A617B6A3A6A0649F86800F086F82B
:10260C000346002B01D0012300E0002318461837A5
:10261C00BD4680BD0200010080B584B000AFF860FB
:10262C00B9603B601346FB7148E03B68B3F1FF3F78
:10263C0044D0FEF7F9FE0246BB69D31A3A689A42B7
:10264C0002D33B68002B39D1BB681B0CDBB2012BCE
:10265C000DD1FB681B685B69DA43BB6813409BB206
:10266C00002B0CBF01230023DBB21A460CE0FB68E5
:10267C001B689B69DA43BB6813409BB2002B0CBFF1
:10268C0001230023DBB21A46FB799A4216D1FB6870
:10269C0000221A63FB68202283F83D20FB6800228D
:1026AC0083F83E20FB681B6C43F02002FB681A6425
:1026BC00FB68002283F83C20012323E0BB681B0C41
:1026CC00DBB2012B0DD1FB681B685B69DA43BB687D
:1026DC0013409BB2002B0CBF01230023DBB21A4624
:1026EC000CE0FB681B689B69DA43BB6813409BB228
:1026FC00002B0CBF01230023DBB21A46FB799A4254
:10270C0093D0002318461037BD4680BD80B584B0E9
:10271C0000AFF860B9607A603B6071E0FB681B68E1
:10272C005B6903F48063B3F5806F23D1FB681B688E
:10273C001A68FB681B6842F400721A60FB681B681D
:10274C006FF480625A61FB6800221A63FB682022D6
:10275C0083F83D20FB68002283F83E20FB681B6C4D
:10276C0043F00402FB681A64FB68002283F83C20E7
:10277C00012367E07B68B3F1FF3F41D0FEF754FEC5
:10278C0002463B68D31A7A689A4202D37B68002BC4
:10279C0036D1BB681B0CDBB2012B0CD1FB681B6860
:1027AC005B69DA43BB6813409BB2002B14BF012357
:1027BC000023DBB20BE0FB681B689B69DA43BB6848
:1027CC0013409BB2002B14BF01230023DBB2002B60
:1027DC0016D0FB6800221A63FB68202283F83D2088
:1027EC00FB68002283F83E20FB681B6C43F0200240
:1027FC00FB681A64FB68002283F83C20012321E06B
:10280C00BB681B0CDBB2012B0CD1FB681B685B6932
:10281C00DA43BB6813409BB2002B14BF0123002387
:10282C00DBB20BE0FB681B689B69DA43BB681340A7
:10283C009BB2002B14BF01230023DBB2002B7FF4CF
:10284C006DAF002318461037BD4680BD80B584B0EF
:10285C0000AFF860B9607A6034E0F86800F0E3F833
:10286C000346002B01D0012334E0BB68B3F1FF3FDA
:10287C0028D0FEF7D9FD02467B68D31ABA689A4273
:10288C0002D3BB68002B1DD1FB681B685B6903F08E
:10289C008003802B16D0FB6800221A63FB68202271
:1028AC0083F83D20FB68002283F83E20FB681B6CFC
:1028BC0043F02002FB681A64FB68002283F83C207A
:1028CC00012307E0FB681B685B6903F08003802B26
:1028DC00C3D1002318461037BD4680BD80B584B0E7
:1028EC0000AFF860B9607A6034E0F86800F09BF8EB
:1028FC000346002B01D0012334E0BB68B3F1FF3F4A
:10290C0028D0FEF791FD02467B68D31ABA689A422A
:10291C0002D3BB68002B1DD1FB681B685B6903F0FD
:10292C000403042B16D0FB6800221A63FB682022D8
:10293C0083F83D20FB68002283F83E20FB681B6C6B
:10294C0043F02002FB681A64FB68002283F83C20E9
:10295C00012307E0FB681B685B6903F00403042B8D
:10296C00C3D1002318461037BD4680BD80B584B056
:10297C0000AFF860B9607A6049E0FB681B685B697E
:10298C0003F01003102B19D1FB681B686FF01002B9
:10299C005A61FB6800221A63FB68202283F83D20F1
:1029AC00FB68002283F83E20FB681A6CFB681A64F3
:1029BC00FB68002283F83C20012330E0FEF734FD55
:1029CC0002467B68D31ABA689A4202D3BB68002BC2
:1029DC001DD1FB681B685B6903F04003402B16D0CC
:1029EC00FB6800221A63FB68202283F83D20FB68F9
:1029FC00002283F83E20FB681B6C43F02002FB682E
:102A0C001A64FB68002283F83C20012307E0FB6872
:102A1C001B685B6903F04003402BAED100231846C2
:102A2C001037BD4680BD80B483B000AF78607B6842
:102A3C001B685B6903F48063B3F5806F1BD17B6803
:102A4C001B686FF480625A617B6800221A637B6892
:102A5C00202283F83D207B68002283F83E207B688F
:102A6C001B6C43F004027B681A647B68002283F8B9
:102A7C003C20012300E0002318460C37BD4680BCE7
:102A8C007047000080B586B000AF78607B68002B83
:102A9C0001D1012372E27B681B6803F00103002B58
:102AAC0000F08780924B5B6803F00C03042B0CD076
:102ABC008F4B5B6803F00C03082B12D18C4B5B68BB
:102ACC0003F48033B3F5803F0BD1894B1B6803F4BF
:102ADC000033002B6CD07B685B68002B68D1012322
:102AEC004CE27B685B68B3F5803F06D1804B1B687A
:102AFC007F4A43F4803313602EE07B685B68002BC5
:102B0C000CD17B4B1B687A4A23F480331360784BCF
:102B1C001B68774A23F4802313601DE07B685B6895
:102B2C00B3F5A02F0CD1724B1B68714A43F4802370
:102B3C0013606F4B1B686E4A43F4803313600BE0D9
:102B4C006B4B1B686A4A23F480331360684B1B6819
:102B5C00674A23F4802313607B685B68002B13D0D7
:102B6C00FEF762FC386108E0FEF75EFC02463B694A
:102B7C00D31A642B01D9032300E25D4B1B6803F4C9
:102B8C000033002BF0D014E0FEF74EFC386108E067
:102B9C00FEF74AFC02463B69D31A642B01D9032386
:102BAC00ECE1534B1B6803F40033002BF0D100E035
:102BBC0000BF7B681B6803F00203002B63D04C4BF7
:102BCC005B6803F00C03002B0BD0494B5B6803F0E4
:102BDC000C03082B1CD1464B5B6803F48033002B91
:102BEC0016D1434B1B6803F00203002B05D07B6806
:102BFC001B69012B01D00123C0E13D4B1B6823F065
:102C0C00F8027B685B69DB00394913430B603AE0DF
:102C1C007B681B69002B20D0364B01221A60FEF713
:102C2C0003FC386108E0FEF7FFFB02463B69D31A50
:102C3C00022B01D90323A1E12D4B1B6803F00203E6
:102C4C00002BF0D02A4B1B6823F0F8027B685B69E1
:102C5C00DB00274913430B6015E0264B00221A605A
:102C6C00FEF7E2FB386108E0FEF7DEFB02463B694B
:102C7C00D31A022B01D9032380E11D4B1B6803F0EF
:102C8C000203002BF0D17B681B6803F00803002BB8
:102C9C003AD07B689B69002B19D0174B01221A6024
:102CAC00FEF7C2FB386108E0FEF7BEFB02463B694B
:102CBC00D31A022B01D9032360E10D4B5B6A03F09D
:102CCC000203002BF0D0012000F0CEFA1CE00A4BDE
:102CDC0000221A60FEF7A8FB38610FE0FEF7A4FB98
:102CEC0002463B69D31A022B08D9032346E100BFE5
:102CFC00001002400000424280044242924B5B6A48
:102D0C0003F00203002BE9D17B681B6803F004037A
:102D1C00002B00F0A6800023FB758B4BDB6903F0C6
:102D2C008053002B0DD1884BDB69874A43F08053CD
:102D3C00D361854BDB6903F08053BB60BB68012317
:102D4C00FB75824B1B6803F48073002B18D17F4BEF
:102D5C001B687E4A43F480731360FEF765FB386191
:102D6C0008E0FEF761FB02463B69D31A642B01D9DC
:102D7C00032303E1754B1B6803F48073002BF0D025
:102D8C007B68DB68012B06D16F4B1B6A6E4A43F0E4
:102D9C00010313622DE07B68DB68002B0CD16A4BBE
:102DAC001B6A694A23F001031362674B1B6A664A6C
:102DBC0023F0040313621CE07B68DB68052B0CD149
:102DCC00614B1B6A604A43F0040313625E4B1B6A3F
:102DDC005D4A43F0010313620BE05B4B1B6A5A4ADA
:102DEC0023F001031362584B1B6A574A23F0040368
:102DFC0013627B68DB68002B15D0FEF715FB38617E
:102E0C000AE0FEF711FB02463B69D31A41F2883205
:102E1C00934201D90323B1E04B4B1B6A03F002032D
:102E2C00002BEED014E0FEF7FFFA38610AE0FEF753
:102E3C00FBFA02463B69D31A41F28832934201D91C
:102E4C0003239BE0404B1B6A03F00203002BEED1E3
:102E5C00FB7D012B05D13C4BDB693B4A23F08053B6
:102E6C00D3617B68DB69002B00F08780364B5B6895
:102E7C0003F00C03082B61D07B68DB69022B46D175
:102E8C00334B00221A60FEF7CFFA386108E0FEF7E8
:102E9C00CBFA02463B69D31A022B01D903236DE00E
:102EAC00294B1B6803F00073002BF0D17B681B6A65
:102EBC00B3F5803F08D1244B5B6823F400327B6868
:102ECC009B68214913434B601F4B5B6823F47412BE
:102EDC007B68196A7B685B6A0B431B4913434B6025
:102EEC001B4B01221A60FEF79FFA386108E0FEF7CF
:102EFC009BFA02463B69D31A022B01D903233DE00E
:102F0C00114B1B6803F00073002BF0D035E0104B15
:102F1C0000221A60FEF788FA386108E0FEF784FA9E
:102F2C0002463B69D31A022B01D9032326E0064B38
:102F3C001B6803F00073002BF0D11EE07B68DB698B
:102F4C00012B07D1012319E0001002400070004052
:102F5C00600042420B4B5B68FB60FB6803F4803201
:102F6C007B681B6A9A4206D1FB6803F470127B687B
:102F7C005B6A9A4201D0012300E0002318461837FF
:102F8C00BD4680BD0010024080B584B000AF7860B3
:102F9C0039607B68002B01D10123D0E06A4B1B68A0
:102FAC0003F007033A689A4210D9674B1B6823F069
:102FBC00070265493B6813430B60634B1B6803F0C6
:102FCC0007033A689A4201D00123B8E07B681B687A
:102FDC0003F00203002B20D07B681B6803F0040372
:102FEC00002B05D0594B5B68584A43F4E06353609F
:102FFC007B681B6803F00803002B05D0534B5B6800
:10300C00524A43F460535360504B5B6823F0F00218
:10301C007B689B684D4913434B607B681B6803F0CE
:10302C000103002B40D07B685B68012B07D1474B19
:10303C001B6803F40033002B15D101237FE07B6860
:10304C005B68022B07D1414B1B6803F00073002B0C
:10305C0009D1012373E03D4B1B6803F00203002BE5
:10306C0001D101236BE0394B5B6823F003027B68D1
:10307C005B68364913434B60FEF7D6F9F8600AE0FB
:10308C00FEF7D2F90246FB68D31A41F2883293421A
:10309C0001D9032353E02D4B5B6803F00C027B68D2
:1030AC005B689B009A42EBD1274B1B6803F007032C
:1030BC003A689A4210D2244B1B6823F0070222492B
:1030CC003B6813430B60204B1B6803F007033A6803
:1030DC009A4201D0012332E07B681B6803F00403A1
:1030EC00002B08D0194B5B6823F4E0627B68DB682B
:1030FC00164913434B607B681B6803F00803002BD5
:10310C0009D0124B5B6823F460527B681B69DB00AF
:10311C000E4913434B6000F021F802460B4B5B68E1
:10312C001B0903F00F030A49CB5C22FA03F3094A8B
:10313C001360094B1B681846FEF734F90023184638
:10314C001037BD4680BD00BF002002400010024079
:10315C00C8460008000000200400002080B487B09E
:10316C0000AF0023FB600023BB6000237B610023C6
:10317C007B6000233B611E4B5B68FB60FB6803F0CC
:10318C000C03042B02D0082B03D027E0194B3B6116
:10319C0027E0FB689B0C03F00F03174AD35C7B60A2
:1031AC00FB6803F48033002B10D0114B5B685B0C75
:1031BC0003F00103114AD35CBB607B680D4A03FB2F
:1031CC0002F2BB68B2FBF3F37B6104E07B680C4A50
:1031DC0002FB03F37B617B693B6102E0054B3B61C6
:1031EC0000BF3B6918461C37BD4680BC704700BF0A
:1031FC000010024000127A00E0460008F046000879
:10320C0000093D0080B400AF024B1B681846BD4658
:10321C0080BC70470000002080B500AFFFF7F2FFC4
:10322C000246054B5B681B0A03F007030349CB5CA2
:10323C0022FA03F3184680BD00100240D84600085D
:10324C0080B500AFFFF7DEFF0246054B5B68DB0A7B
:10325C0003F007030349CB5C22FA03F3184680BD45
:10326C0000100240D846000880B485B000AF7860EA
:10327C000A4B1B680A4AA2FB03235B0A7A6802FB0F
:10328C0003F3FB6000BFFB685A1EFA60002BF9D1F8
:10329C0000BF00BF1437BD4680BC70470000002043
:1032AC00D34D621080B582B000AF78607B68002B84
:1032BC0001D1012342E07B6893F84130DBB2002B53
:1032CC0006D17B68002283F840207868FDF72CFF3C
:1032DC007B68242283F841207B681B68DA687B6852
:1032EC001B6822F40052DA60786800F071F97B6890
:1032FC001B681A697B681B6822F490421A617B6810
:10330C001B685A697B681B6822F02A025A617B6829
:10331C001B68DA687B681B6842F40052DA607B68D1
:10332C0000225A647B68202283F841207B6820228B
:10333C0083F842207B6800225A6300231846083722
:10334C00BD4680BD80B58AB002AFF860B9603B6005
:10335C001346FB8000237B61FB6893F84130DBB2A2
:10336C00202B75D1BB68002B02D0FB88002B01D120
:10337C0001236EE0FB6800225A64FB68212283F86B
:10338C004120FEF751F87861FB68FA889A84FB6853
:10339C00FA88DA84FB689B68B3F5805F08D1FB6818
:1033AC001B69002B04D10023FB61BB68BB6103E0EC
:1033BC00BB68FB610023BB612EE03B6800937B691B
:1033CC0000228021F86800F048F80346002B05D055
:1033DC00FB68202283F8412003233AE0FB69002B91
:1033EC000BD1BB691B881A46FB681B68C2F3080229
:1033FC005A60BB690233BB6107E0FB691A78FB6852
:10340C001B685A60FB690133FB61FB68DB8C9BB268
:10341C00013B9AB2FB68DA84FB68DB8C9BB2002B15
:10342C00CBD13B6800937B6900224021F86800F007
:10343C0014F80346002B05D0FB68202283F84120AA
:10344C00032306E0FB68202283F84120002300E0E0
:10345C00022318462037BD4680BD80B586B000AF2C
:10346C00F860B9603B601346FB713BE03B6AB3F11B
:10347C00FF3F37D0FDF7D8FF02463B68D31A3A6AB4
:10348C009A4202D33B6A002B01D103233AE0FB683A
:10349C001B68DB6803F00403002B23D0BB68802B74
:1034AC0020D0BB68402B1DD0FB681B681B6803F049
:1034BC000803082B16D100237B61FB681B681B6873
:1034CC007B61FB681B685B687B617B69F86800F05B
:1034DC001DF8FB6808225A64FB68002283F8402020
:1034EC0001230FE0FB681B681A68BB681340BA68BD
:1034FC009A420CBF01230023DBB21A46FB799A4295
:10350C00B4D0002318461837BD4680BD80B495B0A2
:10351C0000AF78607B681B680C337B637B6B53E874
:10352C00003F3B633B6B23F49073FB647B681B682D
:10353C000C33FA6C3A64FB63F96B3A6C41E8002388
:10354C00BB63BB6B002BE5D17B681B6814333B6200
:10355C003B6A53E8003FFB61FB6923F00103BB644A
:10356C007B681B681433BA6CFA62BB62B96AFA6A7C
:10357C0041E800237B627B6A002BE5D17B681B6BE7
:10358C00012B19D17B681B680C33FB60FB6853E87B
:10359C00003FBB60BB6823F010037B647B681B6837
:1035AC000C337A6CBA617B617969BA6941E80023A2
:1035BC003B613B69002BE5D17B68202283F84220DC
:1035CC007B6800221A6300BF5437BD4680BC70472D
:1035DC0080B584B000AF78607B681B681B6923F4EE
:1035EC0040517B68DA687B681B680A431A617B6808
:1035FC009A687B681B691A437B685B691343BB60E1
:10360C007B681B68DB6823F4B05323F00C037A68E7
:10361C001268B9680B43D3607B681B685B6923F441
:10362C0040717B689A697B681B680A435A617B68A6
:10363C001B682C4A934203D1FFF702FEF86002E0AC
:10364C00FFF7EAFDF860FA6813469B0013449A00F2
:10365C001A447B685B689B00B2FBF3F3224AA2FB23
:10366C0003235B091901FA6813469B0013449A0063
:10367C001A447B685B689B00B2FBF3F21A4BA3FB0A
:10368C0002035B09642000FB03F3D31A1B013233E2
:10369C00154AA2FB03235B0903F0F0031944FA68F3
:1036AC0013469B0013449A001A447B685B689B008A
:1036BC00B2FBF3F20C4BA3FB02035B09642000FB8F
:1036CC0003F3D31A1B013233074AA2FB03235B0912
:1036DC0003F00F027B681B680A449A6000BF103726
:1036EC00BD4680BD003801401F85EB51002310B54D
:1036FC000446C0E90033C0E904338360818143662A
:10370C00C2818361194608225C3000F0F9F90D4B37
:10371C00246263620C4BA3620C4BE3620C4B23637D
:10372C000C4B9C4206D003F16802944202D0D03379
:10373C009C4205D104F15800BDE8104000F058BA85
:10374C0010BD00BF5D3900087F390008B73900088B
:10375C00DB39000854010020024A0349034800F0F9
:10376C0069B800BF0C000020914400081C00002028
:10377C0041680C4B10B59942044601D000F082FE12
:10378C00A168094B994202D0204600F07BFEE1680B
:10379C00064B994204D02046BDE8104000F072BEA2
:1037AC0010BD00BF54010020BC01002024020020E9
:1037BC0010B50B4B0B4C0C4A20461A60042100220E
:1037CC00FFF794FF04F1680001220921FFF78EFF37
:1037DC0004F1D0000222BDE810401221FFF786BF91
:1037EC008C0200205401002065370008014800F0CD
:1037FC0000BA00BF95020020014800F0FBB900BFE1
:10380C009502002010B50446FFF7F0FF236A1BB1A8
:10381C00BDE81040FFF7F0BF044B2362044B1B685C
:10382C00002BF5D1FFF7C4FFF2E700BF7D3700088E
:10383C008C0200202DE9F8430746884614460026E2
:10384C00D4E90195B9F1010905D52468002CF7D10B
:10385C003046BDE8F883AB89012B07D9B5F90E309A
:10386C00013303D029463846C04706436835E9E79B
:10387C000FB407B5064904AB086853F8042B8168EC
:10388C00019300F0D7FA03B05DF804EB04B0704775
:10389C0018000020036A70B505460E4684680BB903
:1038AC00FFF7B0FF636EDB0705D4A389980502D43C
:1038BC00A06D00F09EF9A389190702D52369002B8E
:1038CC0035D12146284600F0C5F880B34FF0FF35BE
:1038DC00636EDA0705D4A3899B0502D4A06D00F0B2
:1038EC0089F9284670BD002B04DAA2699A4217DCCC
:1038FC000A2915D023685A1C22601970A36816F87F
:10390C00011F013BA3600029EDD1002B11DA2246E7
:10391C000A21284600F05FF80130D7D00A25D7E7F6
:10392C002246284600F057F80130E7D1CEE7013E99
:10393C00E4E723685A1C22600A221A70EEE70000A2
:10394C00024B01461868FFF7A5BF00BF1800002006
:10395C0010B50C46B1F90E1000F0FCF80028ABBF06
:10396C00636DA3891B1823F48053ACBF6365A381DB
:10397C0010BD2DE9F0411F468B890546DB050C4631
:10398C00164605D502230022B1F90E1000F0D0F82E
:10399C00A389324623F48053A38128463B46B4F9CD
:1039AC000E10BDE8F04100F0E7B810B50C46B1F9C7
:1039BC000E1000F0BDF8431CA38915BF606523F4FD
:1039CC00805343F48053A38118BFA38110BDB1F978
:1039DC000E1000F09DB8F8B50E461446054618B109
:1039EC00036A0BB9FFF70EFFA369A360A3891A073B
:1039FC0001D5236943B92146284600F02BF818B1AC
:103A0C004FF0FF373846F8BD23682269F6B2981A92
:103A1C0063693746834205DC2146284600F032FDB7
:103A2C000028EDD1A368013BA36023685A1C2260D7
:103A3C001E706269431C9A4204D0A389DB07E1D54E
:103A4C000A2EDFD12146284600F01CFD0028D9D0D3
:103A5C00D6E7000038B5294B054618680C4618B156
:103A6C00036A0BB9FFF7CEFEB4F90C30190722D458
:103A7C00DA0607D409222A6043F040034FF0FF30E6
:103A8C00A38133E0580712D5616B41B104F14403B3
:103A9C00994202D0284600F0AFF800236363A38953
:103AAC0023F02403A3810023636023692360A3898B
:103ABC0043F00803A38123694BB9A38903F4207352
:103ACC00B3F5007F03D02146284600F028FDB4F959
:103ADC000C3013F001020AD00022A260626952423B
:103AEC00A261226942B913F08000C5D138BD990793
:103AFC0058BF6269A260F4E70020F7E718000020C5
:103B0C0003460244934200D1704703F8011BF9E7C6
:103B1C0038B50023054D044608462B60FDF799FB8C
:103B2C00431C02D12B6803B1236038BD90020020E6
:103B3C0038B50446084611460022054D2A601A463F
:103B4C00FDF7ABFB431C02D12B6803B1236038BDDE
:103B5C009002002038B50446084611460022054D57
:103B6C002A601A46FDF758FB431C02D12B6803B19F
:103B7C00236038BD9002002038B504460846114633
:103B8C000022054D2A601A46FCF7ACFC431C02D1FE
:103B9C002B6803B1236038BD90020020014B1868DC
:103BAC00704700BF1800002070B500260C4D0D4C5E
:103BBC00641BA410A64209D100F02EFD00260A4D6C
:103BCC000A4C641BA410A64205D170BD55F8043BE9
:103BDC0098470136EEE755F8043B98470136F2E773
:103BEC0030470008304700083047000834470008C9
:103BFC00704770477047000038B50546002940D023
:103C0C0051F8043C0C1F002BB8BFE41800F0DEF890
:103C1C001C4A136833B9636014602846BDE8384009
:103C2C0000F0DAB8A34208D9206821188B4201BFF2
:103C3C0019685B6809182160EDE71A465B680BB1DF
:103C4C00A342FAD911685018A0420BD12068014444
:103C5C00501883421160E0D118685B68084410600A
:103C6C005360DAE702D90C232B60D6E720682118C1
:103C7C008B4201BF19685B6809182160636054604E
:103C8C00CBE738BD9C02002070B50F4E0C46316856
:103C9C00054611B900F0A2FC30602146284600F020
:103CAC009DFC431C03D14FF0FF34204670BDC41C57
:103CBC0024F00304A042F8D0211A284600F08EFC10
:103CCC000130F2D1EFE700BF980200202DE9F84354
:103CDC00CD1C25F0030508350C2D38BF0C25002D07
:103CEC00064601DBA94204D90C2333600020BDE851
:103CFC00F883DFF8D48000F069F8D8F800301C465F
:103D0C0044BB29463046FFF7BFFF431C044658D13D
:103D1C00D8F800402746002F43D1002C4BD0236805
:103D2C003946304604EB030900F058FC814542D17A
:103D3C00216830466D1A2946FFF7A6FF01303AD0AC
:103D4C0023682B442360D8F800305A6862BBC8F84B
:103D5C0000700FE02268521B20D40B2A17D961196E
:103D6C00A342256018BF5960636808BFC8F80010EB
:103D7C0062514B60304600F02FF804F10B00231D0C
:103D8C0020F00700C21A1CBF1B1AA350AFE76268D1
:103D9C00A3420CBFC8F800205A60EBE723466468C6
:103DAC00AEE73C467F68B6E71A465B68A342FBD198
:103DBC0000235360DEE70C233046336000F00CF830
:103DCC0094E70560D6E700BF9C0200200148FFF78E
:103DDC0010BF00BF940200200148FFF70BBF00BFCB
:103DEC0094020020936810B4013B002B936007DA17
:103DFC009469A34201DB0A2902D110BCFFF7EBBD89
:103E0C001368581C10601970084610BC7047F8B540
:103E1C0006460F461446D518AC4201D1002007E0E7
:103E2C003A46304614F8011BFFF7DCFF431CF3D174
:103E3C00F8BD00002DE9F04F0D4614469846064695
:103E4C009DB018B1036A0BB9FFF7DCFC6B6ED90798
:103E5C0005D4AB899A0502D4A86DFFF7CAFEAB89CD
:103E6C001B0701D52B699BB929463046FFF7F2FD9C
:103E7C0070B16B6EDC0704D54FF0FF301DB0BDE8A0
:103E8C00F08FAB899805F7D4A86DFFF7B3FEF3E775
:103E9C000023099320238DF8293030234FF001099A
:103EAC00CDF80C80DFF8A8818DF82A3023469A468D
:103EBC0013F8012B0AB1252AF9D1BAEB040B0BD05C
:103ECC005B46224629463046FFF7A1FF013000F041
:103EDC00A780099A5A4409929AF80030002B00F0F6
:103EEC009F8000234FF0FF32CDE905230AF1010A30
:103EFC00049307938DF853301A935446052214F803
:103F0C00011B534800F07AFB049AD8B9D10644BF80
:103F1C0020238DF85330130744BF2B238DF85330D7
:103F2C009AF800302A2B15D0544600204FF00A0C7A
:103F3C00079A214611F8013B303B092B4BD9B0B104
:103F4C00079214E0A0EB080309FA03F31343A2460B
:103F5C000493D2E7039B191D1B680391002BBBBF75
:103F6C005B4242F0020207930793B8BF0492237896
:103F7C002E2B0AD163782A2B32D1039B02341A1DC3
:103F8C001B68039243EAE3730593DFF8C8A003228E
:103F9C005046217800F032FB38B14022049BA0EB54
:103FAC000A00824013430134049314F8011B0622C7
:103FBC0029488DF8281000F021FB00283FD0274B12
:103FCC001BBB039B073323F0070308330393099BA5
:103FDC003B4409936AE70C4601200CFB0232A8E72C
:103FEC0000234FF00A0C194601340593204610F8B3
:103FFC00012B303A092A03D9002BC6D00591C4E70E
:10400C00044601230CFB0121F0E703AB00932A4685
:10401C003046134B04A9AFF300800746781CD6D169
:10402C006B6ED90705D4AB899A0502D4A86DFFF73E
:10403C00E1FDAB895B063FF51FAF09981EE703ABAB
:10404C0000932A463046064B04A900F07DF8E4E7BD
:10405C00F2460008F8460008FC4600080000000084
:10406C001B3E00082DE9F047164698468A680B69F6
:10407C0007469342B8BF1346336091F843200C4671
:10408C00DDF820900AB1013333602368990642BFF2
:10409C00336802333360256815F0060506D104F148
:1040AC00190AE36832689B1AAB422BDC94F8433054
:1040BC002268003B18BF0123920630D44146384693
:1040CC0004F14302C847013023D02368226903F06E
:1040DC000603042B14BF002533684FF0000608BFFD
:1040EC00E56804F11A0408BFED1A54F8123C08BF35
:1040FC0025EAE5759342C4BF9B1AED18B5421AD157
:10410C00002008E00123524641463846C84701309A
:10411C0003D14FF0FF30BDE8F0870135C1E7302007
:10412C00E11881F843005A1C94F8451022440233DC
:10413C0082F84310C2E70123224641463846C8475D
:10414C000130E6D00136D9E72DE9FF470F7E9146C5
:10415C00782F80460C469A460C9E01F1430207D8F4
:10416C00622F0AD8002F00F0D180582F00F0B880B1
:10417C0004F1420684F842703AE0A7F16303152B70
:10418C00F6D801A151F823F0ED41000801420008D6
:10419C007D4100087D4100087D4100087D410008FB
:1041AC00014200087D4100087D4100087D41000866
:1041BC007D410008FF4200082B420008B94200086C
:1041CC007D4100087D410008214300087D41000825
:1041DC002B4200087D4100087D410008C1420008C7
:1041EC0033681A1D1B68326004F1420684F84230B1
:1041FC0001239CE033682068191D3160060601D547
:10420C001D6803E04506FBD5B3F90050002D03DA19
:10421C002D236D4284F843300A23584811E021685D
:10422C003368080653F8045B02D4490648BFADB2A4
:10423C006F2F336014BF0A2308235048002184F8E1
:10424C0043106668002EA66005DB21682E4321F022
:10425C00040121604BD01646B5FBF3F103FB11575B
:10426C00C75D06F8017D2F46BB420D46F4D9082BDD
:10427C000BD12368DF0708D5236961689942DEBF3B
:10428C00302306F8013C06F1FF36921B22614B46A7
:10429C0021464046CDF800A003AAFFF7E3FE01300B
:1042AC004AD14FF0FF3004B0BDE8F087236843F0EB
:1042BC00200323607827324884F8457023683168DE
:1042CC001F0651F8045B02D45F0648BFADB23160E3
:1042DC00D90744BF43F0200323601DB11023ADE781
:1042EC002648E9E7236823F020032360F6E7164607
:1042FC00BDE733682568181D616930602E061B68A0
:10430C0001D5196002E06806FBD51980002316461A
:10431C002361BCE7336800211A1D32601E68626895
:10432C00304600F06BF908B1801B60606368236154
:10433C00002384F84330AAE73246494640462369B5
:10434C00D0470130ADD023689B0713D4E068039BA2
:10435C009842B8BF1846A6E7012332464946404664
:10436C00D04701309DD00135E36803995B1AAB420D
:10437C00F2DCEBE7002504F11906F5E7034700082A
:10438C0014470008B1F90C20F8B5160705460C4681
:10439C0054D44B68002B02DC0B6C002B48DDE66A16
:1043AC00002E45D0002312F480522F68216A2B6016
:1043BC0030D0626DA389590705D56368D21A636B37
:1043CC000BB1236CD21A00232846E66A216AB04747
:1043DC00431CA38906D129681D292BD8284ACA4019
:1043EC00D60727D5002262602269D904226004D541
:1043FC00421C01D12B6803B96065616B2F60B9B1A8
:10440C0004F14403994202D02846FFF7F5FB002340
:10441C0063630DE001232846B0470246501CC9D106
:10442C002B68002BC6D01D2B01D0162B1DD12F6055
:10443C00002021E043F040031BB21AE00F69002F6B
:10444C00F6D0930718BF00230E6808BF4B69F61B04
:10445C000F608B60002EEBDD33463A462846216A0E
:10446C00D4F828C0E047002807DCB4F90C3043F03E
:10447C0040034FF0FF30A381F8BD0744361AE9E73B
:10448C000100402038B50B6905460C4613B90025D0
:10449C00284638BD18B1036A0BB9FFF7B3F9B4F964
:1044AC000C30002BF3D0626ED00704D4990502D4E3
:1044BC00A06DFFF79EFB28462146FFF763FF636E56
:1044CC000546DA07E4D4A3899B05E1D4A06DFFF778
:1044DC0091FBDDE770B50C46B1F90E1015460029BD
:1044EC001E4696B00CDAA389002113F0800F14BF7E
:1044FC0040234FF48063002031602B6016B070BDF8
:10450C006A4600F049F80028EDDB019901F470418E
:10451C00A1F50053594259414FF48063EBE78B8965
:10452C00F7B59D0706460C4607D504F147032360F3
:10453C0023610123636103B0F0BD6A4601ABFFF751
:10454C00C9FF009F054639463046FFF7BFFB48B907
:10455C00B4F90C309A05EED423F0030343F00203B4
:10456C00A381E2E7A389C4E9040743F08003A38194
:10457C00019B20605BB13046B4F90E1000F01EF8C0
:10458C0028B1A38923F0030343F00103A381A3897A
:10459C001D43A581CFE7000038B50023064D044626
:1045AC00084611462B60FCF75FFE431C02D12B68BA
:1045BC0003B1236038BD00BF9002002038B5002342
:1045CC00054D044608462B60FCF75DFE431C02D1EA
:1045DC002B6803B1236038BD9002002038B500234E
:1045EC00054D044608462B60FCF764FE431C02D1C3
:1045FC002B6803B1236038BD90020020034610B530
:10460C00C9B202449342184601D1002003E0047859
:10461C0001338C42F6D110BDF8B500BFF8BC08BC14
:10462C009E467047F8B500BFF8BC08BC9E46704764
:10463C002D2D2D2D2D2D2D2D2D2D2D2D2D2D0D00EB
:10464C0043616C6962726174696F6E2076616C751E
:10465C0065732D3E2054313D25752C2050313D2560
:10466C00752C2050323D25640D0A000052617720D4
:10467C0070726573737572653A20256C752C2052B7
:10468C0061772074656D70657261747572653A201E
:10469C00256C750D0A000000507265737375726598
:1046AC003A20256C752C2054656D7065726174759B
:1046BC0072653A20256C640D0A00000000000000B1
:1046CC0000000000010203040607080900000000B6
:1046DC000102030402030405060708090A0B0C0D6A
:1046EC000E0F10100102232D302B2000686C4C0093
:1046FC0065666745464700303132333435363738D6
:10470C003941424344454600303132333435363733
:0C471C00383961626364656600000000CB
:08472800C4BAFF7F010000008C
:04473000310100084B
:044734000D0100086B
:1047380000127A00100000000100000000000000D4
:1047480003000000540100201C00002000000000AD
:1047580054010020BC0100202402002000000000B9
:104768000000000000000000000000000000000041
:104778000000000000000000000000000000000031
:104788000000000000000000000000000000000021
:08479800000000000000000019
:0400000508001339A3
:00000001FF
