:020000040800F2
:1000000000500020A913000829120008311200082E
:1000100039120008411200084912000800000000CF
:100020000000000000000000000000005112000865
:100030005D12000800000000691200087512000837
:10004000F1130008F1130008F1130008F113000880
:10005000F1130008F1130008F1130008F113000870
:10006000F1130008F1130008F1130008F113000860
:10007000F1130008F1130008F1130008F113000850
:10008000F1130008F1130008F1130008F113000840
:10009000F1130008F1130008F1130008F113000830
:1000A000F1130008F1130008F1130008F113000820
:1000B000F1130008F113000881120008F113000881
:1000C000F1130008F1130008F1130008F113000800
:1000D000F1130008F1130008F1130008F1130008F0
:1000E000F1130008F1130008F113000800000000EC
:1000F0000000000000000000000000000000000000
:0C01000000000000000000005FF808F1A3
:1001100010B5054C237833B9044B13B10448AFF341
:1001200000800123237010BD680000200000000043
:100130006853000808B5034B1BB103490348AFF3EC
:10014000008008BD000000006C000020685300081B
:1001500081F0004102E000BF83F0004330B54FEA78
:1001600041044FEA430594EA050F08BF90EA020FE5
:100170001FBF54EA000C55EA020C7FEA645C7FEA78
:10018000655C00F0E2804FEA5454D4EB5555B8BF9B
:100190006D420CDD2C4480EA020281EA030382EA0C
:1001A000000083EA010180EA020281EA0303362D9E
:1001B00088BF30BD11F0004F4FEA01314FF4801C71
:1001C0004CEA113102D0404261EB410113F0004F83
:1001D0004FEA03334CEA133302D0524263EB43033A
:1001E00094EA050F00F0A780A4F10104D5F1200ED8
:1001F0000DDB02FA0EFC22FA05F2801841F1000133
:1002000003FA0EF2801843FA05F359410EE0A5F106
:1002100020050EF1200E012A03FA0EFC28BF4CF037
:10022000020C43FA05F3C01851EBE37101F00045ED
:1002300007D54FF0000EDCF1000C7EEB00006EEBFA
:100240000101B1F5801F1BD3B1F5001F0CD3490884
:100250005FEA30004FEA3C0C04F101044FEA4452DB
:1002600012F5800F80F09A80BCF1004F08BF5FEA62
:10027000500C50F1000041EB045141EA050130BD42
:100280005FEA4C0C404141EB0101013C28BFB1F554
:10029000801FE9D291F0000F04BF01460020B1FA9F
:1002A00081F308BF2033A3F10B03B3F120020CDA72
:1002B0000C3208DD02F1140CC2F10C0201FA0CF050
:1002C00021FA02F10CE002F11402D8BFC2F1200CB5
:1002D00001FA02F120FA0CFCDCBF41EA0C0190406B
:1002E000E41AA2BF01EB0451294330BD6FEA0404B4
:1002F0001F3C1CDA0C340EDC04F11404C4F120029F
:1003000020FA04F001FA02F340EA030021FA04F3B0
:1003100045EA030130BDC4F10C04C4F1200220FA07
:1003200002F001FA04F340EA0300294630BD21FA45
:1003300004F0294630BD94F0000F83F4801306BF0B
:1003400081F480110134013D4EE77FEA645C18BFFF
:100350007FEA655C29D094EA050F08BF90EA020F96
:1003600005D054EA000C04BF1946104630BD91EA8E
:10037000030F1EBF0021002030BD5FEA545C05D191
:100380004000494128BF41F0004130BD14F58004D0
:100390003CBF01F5801130BD01F0004545F0FE4144
:1003A00041F470014FF0000030BD7FEA645C1ABF79
:1003B000194610467FEA655C1CBF0B46024650EAB0
:1003C000013406BF52EA033591EA030F41F40021DC
:1003D00030BD00BF90F0000F04BF0021704730B562
:1003E0004FF4806404F132044FF000054FF0000137
:1003F00050E700BF90F0000F04BF0021704730B5F8
:100400004FF4806404F1320410F0004548BF4042CC
:100410004FF000013EE700BF42004FEAE2014FEA21
:1004200031014FEA02701FBF12F07F4393F07F4FFC
:1004300081F06051704732F07F4208BF704793F0FF
:100440007F4F04BF41F40021704730B54FF4607412
:1004500001F0004521F000411CE700BF50EA010215
:1004600008BF704730B54FF000050AE050EA0102BE
:1004700008BF704730B511F0004502D5404261EB2E
:1004800041014FF4806404F132045FEA915C3FF46F
:10049000D8AE4FF003025FEADC0C18BF03325FEA0C
:1004A000DC0C18BF033202EBDC02C2F1200300FABD
:1004B00003FC20FA02F001FA03FE40EA0E0021FAE2
:1004C00002F11444BDE600BF70B54FF0FF0C4CF4D0
:1004D000E06C1CEA11541DBF1CEA135594EA0C0F82
:1004E00095EA0C0F00F0DEF82C4481EA030621EABD
:1004F0004C5123EA4C5350EA013518BF52EA0335F8
:1005000041F4801143F4801338D0A0FB02CE4FF0A9
:100510000005E1FB02E506F00042E0FB03E54FF0D9
:100520000006E1FB03569CF0000F18BF4EF0010ED1
:10053000A4F1FF04B6F5007F64F5407404D25FEACD
:100540004E0E6D4146EB060642EAC62141EA555180
:100550004FEAC52040EA5E504FEACE2EB4F1FD0CC2
:1005600088BFBCF5E06F1ED8BEF1004F08BF5FEA40
:10057000500E50F1000041EB045170BD06F00046F2
:1005800046EA010140EA020081EA0301B4EB5C049F
:10059000C2BFD4EB0C0541EA045170BD41F4801197
:1005A0004FF0000E013C00F3AB8014F1360FDEBFBC
:1005B000002001F0004170BDC4F10004203C35DA98
:1005C0000C341BDC04F11404C4F1200500FA05F31B
:1005D00020FA04F001FA05F240EA020001F00042BC
:1005E00021F0004110EBD37021FA04F642EB060132
:1005F0005EEA430E08BF20EAD37070BDC4F10C045C
:10060000C4F1200500FA04F320FA05F001FA04F21F
:1006100040EA020001F0004110EBD37041F100010B
:100620005EEA430E08BF20EAD37070BDC4F1200516
:1006300000FA05F24EEA020E20FA04F301FA05F27E
:1006400043EA020321FA04F001F0004121FA04F226
:1006500020EA020000EBD3705EEA430E08BF20EAF6
:10066000D37070BD94F0000F0FD101F00046400030
:1006700041EB010111F4801F08BF013CF7D041EAB2
:10068000060195F0000F18BF704703F000465200B6
:1006900043EB030313F4801F08BF013DF7D043EA87
:1006A0000603704794EA0C0F0CEA135518BF95EA3D
:1006B0000C0F0CD050EA410618BF52EA4306D1D1C4
:1006C00081EA030101F000414FF0000070BD50EAE3
:1006D000410606BF1046194652EA430619D094EA6D
:1006E0000C0F02D150EA013613D195EA0C0F05D157
:1006F00052EA03361CBF104619460AD181EA0301AB
:1007000001F0004141F0FE4141F470014FF0000062
:1007100070BD41F0FE4141F4780170BD70B54FF0FD
:10072000FF0C4CF4E06C1CEA11541DBF1CEA13557D
:1007300094EA0C0F95EA0C0F00F0A7F8A4EB05045F
:1007400081EA030E52EA03354FEA013100F0888056
:100750004FEA03334FF0805545EA131343EA12631F
:100760004FEA022245EA111545EA10654FEA0026D4
:100770000EF000419D4208BF964244F1FD0404F58D
:10078000407402D25B084FEA3202B61A65EB0305E9
:100790005B084FEA32024FF480104FF4002CB6EBA6
:1007A000020E75EB030E22BFB61A754640EA0C0026
:1007B0005B084FEA3202B6EB020E75EB030E22BF66
:1007C000B61A754640EA5C005B084FEA3202B6EBA7
:1007D000020E75EB030E22BFB61A754640EA9C0066
:1007E0005B084FEA3202B6EB020E75EB030E22BF36
:1007F000B61A754640EADC0055EA060E18D04FEAF4
:10080000051545EA16754FEA06164FEAC30343EA93
:1008100052734FEAC2025FEA1C1CC0D111F4801F60
:100820000BD141EA00014FF000004FF0004CB6E759
:1008300011F4801F04BF01430020B4F1FD0C88BFF8
:10084000BCF5E06F3FF6AFAEB5EB030C04BFB6EB03
:10085000020C5FEA500C50F1000041EB045170BDF6
:100860000EF0004E4EEA113114EB5C04C2BFD4EB23
:100870000C0541EA045170BD41F480114FF0000EA7
:10088000013C90E645EA060E8DE60CEA135594EA23
:100890000C0F08BF95EA0C0F3FF43BAF94EA0C0F26
:1008A0000AD150EA01347FF434AF95EA0C0F7FF49B
:1008B00025AF104619462CE795EA0C0F06D152EAEF
:1008C00003353FF4FDAE1046194622E750EA4106D3
:1008D00018BF52EA43067FF4C5AE50EA41047FF4E4
:1008E0000DAF52EA43057FF4EBAE12E74FF0FF3C49
:1008F00006E000BF4FF0010C02E000BF4FF0010C1A
:100900004DF804CD4FEA410C7FEA6C5C4FEA430C92
:1009100018BF7FEA6C5C1BD001B050EA410C0CBFE1
:1009200052EA430C91EA030F02BF90EA020F002043
:10093000704710F1000F91EA030F58BF994208BFAA
:1009400090422CBFD8176FEAE37040F00100704767
:100950004FEA410C7FEA6C5C02D150EA013C07D1BE
:100960004FEA430C7FEA6C5CD6D152EA033CD3D009
:100970005DF8040B704700BF8446104662468C4603
:100980001946634600E000BF01B5FFF7B7FF002836
:1009900048BF10F1000F01BD4DF808EDFFF7F4FF5F
:1009A0000CBF012000205DF808FB00BF4DF808EDEA
:1009B000FFF7EAFF34BF012000205DF808FB00BF0D
:1009C0004DF808EDFFF7E0FF94BF012000205DF82F
:1009D00008FB00BF4DF808EDFFF7CEFF94BF0120E4
:1009E00000205DF808FB00BF4DF808EDFFF7C4FFDD
:1009F00034BF012000205DF808FB00BF4FEA410230
:100A000012F5001215D211D56FF47873B3EB625260
:100A100012D94FEAC12343F0004343EA505311F087
:100A2000004F23FA02F018BF404270474FF0000019
:100A3000704750EA013005D111F0004008BF6FF057
:100A4000004070474FF00000704700BF4A0011D2CD
:100A500012F5001211D20DD56FF47873B3EB625218
:100A60000ED44FEAC12343F0004343EA505323FA24
:100A700002F070474FF00000704750EA013002D199
:100A80004FF0FF3070474FF0000070474FEA4102CF
:100A9000B2F1E04324BFB3F5001CDCF1FE5C0DD9DC
:100AA00001F0004C4FEAC0024CEA5070B2F1004F26
:100AB00040EB830008BF20F00100704711F0804F29
:100AC00021D113F13872BCBF01F00040704741F4EE
:100AD00080114FEA5252C2F11802C2F1200C10FAF2
:100AE0000CF320FA02F018BF40F001004FEAC123D6
:100AF0004FEAD32303FA0CFC40EA0C0023FA02F37A
:100B00004FEA4303CCE77FEA625307D150EA01334F
:100B10001EBF4FF0FE4040F44000704701F000401F
:100B200040F0FE4040F40000704700BF00000000AD
:100B300080B582B000AF00237B603FE07868FFF7AC
:100B400059FC23A3D3E90023FFF7BEFC02460B4662
:100B5000104619464FF00002214BFFF7DFFD024619
:100B60000B4610461946FFF791FF03463B60386875
:100B7000FFF752FC02460B461046194603F026FCCE
:100B80004FF00002174BFFF7E9FA02460B461046FA
:100B9000194611A3D3E90023FFF796FC02460B4642
:100BA00010461946FFF752FF0346D9B20E4A7B683A
:100BB00013440A461A707B6801337B607B68312BD3
:100BC000BCDD00BF00BF0837BD4680BDAFF300806D
:100BD000182D4454FB2119400000000000C048407B
:100BE000000049400000F03F5C01002080B483B069
:100BF00000AF78607B681B680E4A934214D10E4B9D
:100C00001B78312B02D90C4B00221A700A4B1B782F
:100C10001A460A4B9A5C0A4B1B689A63064B1B7870
:100C20000133DAB2044B1A7000BF0C37BD4680BCEA
:100C3000704700BF000800408E0100205C010020CA
:100C40008400002080B586B000AFF860B9607A609B
:100C5000FB68012B02D0FB68022B11D17B689AB292
:100C60004FF0FF33B968094802F0A4FA0346FB7558
:100C7000FB7D002B01D17B6804E04FF0FF3301E0E6
:100C80004FF0FF3318461837BD4680BD14010020D1
:100C900080B584B000AF00F0ADFB00F057F800F075
:100CA00087F900F097F800F00BF900F057F9FFF71B
:100CB0003FFF1E4801F024FB04211D4801F0CAFB40
:100CC00000233B604FF47A73FB600023BB604FF45A
:100CD000FA737B60174B1B683B603A68FB689A426B
:100CE00013D33B68144AA2FB03239909134B1B78C7
:100CF0001A46134B9B5CBA68124802F0F1FC3B6841
:100D000003F57A73FB600023BB603A687B689A4204
:100D100008D94FF400510C4800F078FE3B6803F509
:100D2000FA737B60BB680133BB60D3E7CC00002063
:100D30008400002094010020D34D62108E01002019
:100D40005C010020805300080010014080B590B085
:100D500000AF07F1180328220021184602F015FD04
:100D60003B1D00221A605A609A60DA601A61012302
:100D7000BB614FF48033FB6100233B620123BB6204
:100D800002237B634FF48033BB630023FB6307F1D3
:100D90001803184600F054FE0346002B01D000F063
:100DA00053F90F237B600223BB600023FB60002309
:100DB0003B6100237B613B1D0021184601F0C2F816
:100DC0000346002B01D000F03FF900BF4037BD467D
:100DD00080BD000080B58EB000AF07F1280300226F
:100DE0001A605A609A60DA6007F1200300221A60E4
:100DF0005A603B1D00221A605A609A60DA601A61DC
:100E00005A619A612C4B2D4A1A602B4B9F225A60D3
:100E1000294B00229A60284B6322DA60264B00227D
:100E20001A61254B00229A61234801F019FA034602
:100E3000002B01D000F008F94FF48053BB6207F19A
:100E4000280319461C4801F059FD0346002B01D028
:100E500000F0FAF8184801F0A5FA0346002B01D07B
:100E600000F0F2F800233B6200237B6207F12003CD
:100E70001946114802F0DEF80346002B01D000F0BD
:100E8000E3F860237B600023BB600023FB6000234A
:100E90007B613B1D04221946074801F06DFC0346A7
:100EA000002B01D000F0D0F8034800F03FF900BF5C
:100EB0003837BD4680BD00BF8400002000040040DC
:100EC00080B586B000AF07F1080300221A605A60AF
:100ED0009A60DA603B4600221A605A601D4B1E4A37
:100EE0001A601C4B43F67F625A601A4B00229A60CC
:100EF000184B6322DA60174B00221A61154B00224F
:100F00009A61144801F0ACF90346002B01D000F0BF
:100F10009BF84FF48053BB6007F1080319460D4856
:100F200001F0ECFC0346002B01D000F08DF800230B
:100F30003B6000237B603B461946064802F07AF886
:100F40000346002B01D000F07FF800BF1837BD46E4
:100F500080BD00BFCC0000200008004080B500AF7D
:100F6000114B124A1A60104B4FF4E1325A600E4B8B
:100F700000229A600C4B0022DA600B4B00221A61AF
:100F8000094B0C225A61084B00229A61064B002241
:100F9000DA61054802F0BEF80346002B01D000F0EC
:100FA00053F800BF80BD00BF14010020003801408D
:100FB00080B588B000AF07F1100300221A605A60B4
:100FC0009A60DA601E4B9B691D4A43F010039361DF
:100FD0001B4B9B6903F01003FB60FB68184B9B697C
:100FE000174A43F020039361154B9B6903F02003DC
:100FF000BB60BB68124B9B69114A43F004039361C9
:101000000F4B9B6903F004037B607B6800224FF465
:1010100000510C4800F0E2FC4FF400533B61012307
:101020007B610023BB610223FB6107F110031946BA
:10103000044800F04FFB00BF2037BD4680BD00BF15
:10104000001002400010014080B400AF72B600BF33
:1010500000BFFDE780B485B000AF154B9B69144A13
:1010600043F001039361124B9B6903F00103BB60E2
:10107000BB680F4BDB690E4A43F08053D3610C4BC6
:10108000DB6903F080537B607B680A4B5B68FB6025
:10109000FB6823F0E063FB60FB6843F00073FB60D8
:1010A000044AFB68536000BF1437BD4680BC7047DC
:1010B000001002400000014080B584B000AF7860AD
:1010C0007B681B68164A93420CD1164BDB69154AA4
:1010D00043F00203D361134BDB6903F00203FB60AF
:1010E000FB6818E07B681B680F4A934213D10D4BD5
:1010F000DB690C4A43F00403D3610A4BDB6903F05C
:101100000403BB60BB68002200211E2000F0ABFA84
:101110001E2000F0C4FA00BF1037BD4680BD00BFDE
:1011200000040040001002400008004080B588B074
:1011300000AF786007F1100300221A605A609A60CD
:10114000DA607B681B680F4A934217D10E4B9B698C
:101150000D4A43F0040393610B4B9B6903F00403B6
:10116000FB60FB6880233B6102237B610223FB6100
:1011700007F110031946054800F0ACFA00BF20370C
:10118000BD4680BD00040040001002400008014040
:1011900080B588B000AF786007F1100300221A60B4
:1011A0005A609A60DA607B681B681C4A934231D1AE
:1011B0001B4B9B691A4A43F480439361184B9B690C
:1011C00003F48043FB60FB68154B9B69144A43F0B2
:1011D00004039361124B9B6903F00403BB60BB687B
:1011E0004FF400733B6102237B610323FB6107F132
:1011F000100319460B4800F06DFA4FF480633B6111
:1012000000237B610023BB6107F1100319460548E9
:1012100000F060FA00BF2037BD4680BD00380140B5
:10122000001002400008014080B400AF00BFFDE79D
:1012300080B400AF00BFFDE780B400AF00BFFDE7A2
:1012400080B400AF00BFFDE780B400AF00BFFDE792
:1012500080B400AF00BFBD4680BC704780B400AF13
:1012600000BFBD4680BC704780B400AF00BFBD4624
:1012700080BC704780B500AF00F002F900BF80BDB0
:1012800080B500AF024801F087F900BF80BD00BF04
:10129000CC00002080B586B000AFF860B9607A60FD
:1012A00000237B610AE0AFF300800146BB685A1C53
:1012B000BA60CAB21A707B6901337B617A697B6854
:1012C0009A42F0DB7B6818461837BD4680BD80B473
:1012D00083B000AF78604FF0FF3318460C37BD463F
:1012E00080BC704780B483B000AF786039603B68E1
:1012F0004FF400525A60002318460C37BD4680BC9C
:10130000704780B483B000AF7860012318460C3773
:10131000BD4680BC704780B485B000AFF860B9604E
:101320007A60002318461437BD4680BC7047000021
:1013300080B586B000AF7860144A154BD31A7B6134
:101340007B693B61134B1B68002B02D1114B124A86
:101350001A60104B1A687B6813443A699A4207D2A4
:1013600002F062FA03460C221A604FF0FF3309E0E4
:10137000084B1B68FB60074B1A687B681344054ADF
:101380001360FB6818461837BD4680BD005000202A
:101390000004000090010020E802002080B400AFAB
:1013A00000BFBD4680BC7047FFF7F8FF0B480C49F3
:1013B0000C4A002302E0D458C4500433C4188C42B1
:1013C000F9D3094A094C002301E013600432A24218
:1013D000FBD302F02FFAFFF75BFC70470000002000
:1013E00068000020F055000868000020E40200209A
:1013F000FEE7000080B500AF084B1B68074A43F0CA
:1014000010031360032000F023F90F2000F008F808
:10141000FFF720FE0023184680BD00BF00200240D9
:1014200080B582B000AF7860124B1A68124B1B78FF
:1014300019464FF47A73B3FBF1F3B2FBF3F318469A
:1014400000F03BF90346002B01D001230EE07B683E
:101450000F2B0AD8002279684FF0FF3000F003F913
:10146000064A7B681360002300E001231846083712
:10147000BD4680BD000000200800002004000020C0
:1014800080B400AF054B1B781A46054B1B6813440C
:10149000034A136000BFBD4680BC704708000020AF
:1014A0009401002080B400AF024B1B681846BD4673
:1014B00080BC70479401002080B485B000AF786094
:1014C0007B6803F00703FB600C4BDB68BB60BA680A
:1014D0004FF6FF031340BB60FB681A02BB6813435F
:1014E00043F0BF6343F40033BB60044ABB68D3607E
:1014F00000BF1437BD4680BC704700BF00ED00E060
:1015000080B400AF044BDB681B0A03F007031846E6
:10151000BD4680BC704700BF00ED00E080B483B0E2
:1015200000AF0346FB7197F90730002B0BDBFB790B
:1015300003F01F02064997F907305B09012000FA02
:1015400002F241F8232000BF0C37BD4680BC704733
:1015500000E100E080B483B000AF03463960FB7166
:1015600097F90730002B0ADB3B68DAB20C4997F990
:1015700007301201D2B20B4483F800230AE03B6823
:10158000DAB20849FB7903F00F03043B1201D2B22F
:101590000B441A7600BF0C37BD4680BC704700BFB5
:1015A00000E100E000ED00E080B489B000AFF86039
:1015B000B9607A60FB6803F00703FB61FB69C3F164
:1015C0000703042B28BF0423BB61FB690433062BEC
:1015D00002D9FB69033B00E000237B614FF0FF323F
:1015E000BB6902FA03F3DA43BB681A407B699A408D
:1015F0004FF0FF317B6901FA03F3D9437B680B405D
:10160000134318462437BD4680BC704780B582B06E
:1016100000AF78607B68013BB3F1807F01D3012389
:101620000FE00A4A7B68013B53600F214FF0FF3007
:10163000FFF790FF054B00229A60044B07221A60C7
:10164000002318460837BD4680BD00BF10E000E00B
:1016500080B582B000AF78607868FFF72DFF00BFDB
:101660000837BD4680BD80B586B000AF0346B9607F
:101670007A60FB7300237B61FFF742FF78617A6831
:10168000B9687869FFF790FF024697F90F30114665
:101690001846FFF75FFF00BF1837BD4680BD80B515
:1016A00082B000AF0346FB7197F907301846FFF789
:1016B00035FF00BF0837BD4680BD80B582B000AFA2
:1016C00078607868FFF7A2FF034618460837BD46E2
:1016D00080BD000080B48BB000AF7860396000231B
:1016E0007B6200233B6269E101227B6A02FA03F319
:1016F000FB613B681B68FA691340BB61BA69FB690F
:101700009A4240F058813B685B689A4A93425ED0A7
:10171000984A934275D8984A934258D0964A934231
:101720006FD8964A934252D0944A934269D8944AC9
:1017300093424CD0924A934263D8924A934246D005
:10174000904A93425DD8122B2AD8122B59D801A265
:1017500052F823F0CF170008A9170008BB1700089C
:10176000FD170008031800080318000803180008F4
:1017700003180008031800080318000803180008DD
:1017800003180008031800080318000803180008CD
:101790000318000803180008B1170008C51700084F
:1017A000794A934213D02CE03B68DB683B6229E026
:1017B0003B68DB6804333B6224E03B68DB6808334A
:1017C0003B621FE03B68DB680C333B621AE03B681E
:1017D0009B68002B02D104233B6213E03B689B68AB
:1017E000012B05D108233B627B68FA691A6109E085
:1017F00008233B627B68FA695A6103E000233B627D
:1018000000E000BFBB69FF2B01D87B6801E07B686B
:1018100004337B61BB69FF2B02D87B6A9B0002E02B
:101820007B6A083B9B003B617B691A680F213B691F
:1018300001FA03F3DB431A40396A3B6901FA03F307
:101840001A437B691A603B685B6803F08053002B86
:1018500000F0B1804D4B9B694C4A43F0010393610A
:101860004A4B9B6903F00103BB60BB68484A7B6A33
:101870009B08023352F82330FB607B6A03F00303BA
:101880009B000F2202FA03F3DB43FA681340FB606C
:101890007B68404A934213D07B683F4A93420DD005
:1018A0007B683E4A934207D07B683D4A934201D110
:1018B000032306E0042304E0022302E0012300E006
:1018C00000237A6A02F0030292009340FA681343FD
:1018D000FB602F497B6A9B080233FA6841F823209A
:1018E0003B685B6803F48013002B06D02D4B9A688D
:1018F0002C49BB6913438B6006E02A4B9A68BB698D
:10190000DB43284913408B603B685B6803F400139A
:10191000002B06D0234BDA682249BB691343CB6006
:1019200006E0204BDA68BB69DB431E491340CB60FD
:101930003B685B6803F40033002B06D0194B5A68F0
:101940001849BB6913434B6006E0164B5A68BB69E4
:10195000DB43144913404B603B685B6803F48033FE
:10196000002B21D00F4B1A680E49BB6913430B6043
:1019700021E000BF000032100000311000002210F2
:101980000000211000001210000011100010024091
:101990000000014000080140000C0140001001401F
:1019A00000140140000401400B4B1A68BB69DB4383
:1019B000094913400B607B6A01337B623B681A68FC
:1019C0007B6A22FA03F3002B7FF48EAE00BF00BFC8
:1019D0002C37BD4680BC70470004014080B483B002
:1019E00000AF78600B467B8013467B707B78002BC2
:1019F00003D07A887B681A6103E07B881A047B68CD
:101A00001A6100BF0C37BD4680BC704780B485B0FA
:101A100000AF78600B467B807B68DB68FB607A8870
:101A2000FB6813401A04FB68D9437B880B401A43B8
:101A30007B681A6100BF1437BD4680BC7047000048
:101A400080B586B000AF78607B68002B01D10123A0
:101A500072E27B681B6803F00103002B00F08780B3
:101A6000924B5B6803F00C03042B0CD08F4B5B682C
:101A700003F00C03082B12D18C4B5B6803F480330A
:101A8000B3F5803F0BD1894B1B6803F40033002B67
:101A90006CD07B685B68002B68D101234CE27B68CB
:101AA0005B68B3F5803F06D1804B1B687F4A43F4E7
:101AB000803313602EE07B685B68002B0CD17B4B7E
:101AC0001B687A4A23F480331360784B1B68774A8B
:101AD00023F4802313601DE07B685B68B3F5A02FBF
:101AE0000CD1724B1B68714A43F4802313606F4B17
:101AF0001B686E4A43F4803313600BE06B4B1B682A
:101B00006A4A23F480331360684B1B68674A23F4E6
:101B1000802313607B685B68002B13D0FFF7C2FC47
:101B2000386108E0FFF7BEFC02463B69D31A642B1C
:101B300001D9032300E25D4B1B6803F40033002B43
:101B4000F0D014E0FFF7AEFC386108E0FFF7AAFC24
:101B500002463B69D31A642B01D90323ECE1534BB2
:101B60001B6803F40033002BF0D100E000BF7B685A
:101B70001B6803F00203002B63D04C4B5B6803F03F
:101B80000C03002B0BD0494B5B6803F00C03082BB4
:101B90001CD1464B5B6803F48033002B16D1434BBA
:101BA0001B6803F00203002B05D07B681B69012B27
:101BB00001D00123C0E13D4B1B6823F0F8027B6894
:101BC0005B69DB00394913430B603AE07B681B69B2
:101BD000002B20D0364B01221A60FFF763FC3861DE
:101BE00008E0FFF75FFC02463B69D31A022B01D9DC
:101BF0000323A1E12D4B1B6803F00203002BF0D05F
:101C00002A4B1B6823F0F8027B685B69DB002749DD
:101C100013430B6015E0264B00221A60FFF742FCCD
:101C2000386108E0FFF73EFC02463B69D31A022BFD
:101C300001D9032380E11D4B1B6803F00203002B35
:101C4000F0D17B681B6803F00803002B3AD07B6857
:101C50009B69002B19D0174B01221A60FFF722FC59
:101C6000386108E0FFF71EFC02463B69D31A022BDD
:101C700001D9032360E10D4B5B6A03F00203002BE3
:101C8000F0D0012000F0CEFA1CE00A4B00221A60CE
:101C9000FFF708FC38610FE0FFF704FC02463B69E0
:101CA000D31A022B08D9032346E100BF00100240DB
:101CB0000000424280044242924B5B6A03F00203FE
:101CC000002BE9D17B681B6803F00403002B00F0B4
:101CD000A6800023FB758B4BDB6903F08053002B40
:101CE0000DD1884BDB69874A43F08053D361854B24
:101CF000DB6903F08053BB60BB680123FB75824B3B
:101D00001B6803F48073002B18D17F4B1B687E4A3D
:101D100043F480731360FFF7C5FB386108E0FFF7F9
:101D2000C1FB02463B69D31A642B01D9032303E1AB
:101D3000754B1B6803F48073002BF0D07B68DB6865
:101D4000012B06D16F4B1B6A6E4A43F001031362ED
:101D50002DE07B68DB68002B0CD16A4B1B6A694A5B
:101D600023F001031362674B1B6A664A23F00403E6
:101D700013621CE07B68DB68052B0CD1614B1B6A8E
:101D8000604A43F0040313625E4B1B6A5D4A43F0F2
:101D9000010313620BE05B4B1B6A5A4A23F00103F9
:101DA0001362584B1B6A574A23F0040313627B6883
:101DB000DB68002B15D0FFF775FB38610AE0FFF7F1
:101DC00071FB02463B69D31A41F28832934201D932
:101DD0000323B1E04B4B1B6A03F00203002BEED050
:101DE00014E0FFF75FFB38610AE0FFF75BFB024698
:101DF0003B69D31A41F28832934201D903239BE015
:101E0000404B1B6A03F00203002BEED1FB7D012B3C
:101E100005D13C4BDB693B4A23F08053D3617B689F
:101E2000DB69002B00F08780364B5B6803F00C0306
:101E3000082B61D07B68DB69022B46D1334B002233
:101E40001A60FFF72FFB386108E0FFF72BFB024613
:101E50003B69D31A022B01D903236DE0294B1B6880
:101E600003F00073002BF0D17B681B6AB3F5803F51
:101E700008D1244B5B6823F400327B689B682149BE
:101E800013434B601F4B5B6823F474127B68196A21
:101E90007B685B6A0B431B4913434B601B4B01225E
:101EA0001A60FFF7FFFA386108E0FFF7FBFA024615
:101EB0003B69D31A022B01D903233DE0114B1B6868
:101EC00003F00073002BF0D035E0104B00221A60B5
:101ED000FFF7E8FA386108E0FFF7E4FA02463B69E9
:101EE000D31A022B01D9032326E0064B1B6803F00B
:101EF0000073002BF0D11EE07B68DB69012B07D15A
:101F0000012319E0001002400070004060004242CE
:101F10000B4B5B68FB60FB6803F480327B681B6AD9
:101F20009A4206D1FB6803F470127B685B6A9A429E
:101F300001D0012300E0002318461837BD4680BDBC
:101F40000010024080B584B000AF786039607B68D3
:101F5000002B01D10123D0E06A4B1B6803F007037B
:101F60003A689A4210D9674B1B6823F0070265490B
:101F70003B6813430B60634B1B6803F007033A682D
:101F80009A4201D00123B8E07B681B6803F002038A
:101F9000002B20D07B681B6803F00403002B05D0C6
:101FA000594B5B68584A43F4E06353607B681B6895
:101FB00003F00803002B05D0534B5B68524A43F4EF
:101FC00060535360504B5B6823F0F0027B689B6862
:101FD0004D4913434B607B681B6803F00103002BE2
:101FE00040D07B685B68012B07D1474B1B6803F42B
:101FF0000033002B15D101237FE07B685B68022B47
:1020000007D1414B1B6803F00073002B09D101235A
:1020100073E03D4B1B6803F00203002B01D1012349
:102020006BE0394B5B6823F003027B685B683649E1
:1020300013434B60FFF736FAF8600AE0FFF732FA15
:102040000246FB68D31A41F28832934201D9032336
:1020500053E02D4B5B6803F00C027B685B689B00D0
:102060009A42EBD1274B1B6803F007033A689A4268
:1020700010D2244B1B6823F0070222493B6813430C
:102080000B60204B1B6803F007033A689A4201D0AB
:10209000012332E07B681B6803F00403002B08D0A7
:1020A000194B5B6823F4E0627B68DB6816491343D5
:1020B0004B607B681B6803F00803002B09D0124BB0
:1020C0005B6823F460527B681B69DB000E49134395
:1020D0004B6000F021F802460B4B5B681B0903F0D4
:1020E0000F030A49CB5C22FA03F3094A1360094B38
:1020F0001B681846FFF794F9002318461037BD46B1
:1021000080BD00BF0020024000100240AC53000818
:10211000000000200400002080B487B000AF00233E
:10212000FB600023BB6000237B6100237B600023F6
:102130003B611E4B5B68FB60FB6803F00C03042BE8
:1021400002D0082B03D027E0194B3B6127E0FB6846
:102150009B0C03F00F03174AD35C7B60FB6803F40E
:102160008033002B10D0114B5B685B0C03F0010334
:10217000114AD35CBB607B680D4A03FB02F2BB686B
:10218000B2FBF3F37B6104E07B680C4A02FB03F3D0
:102190007B617B693B6102E0054B3B6100BF3B69B2
:1021A00018461C37BD4680BC704700BF0010024077
:1021B00000127A00C4530008D453000800093D00FF
:1021C00080B400AF024B1B681846BD4680BC704708
:1021D0000000002080B500AFFFF7F2FF0246054B7C
:1021E0005B681B0A03F007030349CB5C22FA03F385
:1021F000184680BD00100240BC53000880B500AFF7
:10220000FFF7DEFF0246054B5B68DB0A03F00703BE
:102210000349CB5C22FA03F3184680BD001002404C
:10222000BC53000880B485B000AF78600A4B1B68CF
:102230000A4AA2FB03235B0A7A6802FB03F3FB60F2
:1022400000BFFB685A1EFA60002BF9D100BF00BF27
:102250001437BD4680BC704700000020D34D62108B
:1022600080B582B000AF78607B68002B01D101237C
:1022700041E07B6893F83D30DBB2002B06D17B68F0
:10228000002283F83C207868FEF716FF7B68022264
:1022900083F83D207B681A687B6804331946104632
:1022A00000F018FC7B68012283F846207B6801223D
:1022B00083F83E207B68012283F83F207B6801225F
:1022C00083F840207B68012283F841207B6801224B
:1022D00083F842207B68012283F843207B68012237
:1022E00083F844207B68012283F845207B68012223
:1022F00083F83D20002318460837BD4680BD000006
:1023000080B485B000AF78607B6893F83D30DBB275
:10231000012B01D001233AE07B68022283F83D20A3
:102320007B681B68DA687B681B6842F00102DA6030
:102330007B681B68184A93420ED07B681B68B3F118
:10234000804F09D07B681B68144A934204D07B6895
:102350001B68134A934211D17B681B689B6803F08A
:102360000703FB60FB68062B10D07B681B681A68AC
:102370007B681B6842F001021A6007E07B681B68FB
:102380001A687B681B6842F001021A600023184635
:102390001437BD4680BC7047002C0140000400404B
:1023A0000008004080B582B000AF78607B68002BE9
:1023B00001D1012341E07B6893F83D30DBB2002B73
:1023C00006D17B68002283F83C20786800F039F859
:1023D0007B68022283F83D207B681A687B6804339F
:1023E0001946104600F076FB7B68012283F84620F0
:1023F0007B68012283F83E207B68012283F83F201E
:102400007B68012283F840207B68012283F8412009
:102410007B68012283F842207B68012283F84320F5
:102420007B68012283F844207B68012283F84520E1
:102430007B68012283F83D20002318460837BD46FB
:1024400080BD80B483B000AF786000BF0C37BD465C
:1024500080BC704780B584B000AF786039603B685D
:10246000002B09D17B6893F83E30DBB2012B14BFFF
:1024700001230023DBB222E03B68042B09D17B68F7
:1024800093F83F30DBB2012B14BF01230023DBB2F2
:1024900015E03B68082B09D17B6893F84030DBB22C
:1024A000012B14BF01230023DBB208E07B6893F803
:1024B0004130DBB2012B14BF01230023DBB2002B20
:1024C00001D001235EE03B68002B04D17B6802222F
:1024D00083F83E2013E03B68042B04D17B68022282
:1024E00083F83F200BE03B68082B04D17B68022275
:1024F00083F8402003E07B68022283F841207B6858
:102500001B6801223968184600F070FD7B681B6863
:102510001E4A934207D17B681B685A6C7B681B6814
:1025200042F400425A647B681B68184A93420ED0FA
:102530007B681B68B3F1804F09D07B681B68144A25
:10254000934204D07B681B68124A934211D17B6886
:102550001B689B6803F00703FB60FB68062B10D029
:102560007B681B681A687B681B6842F001021A606E
:1025700007E07B681B681A687B681B6842F00102F1
:102580001A60002318461037BD4680BD002C01405C
:10259000000400400008004080B584B000AF7860BF
:1025A0007B681B68DB68FB607B681B681B69BB6022
:1025B000BB6803F00203002B20D0FB6803F002038A
:1025C000002B1BD07B681B686FF002021A617B68CE
:1025D00001221A777B681B689B6903F00303002BB9
:1025E00003D0786800F05AFA05E0786800F04DFAF8
:1025F000786800F05CFA7B6800221A77BB6803F009
:102600000403002B20D0FB6803F00403002B1BD035
:102610007B681B686FF004021A617B6802221A77DC
:102620007B681B689B6903F44073002B03D07868B8
:1026300000F034FA05E0786800F027FA786800F0D6
:1026400036FA7B6800221A77BB6803F00803002B78
:1026500020D0FB6803F00803002B1BD07B681B68AD
:102660006FF008021A617B6804221A777B681B6886
:10267000DB6903F00303002B03D0786800F00EFA47
:1026800005E0786800F001FA786800F010FA7B68DD
:1026900000221A77BB6803F01003002B20D0FB68E0
:1026A00003F01003002B1BD07B681B686FF0100237
:1026B0001A617B6808221A777B681B68DB6903F460
:1026C0004073002B03D0786800F0E8F905E07868E3
:1026D00000F0DBF9786800F0EAF97B6800221A77ED
:1026E000BB6803F00103002B0CD0FB6803F001036F
:1026F000002B07D07B681B686FF001021A617868B5
:10270000FEF774FABB6803F08003002B0CD0FB6863
:1027100003F08003002B07D07B681B686FF08002FA
:102720001A61786800F0EDFCBB6803F04003002BF1
:102730000CD0FB6803F04003002B07D07B681B68BC
:102740006FF040021A61786800F0BAF9BB6803F0D4
:102750002003002B0CD0FB6803F02003002B07D0D4
:102760007B681B686FF020021A61786800F0C0FC7B
:1027700000BF1037BD4680BD80B586B000AFF860A1
:10278000B9607A600023FB75FB6893F83C30012B3D
:1027900001D10223AEE0FB68012283F83C207B6874
:1027A0000C2B00F29F8001A252F823F0E1270008D1
:1027B000E5280008E5280008E52800082128000889
:1027C000E5280008E5280008E52800086328000837
:1027D000E5280008E5280008E5280008A3280008E7
:1027E000FB681B68B968184600F0E2F9FB681B68D3
:1027F0009A69FB681B6842F008029A61FB681B68D3
:102800009A69FB681B6822F004029A61FB681B68E6
:102810009969BB681A69FB681B680A439A6164E09E
:10282000FB681B68B968184600F028FAFB681B684B
:102830009A69FB681B6842F400629A61FB681B6836
:102840009A69FB681B6822F480629A61FB681B68C6
:102850009969BB681B691A02FB681B680A439A6185
:1028600043E0FB681B68B968184600F071FAFB6822
:102870001B68DA69FB681B6842F00802DA61FB68D2
:102880001B68DA69FB681B6822F00402DA61FB68E6
:102890001B68D969BB681A69FB681B680A43DA615F
:1028A00023E0FB681B68B968184600F0BBFAFB68B8
:1028B0001B68DA69FB681B6842F40062DA61FB6836
:1028C0001B68DA69FB681B6822F48062DA61FB68C6
:1028D0001B68D969BB681B691A02FB681B680A433D
:1028E000DA6102E00123FB7500BFFB68002283F878
:1028F0003C20FB7D18461837BD4680BD80B584B0AE
:1029000000AF786039600023FB737B6893F83C303C
:10291000012B01D10223B4E07B68012283F83C2023
:102920007B68022283F83D207B681B689B68BB6044
:10293000BB6823F07703BB60BB6823F47F43BB60B5
:102940007B681B68BA689A603B681B68B3F5005FD8
:102950003ED0B3F5005F00F28780B3F5805F00F0F2
:102960008680B3F5805F7FD8702B1AD0702B7BD810
:10297000602B50D0602B77D8502B3CD0502B73D885
:10298000402B58D0402B6FD8302B64D0302B6BD8D5
:10299000202B60D0202B67D8002B5CD0102B5AD076
:1029A00062E07B6818683B6899683B685A683B68D6
:1029B000DB6800F0FCFA7B681B689B68BB60BB6847
:1029C00043F07703BB607B681B68BA689A604FE08E
:1029D0007B6818683B6899683B685A683B68DB68A5
:1029E00000F0E5FA7B681B689A687B681B6842F414
:1029F00080429A603CE07B6818683B6859683B6895
:102A0000DB681A4600F05CFA7B681B6850211846A8
:102A100000F0B3FA2CE07B6818683B6859683B68A3
:102A2000DB681A4600F07AFA7B681B68602118465A
:102A300000F0A3FA1CE07B6818683B6859683B68A3
:102A4000DB681A4600F03CFA7B681B684021184698
:102A500000F093FA0CE07B681A683B681B68194623
:102A6000104600F08AFA03E00123FB7300E000BF88
:102A70007B68012283F83D207B68002283F83C209C
:102A8000FB7B18461037BD4680BD80B483B000AFD5
:102A9000786000BF0C37BD4680BC704780B483B0FF
:102AA00000AF786000BF0C37BD4680BC704780B473
:102AB00083B000AF786000BF0C37BD4680BC704764
:102AC00080B483B000AF786000BF0C37BD4680BCD7
:102AD0007047000080B485B000AF786039607B68D3
:102AE0001B68FB607B682F4A93420BD07B68B3F175
:102AF000804F07D07B682C4A934203D07B682B4AD7
:102B0000934208D1FB6823F07003FB603B685B686D
:102B1000FA681343FB607B68224A93420BD07B68C0
:102B2000B3F1804F07D07B681F4A934203D07B6884
:102B30001E4A934208D1FB6823F44073FB603B6854
:102B4000DB68FA681343FB60FB6823F080023B6894
:102B50005B691343FB607B68FA681A603B689A689C
:102B60007B68DA623B681A687B689A627B680D4A08
:102B7000934203D13B681A697B681A637B68012220
:102B80005A617B681B6903F00103002B05D07B6849
:102B90001B6923F001027B681A6100BF1437BD4630
:102BA00080BC7047002C0140000400400008004039
:102BB00080B487B000AF786039607B681B6A7B6146
:102BC0007B681B6A23F001027B681A627B685B6882
:102BD0003B617B689B69FB60FB6823F07003FB60D3
:102BE000FB6823F00303FB603B681B68FA68134330
:102BF000FB607B6923F002037B613B689B687A6919
:102C000013437B617B681C4A93420CD17B6923F0A0
:102C100008037B613B68DB687A6913437B617B69EE
:102C200023F004037B617B68134A934211D13B6913
:102C300023F480733B613B6923F400733B613B6881
:102C40005B693A6913433B613B689B693A6913438B
:102C50003B617B683A695A607B68FA689A613B68B5
:102C60005A687B685A637B687A691A6200BF1C37AE
:102C7000BD4680BC704700BF002C014080B487B0C7
:102C800000AF786039607B681B6A7B617B681B6A78
:102C900023F010027B681A627B685B683B617B688B
:102CA0009B69FB60FB6823F4E043FB60FB6823F453
:102CB0004073FB603B681B681B02FA681343FB60B0
:102CC0007B6923F020037B613B689B681B017A6969
:102CD00013437B617B681D4A93420DD17B6923F0CE
:102CE00080037B613B68DB681B017A6913437B616E
:102CF0007B6923F040037B617B68144A934213D1C4
:102D00003B6923F480633B613B6923F400633B61CF
:102D10003B685B699B003A6913433B613B689B6975
:102D20009B003A6913433B617B683A695A607B6850
:102D3000FA689A613B685A687B689A637B687A692B
:102D40001A6200BF1C37BD4680BC7047002C014092
:102D500080B487B000AF786039607B681B6A7B61A4
:102D60007B681B6A23F480727B681A627B685B68ED
:102D70003B617B68DB69FB60FB6823F07003FB60F1
:102D8000FB6823F00303FB603B681B68FA6813438E
:102D9000FB607B6923F400737B613B689B681B02CB
:102DA0007A6913437B617B681D4A93420DD17B692D
:102DB00023F400637B613B68DB681B027A69134381
:102DC0007B617B6923F480637B617B68144A934257
:102DD00013D13B6923F480533B613B6923F40053D7
:102DE0003B613B685B691B013A6913433B613B688C
:102DF0009B691B013A6913433B617B683A695A60DE
:102E00007B68FA68DA613B685A687B68DA637B68DA
:102E10007A691A6200BF1C37BD4680BC704700BF8C
:102E2000002C014080B487B000AF786039607B68C7
:102E30001B6A3B617B681B6A23F480527B681A62C1
:102E40007B685B687B617B68DB69FB60FB6823F404
:102E5000E043FB60FB6823F44073FB603B681B6846
:102E60001B02FA681343FB603B6923F400533B6188
:102E70003B689B681B033A6913433B617B680F4ABD
:102E8000934209D17B6923F480437B613B685B6992
:102E90009B017A6913437B617B687A695A607B681E
:102EA000FA68DA613B685A687B681A647B683A6939
:102EB0001A6200BF1C37BD4680BC7047002C014021
:102EC00080B487B000AFF860B9607A60FB681B6AB5
:102ED0007B61FB681B6A23F00102FB681A62FB68D6
:102EE0009B693B613B6923F0F0033B617B681B01FD
:102EF0003A6913433B617B6923F00A037B617A697A
:102F0000BB6813437B61FB683A699A61FB687A6925
:102F10001A6200BF1C37BD4680BC704780B487B0C2
:102F200000AFF860B9607A60FB681B6A7B61FB6880
:102F30001B6A23F01002FB681A62FB689B693B6105
:102F40003B6923F470433B617B681B033A6913437D
:102F50003B617B6923F0A0037B61BB681B017A693D
:102F600013437B61FB683A699A61FB687A691A626C
:102F700000BF1C37BD4680BC704780B485B000AF31
:102F8000786039607B689B68FB60FB6823F07003A6
:102F9000FB603A68FB68134343F00703FB607B6800
:102FA000FA689A6000BF1437BD4680BC704780B491
:102FB00087B000AFF860B9607A603B60FB689B68DF
:102FC0007B617B6923F47F437B613B681A027B68EA
:102FD0001A43BB6813437A6913437B61FB687A69C0
:102FE0009A6000BF1C37BD4680BC704780B487B074
:102FF00000AFF860B9607A60BB6803F01F0301227C
:1030000002FA03F37B61FB681A6A7B69DB431A40AF
:10301000FB681A62FB681A6ABB6803F01F037968D1
:1030200001FA03F31A43FB681A6200BF1C37BD465E
:1030300080BC704780B485B000AF786039607B6831
:1030400093F83C30012B01D1022346E07B6801223A
:1030500083F83C207B68022283F83D207B681B6854
:103060005B68FB607B681B689B68BB60FB6823F048
:103070007003FB603B681B68FA681343FB607B6866
:103080001B68FA685A607B681B68164A93420ED028
:103090007B681B68B3F1804F09D07B681B68124ABC
:1030A000934204D07B681B68104A93420CD1BB68E2
:1030B00023F08003BB603B685B68BA681343BB6066
:1030C0007B681B68BA689A607B68012283F83D20A0
:1030D0007B68002283F83C20002318461437BD4645
:1030E00080BC7047002C01400004004000080040F4
:1030F00080B483B000AF786000BF0C37BD4680BCA1
:10310000704780B483B000AF786000BF0C37BD4615
:1031100080BC704780B582B000AF78607B68002BC0
:1031200001D1012342E07B6893F84130DBB2002BF0
:1031300006D17B68002283F840207868FEF728F8E3
:103140007B68242283F841207B681B68DA687B68EF
:103150001B6822F40052DA60786800F071F97B682D
:103160001B681A697B681B6822F490421A617B68AD
:103170001B685A697B681B6822F02A025A617B68C7
:103180001B68DA687B681B6842F40052DA607B686F
:1031900000225A647B68202283F841207B68202229
:1031A00083F842207B6800225A63002318460837C0
:1031B000BD4680BD80B58AB002AFF860B9603B60A3
:1031C0001346FB8000237B61FB6893F84130DBB240
:1031D000202B75D1BB68002B02D0FB88002B01D1BE
:1031E00001236EE0FB6800225A64FB68212283F809
:1031F0004120FEF757F97861FB68FA889A84FB68EA
:10320000FA88DA84FB689B68B3F5805F08D1FB68B5
:103210001B69002B04D10023FB61BB68BB6103E089
:10322000BB68FB610023BB612EE03B6800937B69B8
:1032300000228021F86800F048F80346002B05D0F2
:10324000FB68202283F8412003233AE0FB69002B2E
:103250000BD1BB691B881A46FB681B68C2F30802C6
:103260005A60BB690233BB6107E0FB691A78FB68EF
:103270001B685A60FB690133FB61FB68DB8C9BB206
:10328000013B9AB2FB68DA84FB68DB8C9BB2002BB3
:10329000CBD13B6800937B6900224021F86800F0A5
:1032A00014F80346002B05D0FB68202283F8412048
:1032B000032306E0FB68202283F84120002300E07E
:1032C000022318462037BD4680BD80B586B000AFCA
:1032D000F860B9603B601346FB713BE03B6AB3F1B9
:1032E000FF3F37D0FEF7DEF802463B68D31A3A6A52
:1032F0009A4202D33B6A002B01D103233AE0FB68D8
:103300001B68DB6803F00403002B23D0BB68802B11
:1033100020D0BB68402B1DD0FB681B681B6803F0E6
:103320000803082B16D100237B61FB681B681B6810
:103330007B61FB681B685B687B617B69F86800F0F8
:103340001DF8FB6808225A64FB68002283F84020BD
:1033500001230FE0FB681B681A68BB681340BA685A
:103360009A420CBF01230023DBB21A46FB799A4232
:10337000B4D0002318461837BD4680BD80B495B040
:1033800000AF78607B681B680C337B637B6B53E812
:10339000003F3B633B6B23F49073FB647B681B68CB
:1033A0000C33FA6C3A64FB63F96B3A6C41E8002326
:1033B000BB63BB6B002BE5D17B681B6814333B629E
:1033C0003B6A53E8003FFB61FB6923F00103BB64E8
:1033D0007B681B681433BA6CFA62BB62B96AFA6A1A
:1033E00041E800237B627B6A002BE5D17B681B6B85
:1033F000012B19D17B681B680C33FB60FB6853E819
:10340000003FBB60BB6823F010037B647B681B68D4
:103410000C337A6CBA617B617969BA6941E800233F
:103420003B613B69002BE5D17B68202283F8422079
:103430007B6800221A6300BF5437BD4680BC7047CA
:1034400080B584B000AF78607B681B681B6923F48B
:1034500040517B68DA687B681B680A431A617B68A5
:103460009A687B681B691A437B685B691343BB607E
:103470007B681B68DB6823F4B05323F00C037A6885
:103480001268B9680B43D3607B681B685B6923F4DF
:1034900040717B689A697B681B680A435A617B6844
:1034A0001B682C4A934203D1FEF7A8FEF86002E0A5
:1034B000FEF790FEF860FA6813469B0013449A00EA
:1034C0001A447B685B689B00B2FBF3F3224AA2FBC1
:1034D00003235B091901FA6813469B0013449A0001
:1034E0001A447B685B689B00B2FBF3F21A4BA3FBA8
:1034F00002035B09642000FB03F3D31A1B01323380
:10350000154AA2FB03235B0903F0F0031944FA6890
:1035100013469B0013449A001A447B685B689B0027
:10352000B2FBF3F20C4BA3FB02035B09642000FB2C
:1035300003F3D31A1B013233074AA2FB03235B09AF
:1035400003F00F027B681B680A449A6000BF1037C3
:10355000BD4680BD003801401F85EB51002310B5EA
:103560000446C0E90033C0E90433836081814366C7
:10357000C2818361194608225C3000F006F90D4BC8
:10358000246263620C4BA3620C4BE3620C4B23631B
:103590000C4B9C4206D003F16802944202D0D03317
:1035A0009C4205D104F15800BDE8104000F066B916
:1035B00010BD00BF05370008273700085F37000837
:1035C0008337000898010020024A0349034800F0AD
:1035D00069B800BF0C000020114100081C00002049
:1035E00041680C4B10B59942044601D000F090FDA3
:1035F000A168094B994202D0204600F089FDE1689C
:10360000064B994204D02046BDE8104000F080BD32
:1036100010BD00BF980100200002002068020020B9
:1036200010B50B4B0B4C0C4A20461A6004210022AB
:10363000FFF794FF04F1680001220921FFF78EFFD4
:1036400004F1D0000222BDE810401221FFF786BF2E
:10365000D002002098010020C9350008014800F080
:103660000EB900BFD9020020014800F009B900BF1F
:10367000D902002010B50446FFF7F0FF236A1BB102
:10368000BDE81040FFF7F0BF044B2362044B1B68FA
:10369000002BF5D1FFF7C4FFF2E700BFE1350008CA
:1036A000D00200202DE9F84307468846144600263C
:1036B000D4E90195B9F1010905D52468002CF7D1A9
:1036C0003046BDE8F883AB89012B07D9B5F90E3038
:1036D000013303D029463846C04706436835E9E739
:1036E0000FB407B5064904AB086853F8042B81688A
:1036F000019300F0E5F903B05DF804EB04B0704706
:103700001800002010B50C46B1F90E1000F068F852
:103710000028ABBF636DA3891B1823F48053ACBF93
:103720006365A38110BD2DE9F0411F468B890546D5
:10373000DB050C46164605D502230022B1F90E1012
:1037400000F03CF8A389324623F48053A381284635
:103750003B46B4F90E10BDE8F04100F053B810B587
:103760000C46B1F90E1000F029F8431CA38915BFCF
:10377000606523F4805343F48053A38118BFA38171
:1037800010BDB1F90E1000F009B80346024493428F
:1037900000D1704703F8011BF9E7000038B500239A
:1037A000054D044608462B60FDF791FD431C02D1F0
:1037B0002B6803B1236038BDD402002038B504461D
:1037C000084611460022054D2A601A46FDF7A3FD62
:1037D000431C02D12B6803B1236038BDD402002002
:1037E00038B50446084611460022054D2A601A469F
:1037F000FDF750FD431C02D12B6803B1236038BD97
:10380000D402002038B50446084611460022054D72
:103810002A601A46FDF716FA431C02D12B6803B141
:10382000236038BDD4020020014B1868704700BFE8
:103830001800002070B500260C4D0D4C641BA41020
:10384000A64209D101F090FD00260A4D0A4C641BE6
:10385000A410A64205D170BD55F8043B9847013627
:10386000EEE755F8043B98470136F2E7E8550008C3
:10387000E8550008E8550008EC5500087047704707
:103880007047000038B50546002940D051F8043C87
:103890000C1F002BB8BFE41800F0DEF81C4A1368B8
:1038A00033B9636014602846BDE8384000F0DAB8E8
:1038B000A34208D9206821188B4201BF19685B68B0
:1038C00009182160EDE71A465B680BB1A342FAD9EB
:1038D00011685018A0420BD120680144501883424F
:1038E0001160E0D118685B68084410605360DAE743
:1038F00002D90C232B60D6E7206821188B4201BF28
:1039000019685B680918216063605460CBE738BDB3
:10391000E002002070B50F4E0C463168054611B923
:1039200000F0B2FC30602146284600F0ADFC431C9C
:1039300003D14FF0FF34204670BDC41C24F00304B3
:10394000A042F8D0211A284600F09EFC0130F2D1A6
:10395000EFE700BFDC0200202DE9F843CD1C25F085
:10396000030508350C2D38BF0C25002D064601DB5C
:10397000A94204D90C2333600020BDE8F883DFF8A6
:10398000D48000F069F8D8F800301C4644BB2946C2
:103990003046FFF7BFFF431C044658D1D8F800401B
:1039A0002746002F43D1002C4BD0236839463046A0
:1039B00004EB030900F068FC814542D121683046E0
:1039C0006D1A2946FFF7A6FF01303AD023682B4431
:1039D0002360D8F800305A6862BBC8F800700FE066
:1039E0002268521B20D40B2A17D96119A3422560E3
:1039F00018BF5960636808BFC8F8001062514B6077
:103A0000304600F02FF804F10B00231D20F00700D2
:103A1000C21A1CBF1B1AA350AFE76268A3420CBFB7
:103A2000C8F800205A60EBE723466468AEE73C46DE
:103A30007F68B6E71A465B68A342FBD10023536058
:103A4000DEE70C233046336000F00CF894E70560A5
:103A5000D6E700BFE00200200148FFF710BF00BF1B
:103A6000D80200200148FFF70BBF00BFD80200209A
:103A7000936810B4013B002B936007DA9469A3426A
:103A800001DB0A2902D110BC00F06ABB1368581C84
:103A900010601970084610BC7047F8B506460F460E
:103AA0001446D518AC4201D1002007E03A46304612
:103AB00014F8011BFFF7DCFF431CF3D1F8BD000035
:103AC0002DE9F04F0D461446984606469DB018B1B4
:103AD000036A0BB9FFF7CEFD6B6ED90705D4AB892E
:103AE0009A0502D4A86DFFF7CAFEAB891B0701D562
:103AF0002B699BB92946304600F070FB70B16B6EA4
:103B0000DC0704D54FF0FF301DB0BDE8F08FAB8966
:103B10009805F7D4A86DFFF7B3FEF3E700230993E8
:103B200020238DF8293030234FF00109CDF80C8087
:103B3000DFF8A8818DF82A3023469A4613F8012B26
:103B40000AB1252AF9D1BAEB040B0BD05B46224609
:103B500029463046FFF7A1FF013000F0A780099AFF
:103B60005A4409929AF80030002B00F09F800023FD
:103B70004FF0FF32CDE905230AF1010A04930793C0
:103B80008DF853301A935446052214F8011B5348FC
:103B900000F08AFB049AD8B9D10644BF20238DF8DF
:103BA0005330130744BF2B238DF853309AF800305D
:103BB0002A2B15D0544600204FF00A0C079A2146B4
:103BC00011F8013B303B092B4BD9B0B1079214E0FF
:103BD000A0EB080309FA03F31343A2460493D2E7C8
:103BE000039B191D1B680391002BBBBF5B4242F076
:103BF000020207930793B8BF049223782E2B0AD1B1
:103C000063782A2B32D1039B02341A1D1B6803925E
:103C100043EAE3730593DFF8C8A0032250462178F6
:103C200000F042FB38B14022049BA0EB0A00824026
:103C300013430134049314F8011B062229488DF81C
:103C4000281000F031FB00283FD0274B1BBB039B03
:103C5000073323F0070308330393099B3B4409937D
:103C60006AE70C4601200CFB0232A8E700234FF064
:103C70000A0C194601340593204610F8012B303AFE
:103C8000092A03D9002BC6D00591C4E704460123B5
:103C90000CFB0121F0E703AB00932A463046134B9F
:103CA00004A9AFF300800746781CD6D16B6ED90704
:103CB00005D4AB899A0502D4A86DFFF7E1FDAB8965
:103CC0005B063FF51FAF09981EE703AB00932A463A
:103CD0003046064B04A900F07DF8E4E7D65300080F
:103CE000DC530008E0530008000000009B3A000885
:103CF0002DE9F047164698468A680B6907469342B5
:103D0000B8BF1346336091F843200C46DDF820908D
:103D10000AB1013333602368990642BF3368023326
:103D20003360256815F0060506D104F1190AE36829
:103D300032689B1AAB422BDC94F843302268003B7C
:103D400018BF0123920630D44146384604F143029D
:103D5000C847013023D02368226903F00603042BEF
:103D600014BF002533684FF0000608BFE56804F172
:103D70001A0408BFED1A54F8123C08BF25EAE5758D
:103D80009342C4BF9B1AED18B5421AD1002008E037
:103D90000123524641463846C847013003D14FF00F
:103DA000FF30BDE8F0870135C1E73020E11881F828
:103DB00043005A1C94F845102244023382F8431001
:103DC000C2E70123224641463846C8470130E6D0C3
:103DD0000136D9E72DE9FF470F7E9146782F8046BF
:103DE0000C469A460C9E01F1430207D8622F0AD86E
:103DF000002F00F0D180582F00F0B88004F1420667
:103E000084F842703AE0A7F16303152BF6D801A1BC
:103E100051F823F06D3E0008813E0008FD3D00088A
:103E2000FD3D0008FD3D0008FD3D0008813E000805
:103E3000FD3D0008FD3D0008FD3D0008FD3D00087A
:103E40007F3F0008AB3E0008393F0008FD3D0008F9
:103E5000FD3D0008A13F0008FD3D0008AB3E000805
:103E6000FD3D0008FD3D0008413F000833681A1D74
:103E70001B68326004F1420684F8423001239CE062
:103E800033682068191D3160060601D51D6803E0FE
:103E90004506FBD5B3F90050002D03DA2D236D4202
:103EA00084F843300A23584811E021683368080633
:103EB00053F8045B02D4490648BFADB26F2F33609C
:103EC00014BF0A2308235048002184F84310666871
:103ED000002EA66005DB21682E4321F0040121603D
:103EE0004BD01646B5FBF3F103FB1157C75D06F83F
:103EF000017D2F46BB420D46F4D9082B0BD1236818
:103F0000DF0708D5236961689942DEBF302306F8D0
:103F1000013C06F1FF36921B22614B46214640468A
:103F2000CDF800A003AAFFF7E3FE01304AD14FF01D
:103F3000FF3004B0BDE8F087236843F0200323601E
:103F40007827324884F84570236831681F0651F895
:103F5000045B02D45F0648BFADB23160D90744BFED
:103F600043F0200323601DB11023ADE72648E9E7A5
:103F7000236823F020032360F6E71646BDE7336885
:103F80002568181D616930602E061B6801D519600F
:103F900002E06806FBD51980002316462361BCE7C2
:103FA000336800211A1D32601E686268304600F0D6
:103FB0007BF908B1801B606063682361002384F88B
:103FC0004330AAE73246494640462369D04701308C
:103FD000ADD023689B0713D4E068039B9842B8BF19
:103FE0001846A6E70123324649464046D0470130ED
:103FF0009DD00135E36803995B1AAB42F2DCEBE735
:10400000002504F11906F5E7E7530008F853000806
:10401000B1F90C20F8B5160705460C4654D44B6888
:10402000002B02DC0B6C002B48DDE66A002E45D02D
:10403000002312F480522F68216A2B6030D0626D09
:10404000A389590705D56368D21A636B0BB1236C3A
:10405000D21A00232846E66A216AB047431CA38986
:1040600006D129681D292BD8284ACA40D60727D54A
:10407000002262602269D904226004D5421C01D169
:104080002B6803B96065616B2F60B9B104F144031B
:10409000994202D02846FFF7F5FB002363630DE049
:1040A00001232846B0470246501CC9D12B68002B7B
:1040B000C6D01D2B01D0162B1DD12F60002021E072
:1040C00043F040031BB21AE00F69002FF6D09307AC
:1040D00018BF00230E6808BF4B69F61B0F608B608A
:1040E000002EEBDD33463A462846216AD4F828C034
:1040F000E047002807DCB4F90C3043F040034FF0F0
:10410000FF30A381F8BD0744361AE9E701004020DB
:1041100038B50B6905460C4613B90025284638BD4D
:1041200018B1036A0BB9FFF7A5FAB4F90C30002BEC
:10413000F3D0626ED00704D4990502D4A06DFFF7C6
:104140009EFB28462146FFF763FF636E0546DA07AC
:10415000E4D4A3899B05E1D4A06DFFF791FBDDE7D3
:10416000F8B50E461446054618B1036A0BB9FFF7B9
:1041700081FAA369A360A3891A0701D5236943B90A
:104180002146284600F02AF818B14FF0FF3738468C
:10419000F8BD23682269F6B2981A636937468342EC
:1041A00005DC21462846FFF7B3FF0028EDD1A368C0
:1041B000013BA36023685A1C22601E706269431C85
:1041C0009A4204D0A389DB07E1D50A2EDFD121462C
:1041D0002846FFF79DFF0028D9D0D6E738B5294BF0
:1041E000054618680C4618B1036A0BB9FFF742FA86
:1041F000B4F90C30190722D4DA0607D409222A6050
:1042000043F040034FF0FF30A38133E0580712D54D
:10421000616B41B104F14403994202D02846FFF793
:1042200031FB00236363A38923F02403A3810023CC
:10423000636023692360A38943F00803A381236992
:104240004BB9A38903F42073B3F5007F03D0214653
:10425000284600F05CF8B4F90C3013F001020AD0E3
:104260000022A26062695242A261226942B913F03F
:104270008000C5D138BD990758BF6269A260F4E7D4
:104280000020F7E71800002038B50023054D04464C
:1042900008462B60FDF74CF8431C02D12B6803B194
:1042A000236038BDD4020020034610B5C9B20244D1
:1042B0009342184601D1002003E0047801338C4278
:1042C000F6D110BD70B50C46B1F90E101546002997
:1042D0001E4696B00CDAA389002113F0800F14BF9C
:1042E00040234FF48063002031602B6016B070BD16
:1042F0006A4600F049F80028EDDB019901F47041AD
:10430000A1F50053594259414FF48063EBE78B8983
:10431000F7B59D0706460C4607D504F14703236011
:1043200023610123636103B0F0BD6A4601ABFFF76F
:10433000C9FF009F054639463046FFF70DFB48B9D7
:10434000B4F90C309A05EED423F0030343F00203D2
:10435000A381E2E7A389C4E9040743F08003A381B2
:10436000019B20605BB13046B4F90E1000F01EF8DE
:1043700028B1A38923F0030343F00103A381A38998
:104380001D43A581CFE7000038B50023064D044644
:10439000084611462B60FCF7A5FF431C02D12B6891
:1043A00003B1236038BD00BFD402002038B500231C
:1043B000054D044608462B60FCF7A3FF431C02D1C1
:1043C0002B6803B1236038BDD402002030B5204DE6
:1043D00021F00044AC4202460B4687B006D80023C9
:1043E00000220093002300F0F7F804E0194DAC42DE
:1043F00003D9FBF7B1FE07B030BD02AA00F0A4F963
:1044000000F00300012809D002280ED0C0B9DDE970
:10441000020101230093DDE90423E4E7DDE904233D
:10442000DDE9020100F018F8E5E70123DDE902010A
:104430000093DDE9042300F0CFF801F10041DAE751
:10444000DDE90423DDE9020100F006F8F5E700BF2D
:10445000FB21E93FFFFFEF7F2DE9F74F21F00046F9
:10446000B6F1795F80468946CDE9002304D2FCF796
:10447000C5FA002800F0868042464B464046494631
:10448000FCF722F800224E4B04460D46FCF71CF8C0
:104490003FA3D3E9002382468B4620462946FCF7FA
:1044A00013F83DA3D3E90023FBF758FE22462B4621
:1044B000FCF70AF83AA3D3E90023FBF74DFE2246A6
:1044C0002B46FCF701F838A3D3E90023FBF746FE9F
:1044D00022462B46FBF7F8FF35A3D3E90023FBF771
:1044E0003BFE22462B46FBF7EFFF33A3D3E9002325
:1044F000FBF734FE22462B46FBF7E6FF22462B460F
:10450000FBF7E2FFDDE9002304460D46404649463D
:10451000FBF7DAFF0B46024629462046FBF71CFE56
:10452000284B80469E4289460ED802460B4650468E
:104530005946FBF711FE024600200B462249FBF7C5
:104540000BFE03B0BDE8F08F0024204B22469E42B4
:104550008CBF1F4DA6F500152B4600201A49FBF70E
:10456000FBFD224606460F462B4650465946FBF7B2
:10457000F3FD42464B46FBF7EFFD02460B46304645
:104580003946DCE700201049DBE700BFAFF30080CD
:10459000D43888BEE9FAA8BDC4B1B4BD9EEE213EB0
:1045A000AD529C804F7E923E9015CB19A001FA3EF1
:1045B0007751C1166CC1563F4C5555555555A53FC1
:1045C0000000E03F3233D33F0000F03F0000E93FFE
:1045D0000000D23F000000002DE9F04F1F4621F0FF
:1045E0000043B3F1795F04460D46164685B003D209
:1045F000FCF704FA002851D022462B4620462946D3
:10460000FBF762FF82468B4602460B462046294650
:10461000FBF75AFF3EA3D3E9002380468946504664
:104620005946FBF751FF3CA3D3E90023FBF794FD68
:1046300052465B46FBF748FF39A3D3E90023FBF75B
:104640008DFD52465B46FBF73FFF37A3D3E90023BE
:10465000FBF782FD52465B46FBF736FF34A3D3E9F6
:104660000023FBF77BFD0E9BCDE90001DBB9024681
:104670000B4650465946FBF727FF2FA3D3E90023EB
:10468000FBF76AFD42464B46FBF71EFF02460B4610
:1046900020462946FBF762FD04460D462046294682
:1046A00005B0BDE8F08F002230463946244BFBF7B9
:1046B0000BFFDDE90023CDE9020140464946FBF747
:1046C00003FF02460B46DDE90201FBF745FD5246BA
:1046D0005B46FBF7F9FE32463B46FBF73DFD16A372
:1046E000D3E9002306460F4640464946FBF7ECFE59
:1046F00002460B4630463946FBF730FD02460B4674
:1047000020462946FBF728FDC6E700BFAFF300802F
:104710007CD5CF5A3AD9E53DEB9C2B8AE6E55A3E4B
:104720007DFEB157E31DC73ED561C119A0012A3FE7
:10473000A6F810111111813F495555555555C53FE2
:104740000000E03F000000002DE9F04FC44B21F0D5
:1047500000488DB0984506460F461446049107D888
:10476000C2E9006700230022C4E90223002526E0F5
:10477000BC4B984576D8049BBB4D002BAAA3D3E92C
:10478000002338DDFBF7E8FCA84506460F461AD0A3
:10479000A7A3D3E90023FBF7DFFC02460B468046C4
:1047A000894630463946FBF7D7FCA1A3D3E900235D
:1047B000FBF7D2FC0125C4E90089C4E902012846BF
:1047C0000DB0BDE8F08F9CA3D3E90023FBF7C4FC38
:1047D0009BA3D3E9002306460F46FBF7BDFC024628
:1047E0000B468046894630463946FBF7B5FC94A314
:1047F000D3E90023DCE7FBF7B1FCA84506460F46EA
:1048000018D08BA3D3E90023FBF7A8FC02460B4684
:104810008046894630463946FBF79EFC84A3D3E99F
:104820000023FBF79BFC4FF0FF35C4E90089C4E986
:104830000201C4E780A3D3E90023FBF78FFC80A328
:10484000D3E9002306460F46FBF788FC02460B46D9
:104850008046894630463946FBF77EFC78A3D3E98B
:104860000023DEE7814B984500F2CF8000F062F92B
:1048700075A3D3E9002306460F46FBF725FE002269
:104880007B4BFBF76BFCFCF7B9F80546FBF7B2FD79
:1048900002460B46CDE9022363A3D3E90023FBF7CD
:1048A00013FE02460B4630463946FBF755FC60A323
:1048B000D3E9002382468B46DDE90201FBF704FEC3
:1048C0001F2D06460F460CDC6A4B6A1E53F8223039
:1048D000434506D032463B4650465946FBF73CFC22
:1048E0000EE03B46324650465946FBF735FC4FEA50
:1048F00028530593C1F30A53C3EB1853102B02DC62
:10490000C4E9000139E04CA3D3E90023DDE9020149
:10491000FBF7DAFD06460F4602460B46504659465F
:10492000FBF71AFC02460B4680468946504659461C
:10493000FBF712FC32463B46FBF70EFC40A3D3E9E3
:10494000002306460F46DDE90201FBF7BDFD3246B6
:104950003B46FBF701FC02460B4606460F46404627
:104960004946FBF7F9FB059AC1F30A53D31A312BD9
:1049700020DCC246CB46C4E90001D4E90089504698
:1049800042464B465946FBF7E7FB3B463246FBF7B0
:10499000E3FB049BC4E90201002BBFF610AF09F151
:1049A0000043636001F10043C4F80080A060E3604D
:1049B0006D4204E726A3D3E90023DDE90201FBF7FA
:1049C00083FD06460F4602460B4640464946FBF726
:1049D000C3FB02460B4682468B4640464946FBF7E0
:1049E000BBFB32463B46FBF7B7FB1BA3D3E90023D7
:1049F00006460F46DDE90201FBF766FD32463B46FF
:104A0000FBF7AAFB06460F4664E71B4B984535D9D2
:104A100002460B46FBF7A0FBC4E90201C4E9000112
:104A2000A4E600BFAFF3008000004054FB21F93F33
:104A30003163621A61B4D03D0000601A61B4D03DA8
:104A40007370032E8A19A33B83C8C96D305FE43F9E
:104A50000000002E8A19A33BC14920259A837B3987
:104A6000FB21E93F7BD90240FB21F93FFB21394182
:104A70000000E03F0C540008FFFFEF7F4FEA28558D
:104A8000A5F21645A8EB05510F46FBF7B7FFFBF75C
:104A9000B1FC02460B4630463946CDE90623FBF70A
:104AA0005BFB0022214BFBF70FFD0F460646FBF791
:104AB000A5FFFBF79FFC02460B4630463946CDE981
:104AC0000823FBF749FB0022184BFBF7FDFC4FF0D6
:104AD000030800260027CDE90A010DF1300932460E
:104AE00079E902013B46C24608F1FF38FBF754FF63
:104AF0000028F4D10E4B2A4601930223214600934D
:104B000006A8534600F01AF8049B0546002BBFF692
:104B100056AED4E9002101F10043C4E90023D4E9F1
:104B2000022101F10043C4E9022341E70000704182
:104B30008C54000821F00043194670472DE9F04FCE
:104B4000ADF5197D08930491BA4BA29912F1140F97
:104B500053F82130A8BFD41E0293089BB8BF00248D
:104B600003F1FF330693A4BF182394FBF3F46FF013
:104B7000170304FB033303EB020A069A029BA71AEE
:104B800003EB0208A39B002503EB87090022002307
:104B9000099020AE454513DD0027089A20AB03EBB2
:104BA000C2050DF5E07B029B9F4233DC099B00228E
:104BB000A3F108090023A8460026CDE900231FE041
:104BC000EF420BD459F82500CDE90023FBF712FC86
:104BD000DDE90023E6E802010135DBE7104619466E
:104BE000F8E778E90223F9E90201FBF76DFC0246D8
:104BF0000B46DDE90001FBF7B1FACDE90001013612
:104C0000069B9E42EDDDDDE900230137EBE8022340
:104C10000835C8E7029B0CAA02EB83030B93A39B06
:104C2000DDF808B003EB84030A9398AB03EBCB03E6
:104C300053E9284570AB03EBCB030CAE9946B04665
:104C40005F460793002F71DC52462046294600F04C
:104C500097FA00224FF07F5304460D46FBF734FCD1
:104C600000F002FB0022744BFBF72EFC02460B46C1
:104C700020462946FBF770FA0D460446FBF7BEFEB8
:104C80000590FBF7B7FB02460B4620462946FBF78B
:104C900063FABAF1000F804689466DDD0BF1FF31F2
:104CA0000CAB53F82130059CCAF1180043FA00F20E
:104CB000144482409B1A0CAA42F82130CAF1170210
:104CC000059413410093009B002B64DD00226FF0DC
:104CD0007F411446059B01330593934500F39D8066
:104CE000BAF1000F07DDBAF1010F00F0B380BAF19D
:104CF000020F00F0BA80009B022B4CD142464B467B
:104D000000204E49FBF728FA80468946002C42D005
:104D100052460020494900F033FA02460B4640460D
:104D20004946FBF719FA8046894634E00022444B95
:104D300020462946FBF7C8FBFBF760FEFBF75AFB52
:104D400002460B46CDE9002300223E4BFBF7BCFB9D
:104D500002460B4620462946FBF7FEF9FBF74EFEBE
:104D600079E9022348F8040BDDE90001FBF7F6F9C5
:104D7000013F04460D4665E706D10BF1FF330CAA4F
:104D800052F82330DB159DE700222F4BFBF722FE64
:104D900000283FD100900022002340464946FBF7FF
:104DA000FBFD002800F0B08000220BF1FF330299D8
:104DB0008B4262DA002A77D00BF1FF3B0CAB53F841
:104DC0002B30AAF1180A002BF6D0524600201B49BE
:104DD00000F0D6F95D4606460F464FF0000970AB6D
:104DE000DFF85CA04FEACB0403EBCB08002D80F288
:104DF000C1805D46002DC0F2F180144B4FF00009D8
:104E0000069370AB4FF0000A002703EBC508ABEB2D
:104E10000506D7E00223009358E756F8043BBCB9D7
:104E200023B1C3F1807346F8043C01231C460132D0
:104E300053E700BFD8550008000020400000F03FB5
:104E40000000703E000070410000E03F98550008EF
:104E5000CB1AE8E70BF1FF320CAB53F82230C3F367
:104E600016030CA941F8223045E70BF1FF320CABD9
:104E700053F82230C3F31503F3E70CA951F82310BC
:104E8000013B0A4393E7013453F8042D002AFAD07A
:104E9000089B20AA5B440BF1010802EBC3055C44AC
:104EA000444504DAA346C0E601240B9BECE70A9BC9
:104EB000AB4653F82800FBF79DFA4FF00009002697
:104EC0000027099BC5E90001083B0093069B994513
:104ED00007DD079B08F10108E3E90267083507933E
:104EE000DEE7009909F10109F1E9022300917BE86D
:104EF0000201FBF7E9FA02460B4630463946FBF75A
:104F00002DF906460F46E1E7CAF100024046494640
:104F100000F036F90022974B04460D46FBF75AFD88
:104F200000B30022944B20462946FBF7CDFAFBF74D
:104F300065FD0646FBF75EFA00228E4BFBF7C4FACE
:104F40000B46024629462046FBF706F9FBF756FDBD
:104F50000CAB43F82B000BF1010B0AF1180A43F8D4
:104F60002B6032E720462946FBF748FD0CAB43F89F
:104F70002B002AE70CAB53F82500FBF73BFA32462F
:104F80003B46FBF7A1FA4A4668E802015346304621
:104F90003946FBF799FA013D06460F4626E7DDF84C
:104FA00018C0F8E80223FCE80201CDF818C0FBF7AE
:104FB0008BFA02460B4648465146FBF7CFF881462E
:104FC0008A460137029B9F4201DCB742E7DD48ABCE
:104FD00003EBC606C6E9009A013D0BE7A29B022B34
:104FE00009DC002B2CDC4ED0059B03F007000DF5EF
:104FF000197DBDE8F08FA29B032BF5D148AB1C4473
:105000002546DA46BAF1000F63DC2546DA46BAF1E6
:10501000010F7BDC00200021BBF1010F00F3938026
:10502000DDE94856DDE94A78009B002B40F092808C
:10503000049BC3E90056C3E90278C3E90401D3E73E
:105040005D460020002148AB1C44002D32DA009B55
:10505000002B35D0024601F10043049C0125C4E930
:10506000002302460B46DDE94801FBF775F848AC22
:10507000AB4528DA009B13B101F100431946049BAC
:10508000C3E90201B0E70020002148AB1C44BBF19A
:10509000000F08DA009B13B101F100431946049B8D
:1050A000C3E90001A0E774E80223FBF757F80BF10E
:1050B000FF3BECE774E80223FBF750F8013DC4E73F
:1050C00002460B46C9E7F4E90223FBF747F801352E
:1050D000CEE7D5E9002355E9028940464946CDE9A6
:1050E0000223FBF73BF802460B4606460F464046B6
:1050F0004946FBF731F8DDE90223FBF72FF865E8B5
:1051000002010AF1FF3AC5E900677BE7D5E9002310
:1051100055E9028940464946CDE90223FBF71EF8CE
:1051200002460B4606460F4640464946FBF714F832
:10513000DDE90223FBF712F865E802010AF1FF3A04
:10514000C5E9006763E774E80223FBF707F80BF192
:10515000FF3B61E7049B049A06F100441D605C601C
:105160009F6008F10043D36001F100431061536177
:105170003AE700BF000070410000703E00000000F0
:105180002DE9F0481646C1F30A5283468C460B4679
:1051900082B921F00043034335D02D4B0022FBF7A9
:1051A00093F92C4B83469E428C460DDA24A3D3E917
:1051B000002319E040F2FF77BA4209D10246FAF71C
:1051C000CDFF83468C461EE00B46C1F30A52363AA9
:1051D0004CF250318E420ADD1BA3D3E90023654611
:1051E00063F31E0529461C48FBF76EF9E9E740F218
:1051F000FE7132448A42EFDC002A08DD6FF31E5351
:1052000043EA0255AC4658466146BDE8F08812F1C3
:10521000350F09DA0CF0004343F0D27141F4B73195
:105220000E4841F01F01C1E736326FF31E5343EAC7
:105230000255584629460022094BD5E7AFF30080B6
:1052400059F3F8C21F6EA5019C7500883CE4377EB7
:1052500000005043B03CFFFF9C75008859F3F8C232
:105260000000903C000000002DE9F041C1F30A5716
:10527000A7F2FF36132E02460B460C460546804623
:1052800035DC002E17DA34A3D3E90023FAF766FFE2
:1052900000220023FBF7A8FB50B1002C57DA24F0C2
:1052A00000442C430025AC422D4C08BF4FF0004475
:1052B00023462A4624E02B4F374101EA070C5CEADB
:1052C000000C1DD024A3D3E90023FAF747FF0022E6
:1052D0000023FBF789FB0028EAD0002CBEBF4FF467
:1052E00080133341E418002524EA0704E0E7332E55
:1052F0000ADDB6F5806F03D1FAF730FF02460B46A0
:1053000010461946BDE8F0814FF0FF3CA7F2134765
:105310002CFA07F70742F3D00FA3D3E90023FAF7DB
:105320001DFF00220023FBF75FFB0028C0D0002CEC
:105330000ADA142E01D1013406E00123C6F1340645
:10534000B3401D444545F6D325EA0705B0E70025DF
:105350002C46ADE7AFF300809C7500883CE4377EB7
:105360000000F0BFFFFF0F00F8B500BFF8BC08BC9D
:105370009E467047F8B500BFF8BC08BC9E46704713
:105380005469636B3A20256C752C204C6F6F703A12
:1053900020256C752C204C6F6F6B75702056616CDE
:1053A00075653A2025750D0A000000000000000018
:1053B00000000000010203040607080900000000C5
:1053C0000102030402030405060708090A0B0C0D79
:1053D0000E0F10100102232D302B2000686C4C00A2
:1053E00065666745464700303132333435363738E5
:1053F0003941424344454600303132333435363743
:10540000383961626364656600000000FB21F93F82
:10541000FB2109407CD91240FB2119407A6A1F40C8
:105420007CD92240BBFD2540FB2129403A462C4037
:105430007A6A2F405C4731407CD932409C6B3440C3
:10544000BBFD3540DB8F3740FB2139401BB43A4070
:105450003A463C405AD83D407A6A3F404C7E4040F4
:105460005C4741406C1042407CD942408CA2434092
:105470009C6B4440AC344540BBFD4540CBC64640E8
:10548000DB8F4740EB584840FB21494083F9A2009D
:10549000444E6E00FC291500D1572700DD34F5007D
:1054A00062DBC0003C999500419043006351FE00CF
:1054B000BBDEAB00B761C5003A6E2400D24D42009E
:1054C0004906E00009EA2E001C92D100EB1DFE0007
:1054D00029B11C00E83EA700F535820044BB2E0030
:1054E0009CE98400B4267000417E5F00D6913900AB
:1054F000538339009CF439008B5F840028F9BD0088
:10550000F81F3B00DEFF97000F980500112FEF00FA
:105510000A5A8B006D1F6D00CF7E360009CB270025
:10552000464FB7009E663F002DEA5F00BA27750020
:10553000E5EBC7003D7BF100F739070092528A0086
:10554000FB6BEA001FB15F00085D8D003003560061
:105550007BFC4600F0AB6B0020BCCF0036F49A0019
:10556000E3A91D005E619100081BE60085996500B6
:10557000A0145F008D40680080D8FF0027734D00A5
:1055800006063100CA561500C9A873007BE2600008
:105590006B8CC0000000000000000040FB21F93FC0
:1055A000000000002D44743E000000809846F83C46
:1055B0000000006051CC783B00000080831BF03974
:1055C0000000004020257A38000000802282E33667
:1055D000000000001DF36935020000000300000018
:0855E0000400000006000000B9
:0455E8003501000881
:0455EC0011010008A1
:1055F00000127A001000000001000000000000000E
:1056000003000000980100201C00002000000000A2
:105610009801002000020020680200200000000025
:10562000000000000000000000000000000000007A
:10563000000000000000000000000000000000006A
:10564000000000000000000000000000000000005A
:08565000000000000000000052
:04000005080013A933
:00000001FF
