:020000040800F2
:1000000000500020B9260008092500081125000825
:1000100019250008212500082925000800000000F6
:100020000000000000000000000000003125000872
:100030003D2500080000000049250008552500085E
:1000400001270008012700080127000801270008F0
:1000500001270008012700080127000801270008E0
:1000600001270008012700080127000801270008D0
:1000700001270008012700080127000801270008C0
:1000800001270008012700080127000801270008B0
:1000900001270008012700080127000801270008A0
:1000A0000127000801270008012700080127000890
:1000B0000127000801270008012700080127000880
:1000C0000127000801270008012700080127000870
:1000D00001270008E912000801270008012700088D
:1000E0000127000801270008012700080000000080
:1000F0000000000000000000000000000000000000
:0C01000000000000000000005FF808F1A3
:1001100010B5054C237833B9044B13B10448AFF341
:1001200000800123237010BD240200200000000085
:100130002C72000808B5034B1BB103490348AFF309
:10014000008008BD00000000280200202C7200087A
:10015000034613F8012B002AFBD1181A0138704707
:1001600081F0004102E000BF83F0004330B54FEA68
:1001700041044FEA430594EA050F08BF90EA020FD5
:100180001FBF54EA000C55EA020C7FEA645C7FEA68
:10019000655C00F0E2804FEA5454D4EB5555B8BF8B
:1001A0006D420CDD2C4480EA020281EA030382EAFC
:1001B000000083EA010180EA020281EA0303362D8E
:1001C00088BF30BD11F0004F4FEA01314FF4801C61
:1001D0004CEA113102D0404261EB410113F0004F73
:1001E0004FEA03334CEA133302D0524263EB43032A
:1001F00094EA050F00F0A780A4F10104D5F1200EC8
:100200000DDB02FA0EFC22FA05F2801841F1000122
:1002100003FA0EF2801843FA05F359410EE0A5F1F6
:1002200020050EF1200E012A03FA0EFC28BF4CF027
:10023000020C43FA05F3C01851EBE37101F00045DD
:1002400007D54FF0000EDCF1000C7EEB00006EEBEA
:100250000101B1F5801F1BD3B1F5001F0CD3490874
:100260005FEA30004FEA3C0C04F101044FEA4452CB
:1002700012F5800F80F09A80BCF1004F08BF5FEA52
:10028000500C50F1000041EB045141EA050130BD32
:100290005FEA4C0C404141EB0101013C28BFB1F544
:1002A000801FE9D291F0000F04BF01460020B1FA8F
:1002B00081F308BF2033A3F10B03B3F120020CDA62
:1002C0000C3208DD02F1140CC2F10C0201FA0CF040
:1002D00021FA02F10CE002F11402D8BFC2F1200CA5
:1002E00001FA02F120FA0CFCDCBF41EA0C0190405B
:1002F000E41AA2BF01EB0451294330BD6FEA0404A4
:100300001F3C1CDA0C340EDC04F11404C4F120028E
:1003100020FA04F001FA02F340EA030021FA04F3A0
:1003200045EA030130BDC4F10C04C4F1200220FAF7
:1003300002F001FA04F340EA0300294630BD21FA35
:1003400004F0294630BD94F0000F83F4801306BFFB
:1003500081F480110134013D4EE77FEA645C18BFEF
:100360007FEA655C29D094EA050F08BF90EA020F86
:1003700005D054EA000C04BF1946104630BD91EA7E
:10038000030F1EBF0021002030BD5FEA545C05D181
:100390004000494128BF41F0004130BD14F58004C0
:1003A0003CBF01F5801130BD01F0004545F0FE4134
:1003B00041F470014FF0000030BD7FEA645C1ABF69
:1003C000194610467FEA655C1CBF0B46024650EAA0
:1003D000013406BF52EA033591EA030F41F40021CC
:1003E00030BD00BF90F0000F04BF0021704730B552
:1003F0004FF4806404F132044FF000054FF0000127
:1004000050E700BF90F0000F04BF0021704730B5E7
:100410004FF4806404F1320410F0004548BF4042BC
:100420004FF000013EE700BF42004FEAE2014FEA11
:1004300031014FEA02701FBF12F07F4393F07F4FEC
:1004400081F06051704732F07F4208BF704793F0EF
:100450007F4F04BF41F40021704730B54FF4607402
:1004600001F0004521F000411CE700BF50EA010205
:1004700008BF704730B54FF000050AE050EA0102AE
:1004800008BF704730B511F0004502D5404261EB1E
:1004900041014FF4806404F132045FEA915C3FF45F
:1004A000D8AE4FF003025FEADC0C18BF03325FEAFC
:1004B000DC0C18BF033202EBDC02C2F1200300FAAD
:1004C00003FC20FA02F001FA03FE40EA0E0021FAD2
:1004D00002F11444BDE600BF70B54FF0FF0C4CF4C0
:1004E000E06C1CEA11541DBF1CEA135594EA0C0F72
:1004F00095EA0C0F00F0DEF82C4481EA030621EAAD
:100500004C5123EA4C5350EA013518BF52EA0335E7
:1005100041F4801143F4801338D0A0FB02CE4FF099
:100520000005E1FB02E506F00042E0FB03E54FF0C9
:100530000006E1FB03569CF0000F18BF4EF0010EC1
:10054000A4F1FF04B6F5007F64F5407404D25FEABD
:100550004E0E6D4146EB060642EAC62141EA555170
:100560004FEAC52040EA5E504FEACE2EB4F1FD0CB2
:1005700088BFBCF5E06F1ED8BEF1004F08BF5FEA30
:10058000500E50F1000041EB045170BD06F00046E2
:1005900046EA010140EA020081EA0301B4EB5C048F
:1005A000C2BFD4EB0C0541EA045170BD41F4801187
:1005B0004FF0000E013C00F3AB8014F1360FDEBFAC
:1005C000002001F0004170BDC4F10004203C35DA88
:1005D0000C341BDC04F11404C4F1200500FA05F30B
:1005E00020FA04F001FA05F240EA020001F00042AC
:1005F00021F0004110EBD37021FA04F642EB060122
:100600005EEA430E08BF20EAD37070BDC4F10C044B
:10061000C4F1200500FA04F320FA05F001FA04F20F
:1006200040EA020001F0004110EBD37041F10001FB
:100630005EEA430E08BF20EAD37070BDC4F1200506
:1006400000FA05F24EEA020E20FA04F301FA05F26E
:1006500043EA020321FA04F001F0004121FA04F216
:1006600020EA020000EBD3705EEA430E08BF20EAE6
:10067000D37070BD94F0000F0FD101F00046400020
:1006800041EB010111F4801F08BF013CF7D041EAA2
:10069000060195F0000F18BF704703F000465200A6
:1006A00043EB030313F4801F08BF013DF7D043EA77
:1006B0000603704794EA0C0F0CEA135518BF95EA2D
:1006C0000C0F0CD050EA410618BF52EA4306D1D1B4
:1006D00081EA030101F000414FF0000070BD50EAD3
:1006E000410606BF1046194652EA430619D094EA5D
:1006F0000C0F02D150EA013613D195EA0C0F05D147
:1007000052EA03361CBF104619460AD181EA03019A
:1007100001F0004141F0FE4141F470014FF0000052
:1007200070BD41F0FE4141F4780170BD70B54FF0ED
:10073000FF0C4CF4E06C1CEA11541DBF1CEA13556D
:1007400094EA0C0F95EA0C0F00F0A7F8A4EB05044F
:1007500081EA030E52EA03354FEA013100F0888046
:100760004FEA03334FF0805545EA131343EA12630F
:100770004FEA022245EA111545EA10654FEA0026C4
:100780000EF000419D4208BF964244F1FD0404F57D
:10079000407402D25B084FEA3202B61A65EB0305D9
:1007A0005B084FEA32024FF480104FF4002CB6EB96
:1007B000020E75EB030E22BFB61A754640EA0C0016
:1007C0005B084FEA3202B6EB020E75EB030E22BF56
:1007D000B61A754640EA5C005B084FEA3202B6EB97
:1007E000020E75EB030E22BFB61A754640EA9C0056
:1007F0005B084FEA3202B6EB020E75EB030E22BF26
:10080000B61A754640EADC0055EA060E18D04FEAE3
:10081000051545EA16754FEA06164FEAC30343EA83
:1008200052734FEAC2025FEA1C1CC0D111F4801F50
:100830000BD141EA00014FF000004FF0004CB6E749
:1008400011F4801F04BF01430020B4F1FD0C88BFE8
:10085000BCF5E06F3FF6AFAEB5EB030C04BFB6EBF3
:10086000020C5FEA500C50F1000041EB045170BDE6
:100870000EF0004E4EEA113114EB5C04C2BFD4EB13
:100880000C0541EA045170BD41F480114FF0000E97
:10089000013C90E645EA060E8DE60CEA135594EA13
:1008A0000C0F08BF95EA0C0F3FF43BAF94EA0C0F16
:1008B0000AD150EA01347FF434AF95EA0C0F7FF48B
:1008C00025AF104619462CE795EA0C0F06D152EADF
:1008D00003353FF4FDAE1046194622E750EA4106C3
:1008E00018BF52EA43067FF4C5AE50EA41047FF4D4
:1008F0000DAF52EA43057FF4EBAE12E74FF0FF3C39
:1009000006E000BF4FF0010C02E000BF4FF0010C09
:100910004DF804CD4FEA410C7FEA6C5C4FEA430C82
:1009200018BF7FEA6C5C1BD001B050EA410C0CBFD1
:1009300052EA430C91EA030F02BF90EA020F002033
:10094000704710F1000F91EA030F58BF994208BF9A
:1009500090422CBFD8176FEAE37040F00100704757
:100960004FEA410C7FEA6C5C02D150EA013C07D1AE
:100970004FEA430C7FEA6C5CD6D152EA033CD3D0F9
:100980005DF8040B704700BF8446104662468C46F3
:100990001946634600E000BF01B5FFF7B7FF002826
:1009A00048BF10F1000F01BD4DF808EDFFF7F4FF4F
:1009B0000CBF012000205DF808FB00BF4DF808EDDA
:1009C000FFF7EAFF34BF012000205DF808FB00BFFD
:1009D0004DF808EDFFF7E0FF94BF012000205DF81F
:1009E00008FB00BF4DF808EDFFF7CEFF94BF0120D4
:1009F00000205DF808FB00BF4DF808EDFFF7C4FFCD
:100A000034BF012000205DF808FB00BF4FEA410C15
:100A10007FEA6C5C02D150EA013C0AD14FEA430CF8
:100A20007FEA6C5C02D152EA033C02D14FF0000035
:100A300070474FF0010070474FEA410212F5001273
:100A400015D211D56FF47873B3EB625212D94FEA15
:100A5000C12343F0004343EA505311F0004F23FAFF
:100A600002F018BF404270474FF00000704750EA54
:100A7000013005D111F0004008BF6FF00040704711
:100A80004FF00000704700BF80F0004002E000BF60
:100A900081F0004142001FBF5FEA410392EA030F69
:100AA0007FEA226C7FEA236C6AD04FEA1262D2EBB3
:100AB0001363C1BFD218414048404140B8BF5B42B8
:100AC000192B88BF704710F0004F40F4000020F051
:100AD0007F4018BF404211F0004F41F4000121F067
:100AE0007F4118BF494292EA030F3FD0A2F10102B1
:100AF00041FA03FC10EB0C00C3F1200301FA03F1EF
:100B000000F0004302D5494260EB4000B0F5000F11
:100B100013D3B0F1807F06D340084FEA310102F1D0
:100B20000102FE2A51D2B1F1004F40EBC25008BF82
:100B300020F0010040EA03007047490040EB00004C
:100B4000013A28BFB0F5000FEDD2B0FA80FCACF14D
:100B5000080CB2EB0C0200FA0CF0AABF00EBC2507A
:100B600052421843BCBFD0401843704792F0000F68
:100B700081F4000106BF80F400000132013BB5E7BB
:100B80004FEA41037FEA226C18BF7FEA236C21D031
:100B900092EA030F04D092F0000F08BF0846704796
:100BA00090EA010F1CBF0020704712F07F4F04D164
:100BB000400028BF40F00040704712F100723CBF77
:100BC00000F50000704700F0004343F0FE4040F4A1
:100BD000000070477FEA226216BF08467FEA23635F
:100BE0000146420206BF5FEA412390EA010F40F44A
:100BF000800070474FF0000304E000BF10F0004396
:100C000048BF40425FEA000C08BF704743F096437C
:100C100001464FF000001CE050EA010208BF704797
:100C20004FF000030AE000BF50EA010208BF70471E
:100C300011F0004302D5404261EB41015FEA010C33
:100C400002BF84460146002043F0B64308BFA3F12B
:100C50008053A3F50003BCFA8CF2083AA3EBC2530D
:100C600010DB01FA02FC634400FA02FCC2F120022C
:100C7000BCF1004F20FA02F243EB020008BF20F063
:100C80000100704702F1200201FA02FCC2F12002C9
:100C900050EA4C0021FA02F243EB020008BF20EABE
:100CA000DC7070474FF0FF0C1CEAD0521EBF1CEAEC
:100CB000D15392EA0C0F93EA0C0F6FD01A4480EADA
:100CC000010C400218BF5FEA41211ED04FF00063C3
:100CD00043EA501043EA5111A0FB01310CF00040EF
:100CE000B1F5000F3EBF490041EAD3715B0040EA15
:100CF000010062F17F02FD2A1DD8B3F1004F40EBE5
:100D0000C25008BF20F00100704790F0000F0CF0B7
:100D1000004C08BF49024CEA502040EA51207F3A7B
:100D2000C2BFD2F1FF0340EAC250704740F4000056
:100D30004FF00003013A5DDC12F1190FDCBF00F047
:100D400000407047C2F10002410021FA02F1C2F1F5
:100D5000200200FA02FC5FEA310040F1000053EA91
:100D60004C0308BF20EADC70704792F0000F00F0DF
:100D7000004C02BF400010F4000F013AF9D040EAE5
:100D80000C0093F0000F01F0004C02BF490011F479
:100D9000000F013BF9D041EA0C018FE70CEAD15377
:100DA00092EA0C0F18BF93EA0C0F0AD030F0004CF7
:100DB00018BF31F0004CD8D180EA010000F00040AB
:100DC000704790F0000F17BF90F0004F084691F069
:100DD000000F91F0004F14D092EA0C0F01D14202A3
:100DE0000FD193EA0C0F03D14B0218BF084608D16C
:100DF00080EA010000F0004040F0FE4040F40000B6
:100E0000704740F0FE4040F4400070474FF0FF0C48
:100E10001CEAD0521EBF1CEAD15392EA0C0F93EA8F
:100E20000C0F69D0A2EB030280EA010C49024FEAE1
:100E3000402037D04FF0805343EA111143EA10139A
:100E40000CF000408B4238BF5B0042F17D024FF452
:100E5000000C8B4224BF5B1A40EA0C00B3EB510F2D
:100E600024BFA3EB510340EA5C00B3EB910F24BF16
:100E7000A3EB910340EA9C00B3EBD10F24BFA3EB9B
:100E8000D10340EADC001B0118BF5FEA1C1CE0D163
:100E9000FD2A3FF650AF8B4240EBC25008BF20F016
:100EA000010070470CF0004C4CEA50207F32C2BF6A
:100EB000D2F1FF0340EAC250704740F400004FF007
:100EC0000003013A37E792F0000F00F0004C02BF38
:100ED000400010F4000F013AF9D040EA0C0093F002
:100EE000000F01F0004C02BF490011F4000F013B5C
:100EF000F9D041EA0C0195E70CEAD15392EA0C0FC4
:100F000008D142027FF47DAF93EA0C0F7FF470AFFB
:100F1000084676E793EA0C0F04D14B023FF44CAF3E
:100F200008466EE730F0004C18BF31F0004CCAD1D3
:100F300030F000427FF45CAF31F000437FF43CAF0F
:100F40005FE700BF7BB972B90029BEBF00204FF038
:100F5000004106E008BF00281CBF6FF000414FF0C1
:100F6000FF3000F0BFB9ADF1080C6DE904CE0029E7
:100F700009DB002B1ADB00F035F8DDF804E0DDE9D1
:100F8000022304B07047404261EB4101002B1BDBA0
:100F900000F028F8DDF804E0DDE9022304B0404267
:100FA00061EB4101524263EB43037047524263EBF2
:100FB000430300F017F8DDF804E0DDE9022304B094
:100FC000404261EB41017047524263EB430300F042
:100FD00009F8DDF804E0DDE9022304B0524263EBD6
:100FE000430370472DE9F047089D8E460446884626
:100FF000002B4AD18A42174662D9B2FA82F64EB124
:10100000C6F1200301FA06F820FA03F3B74043EAD9
:101010000808B4404FEA174EB8FBFEF11FFA87FCF0
:101020000EFB118801FB0CF2230C43EA08439A42A1
:1010300009D9FB1801F1FF3080F0EB809A4240F2B1
:10104000E88002393B449A1AB2FBFEF00EFB1022F4
:1010500000FB0CFCA3B243EA02439C4509D9FB18F0
:1010600000F1FF3280F0D7809C4540F2D4803B44B1
:10107000023840EA01400021A3EB0C031DB100221D
:10108000F340C5E90032BDE8F0878B4205D90DB1C8
:10109000C5E9000100210846F5E7B3FA83F100290C
:1010A00046D1734502D3824200F20881841A6EEB66
:1010B000030201209046002DE5D0C5E90048E2E793
:1010C000002A00F09180B2FA82F6002E40F0A5804E
:1010D0008A1A0121030C4FEA174E80B2BCB2B2FB50
:1010E000FEFC0EFB1C2243EA024304FB0CF29A4274
:1010F00007D9FB180CF1FF3802D29A4200F2E380C4
:10110000C4469B1AB3FBFEF20EFB123302FB04F43F
:1011100040EA03439C4207D9FB1802F1FF3002D298
:101120009C4200F2CD8002461B1B42EA0C40A5E720
:10113000C1F120068B4022FA06F71F432EFA06FA69
:101140004FEA1749BAFBF9F80EFA01FE20FA06F346
:1011500009FB18AA1FFA87FC43EA0E0300FA01FEF6
:1011600008FB0CF01C0C44EA0A44A04202FA01F20B
:101170000AD93C1908F1FF3A80F09E80A04240F263
:101180009B80A8F102083C44241A98B2B4FBF9F3FE
:1011900009FB134403FB0CFC40EA0444A44509D9B1
:1011A0003C1903F1FF3080F08580A44540F2828035
:1011B000023B3C4443EA0840A4EB0C04A0FB028C35
:1011C00064454346E14664D361D05DB1BEEB0302A2
:1011D00064EB090404FA06F622FA01F31E43CC403C
:1011E000C5E9006400214EE7B1FBF2FC010C41EAC5
:1011F0000E4180B240EA01423B46B1FBF7F138466E
:101200003C46B846BE462026A2EB080241EA0C4105
:1012100065E7014617E710462BE7C6F120012EFAD5
:1012200001FCB7400EFA06FE20FA01F141EA0E0178
:101230004FEA174EBCFBFEF8BCB20EFB18CC08FB05
:1012400004F90A0C42EA0C42B04091454FEA1043BF
:1012500080B23ED9BA1808F1FF3C01D291451FD89F
:10126000A2EB0902B2FBFEF909FB04F80EFB192AF6
:101270008AB242EA0A42424529D2BA1809F1FF313C
:10128000C2D24245C0D2A9F102013A44BCE7C645E8
:101290009BD2B8EB02036CEB070C0138E14694E7F4
:1012A000A7EB09094A44B2FBFEF9A8F1020C09FBBD
:1012B00004F8DBE703467DE7D04665E70846FAE633
:1012C0003B44023A30E7ACF1020C3B4419E7494693
:1012D0009AE7A2EB0902B2FBFEF9C44609FB04F847
:1012E000C4E700BF704700BF80B400AF1A4B1B6853
:1012F0001B6803F08003002B2AD0184BB3F802318F
:101300009AB2164BB3F800319BB29A4218D0134BE5
:10131000B3F802319BB21A46104B9A5C0E4B1B6815
:101320005A600E4BB3F802319BB201335A42DBB222
:10133000D2B258BF53429AB2084BA3F8022107E039
:10134000054B1B68DA68044B1B6822F08002DA60E8
:1013500000BFBD4680BC704794020020E802002018
:1013600080B487B000AFF860B9607A60FB68012B89
:1013700005D0FB68022B02D04FF0FF3335E000238D
:101380007B6125E01B4BB3F800319BB201335A421D
:10139000DBB2D2B258BF53427B82164BB3F8023154
:1013A0009BB27A8A9A4202D14FF0FF331DE07B69EB
:1013B000BA6813440F4AB2F8002192B219780D4B63
:1013C00099540C4A7B8AA2F800317B6901337B6116
:1013D0007A697B689A42D5DB074B1B68DA68064B53
:1013E0001B6842F08002DA607B6818461C37BD46F5
:1013F00080BC7047E80200209402002080B586B0CF
:1014000004AF0023BB710A23029301230193BB1D88
:10141000009301236B22D021064801F0E7FD03462B
:10142000FB71FB791946044803F01AFF00BF083727
:10143000BD4680BD400200204872000880B58AB0D9
:1014400004AF786007F1080300221A605A609A60BE
:101450009A8100BF374802F037F90346202BF9D1B3
:101460000A2302930E23019307F10803009301233B
:101470003B22D0212F4801F0B3FE0346002B0FD0B2
:101480002D4B1B692C4A43F4800313612A4B1B69C3
:10149000294A23F480031361264801F063FC45E0E8
:1014A0003B7A1BB21B021AB27B7A1BB213431AB2ED
:1014B0007B681A80BB7A1BB21B021AB2FB7A1BB282
:1014C00013431AB27B685A803B7B1BB21B021AB2D1
:1014D0007B7B1BB213431AB27B689A80BB7B1BB227
:1014E0001B021AB2FB7B1BB213431AB27B689A81B0
:1014F0003B7C1BB21B021AB27B7C1BB213431AB299
:101500007B68DA80BB7C1BB21B021AB2FB7C1BB26D
:1015100013431AB27B681A813B7D1BB21B021AB2BD
:101520007B7D1BB213431AB27B685A811837BD46C4
:1015300080BD00BF400200200010024080B582B094
:1015400000AF786039607B68B3F900301846FFF768
:1015500055FB03464FF08D411846FFF757FC0346F5
:101560001A463B681A607B68B3F902301846FFF7E9
:1015700045FB03464FF08D411846FFF747FC0346F5
:101580001A463B685A607B68B3F904301846FFF787
:1015900035FB03464FF08D411846FFF737FC0346F5
:1015A0001A463B689A607B68B3F90C301846FFF71F
:1015B00025FB03461E491846FFF728FC03461D4934
:1015C0001846FFF767FA03461A463B689A617B683C
:1015D000B3F906301846FFF711FB034616491846C3
:1015E000FFF714FC03461A463B68DA607B68B3F9E0
:1015F00008301846FFF702FB03460F491846FFF76D
:1016000005FC03461A463B681A617B68B3F90A3049
:101610001846FFF7F3FA034607491846FFF7F6FBAB
:1016200003461A463B685A6100BF0837BD4680BD75
:101630000000AA43B81E12420000034380B586B0E2
:1016400004AFB623FB716423029301230193FB1DB6
:1016500000930123E022EC21124801F0C7FC052091
:1016600001F0B2F82723BB71642302930123019395
:10167000BB1D00930123F422EC210A4801F0B6FCC3
:1016800020237B7164230293012301937B1D00932C
:101690000123F522EC21034801F0A8FC00BF083724
:1016A000BD4680BD4002002080B58EB004AF78609A
:1016B000544B1B6814337B62642302930123019310
:1016C00007F10B0300930123F322EC214E4801F0B4
:1016D00087FDFB7A03F00103002B04D0494B1B6804
:1016E0007A6A9A42E8D8642302931823019307F197
:1016F0000C03009301238822EC21434801F070FD84
:101700007B7B1BB21B021AB23B7B1BB213431BB287
:101710009AB27B681A80FB7B1BB21B021AB2BB7B9E
:101720001BB213431AB27B685A807B7C1BB21B022C
:101730001AB23B7C1BB213431AB27B689A80FB7CC3
:101740001BB21B021AB2BB7C1BB213431BB29AB270
:101750007B68DA807B7D1BB21B021AB23B7D1BB219
:1017600013431AB27B681A81FB7D1BB21B021AB2AB
:10177000BB7D1BB213431AB27B685A817B7E1BB2BE
:101780001B021AB23B7E1BB213431AB27B689A81CA
:10179000FB7E1BB21B021AB2BB7E1BB213431AB2F2
:1017A0007B68DA817B7F1BB21B021AB23B7F1BB2C4
:1017B00013431AB27B681A82FB7F1BB21B021AB258
:1017C000BB7F1BB213431AB27B685A8297F8213051
:1017D0001BB21B021AB297F820301BB213431AB285
:1017E0007B689A8297F823301BB21B021AB297F8D3
:1017F00022301BB213431AB27B68DA8200BF28374B
:10180000BD4680BD480400204002002080B588B05D
:1018100004AF786000BF204801F056FF0346202B3C
:10182000F9D1642302930623019307F1080300937F
:101830000123F722EC21184801F0D2FC0346002BCB
:101840000FD0164B1B69154A43F480031361134BE9
:101850001B69124A23F4800313610F4801F082FAD6
:1018600017E03B7A1A037B7A1B011343BA7A1209F9
:10187000D2B213431A467B681A60FB7A1A033B7B89
:101880001B0113437A7B1209D2B213431A467B68B9
:101890005A601037BD4680BD400200200010024053
:1018A0002DE9B04FCCB000AFC7F80C01C7F8081154
:1018B000C7F80421D7F808315B68DA08D7F80C318B
:1018C0001B885B00D21AD7F80C31B3F9023002FB47
:1018D00003F3DB0AC7F82C31D7F808315B681A0923
:1018E000D7F80C311B88D11AD7F808315B681A0970
:1018F000D7F80C311B88D31A01FB03F31A0BD7F866
:101900000C31B3F9043002FB03F39B0BC7F8283109
:10191000D7F82C21D7F828311A44AF4B1A60AE4BB8
:101920001A6813469B00134480331A12D7F8043107
:101930005A60A94B1B68A3F5FA33DA17BB64FA6443
:10194000D7E91223C7E94823D7F82421D7F8203153
:1019500003FB02F1D7F82421D7F8203102FB03F36F
:10196000CA18D7F82031A3FB034553191D46D7F8F1
:101970000C31B3F910301BB2DA17C7F8C030C7F812
:10198000C420D7E93001034603FB05F20B4604FBF4
:1019900003F313440246A4FB02894B449946C7E96A
:1019A0004689C7E94689D7F80C31B3F90E301BB226
:1019B000DA17C7F8B830C7F8BC20D7F82031D7E914
:1019C0002E452A4602FB03F2D7F82431214601FBBB
:1019D00003F31A44D7F820312146A3FB01AB02EBF5
:1019E0000B039B464FF000004FF000014FEA4B41C4
:1019F00041EADA314FEA4A40D7E9462314183C64F9
:101A00004B417B64D7E91034C7E94634D7F80C3131
:101A1000B3F90C301BB2DA17C7F8B030C7F8B420EE
:101A20004FF000004FF00001D7F8B030D90000208F
:101A3000D7E946231418BC634B41FB63D7E90E3446
:101A4000C7E94634D7F82421D7F8203103FB02F147
:101A5000D7F82421D7F8203102FB03F3CA18D7F8AE
:101A60002031A3FB0331C7F8FC10C7F8F830D7F8D2
:101A7000FC30D318C7F8FC30D7F80C31B3F90A3072
:101A80001BB2DA17C7F8A830C7F8AC20D7E93E3444
:101A90002246D7E92A89414601FB02F24D46184603
:101AA0002146034603FB05F3134402464146A2FBCD
:101AB0000121C7F8F410C7F8F020D7F8F420134438
:101AC000C7F8F4304FF000004FF00001D7E93C4573
:101AD0002346180A2A4640EA02602B461912D7F814
:101AE0000C31B3F908301BB2DA17C7F8A030C7F8C9
:101AF000A420D7F82031D7E928894A4602FB03F20F
:101B0000D7F82431444604FB03F31A44D7F82031B4
:101B10004446A3FB0434C7F8EC40C7F8E830D7F8D4
:101B2000EC30D318C7F8EC304FF000024FF0000350
:101B3000D7E93A894C462303C44643EA1C5344463A
:101B4000220384183C6341EB03037B63D7E90C3425
:101B5000C7E94834D7E9482303F50041C7F89C108A
:101B6000C7F89820D7F80C31DB889BB20022C7F861
:101B70009030C7F89420D7E926342246D7E9248943
:101B8000414601FB02F24D4618462146034603FB3F
:101B900005F3134402464146A2FB0121C7F8E410B5
:101BA000C7F8E020D7F8E4201344C7F8E4304FF03A
:101BB00000024FF00003D7E9384529464A1029466C
:101BC000CB17C7E94823D7E94823134306D1D7F8F1
:101BD000043100221A6056E1E0020020D7F80831F3
:101BE0001B680022C7F88830C7F88C200023D7E98B
:101BF00022120846D0F58010B86263EB0203FB6244
:101C0000D7E90A34C7E94434D7E944234FF0000048
:101C10004FF00001D90741EA5201D007D7E9462326
:101C2000841AC7F8804061EB0303C7F88430D7E912
:101C3000204522462B46911839625B417B62D7E9E9
:101C4000082321465118B96129464B41FB614FF0E9
:101C500000024FF00003D7E9068949468B0141464F
:101C600043EA916341468A014146891839614946F0
:101C700043EB010179614FF000024FF00003D7E917
:101C8000048949468B00C44643EA9C7341468A0056
:101C900010461946034622469B18BB600B462A464F
:101CA00042EB0303FB604FF000024FF00003D7E963
:101CB000028949468B00C44643EA9C7341468A0028
:101CC00010461946034622469B18BB672B460A4618
:101CD00042EB0303FB67D7E94823D7E91E01FFF76F
:101CE00031F902460B46C7E94423D7F80C31B3F962
:101CF00016301BB2DA173B677A67D7E944234FF0F7
:101D000000004FF00001500B40EAC3405913D7E9DF
:101D10001C452B4600FB03F2234603FB01F313444F
:101D20002246A2FB0021C7F8DC10C7F8D820D7F85C
:101D3000DC201344C7F8DC30D7E944234FF000001F
:101D40004FF00001500B40EAC3405913D7E9364524
:101D50002B4600FB03F2234603FB01F31344224608
:101D6000A2FB0021C7F8D410C7F8D020D7F8D420A0
:101D70001344C7F8D4304FF000024FF00003D7E906
:101D8000344521464A0E204629460C4642EAC412F2
:101D90004B16C7E94823D7F80C31B3F914301BB2FE
:101DA000DA17BB66FA66D7F81031D7E91A452A4622
:101DB00002FB03F2D7F81431214601FB03F313446D
:101DC000D7F810212146A2FB0121C7F8CC10C7F893
:101DD000C820D7F8CC201344C7F8CC304FF000020D
:101DE0004FF00003D7E932452146CA0C2046294668
:101DF0000C4642EA4432CB14C7E94623D7E94401F2
:101E0000D7E9482384183C6641EB03037B66D7E996
:101E10004623D7E9184521468918B965294643EB79
:101E20000101F9654FF000004FF00001D7E91645B8
:101E30002346180A2A4640EA02602B461912D7F8B0
:101E40000C31B3F912301BB2DA173B657A654FF0EB
:101E500000024FF00003D7E914894C462301C44621
:101E600043EA1C734446220184183C6041EB03039F
:101E70007B60D7E90034C7E94434D7F810311A0A37
:101E8000D7F804311A6007F59877BD46BDE8B08FE2
:101E900080B400AF0B4B1B78002B04D00A4B4FF4DF
:101EA00000521A6103E0084B4FF000521A61054BD3
:101EB0001B7883F00103DAB2024B1A7000BFBD46F3
:101EC00080BC704740040020001001402DE9B04F55
:101ED00096B00CAF78623962FA61304B1B681946D4
:101EE0002F4803F0BDF97B6A1B681846FEF79CFA81
:101EF000C7E904017B6A5B681846FEF795FA8046DD
:101F000089467B6A9B681846FEF78EFA82468B46A6
:101F10007B6ADB681846FEF787FAC7E902017B6A2D
:101F20001B691846FEF780FAC7E900017B6A5B6906
:101F30001846FEF779FA04460D467B6A9B691846F7
:101F4000FEF772FA02460B46CDE90A23CDE90845B1
:101F5000D7E90034CDE90634D7E90234CDE90434B9
:101F6000CDE902ABCDE90089D7E904230D4803F0A0
:101F700077F93B6A19683B6A5B681A460A4803F0BE
:101F80006FF9FB691968FB695B681A46074803F03B
:101F900067F900BF2837BD46BDE8B08F4804002070
:101FA0006872000880720008B8720008E4720008C5
:101FB00080B400AF00BF064B1B78DBB2002BFAD118
:101FC000034B01221A7000BFBD4680BC704700BFA2
:101FD000E402002080B400AF034B00221A7000BF5F
:101FE000BD4680BC704700BFE402002080B500AF52
:101FF000FFF7DEFF0548FFF721FAFFF7EBFF044983
:102000000248FFF79BFA00BF80BD00BFEC03002031
:10201000FC03002080B500AFFFF7CAFF0348FFF7BD
:10202000F5FBFFF7D7FF00BF80BD00BF30040020E5
:1020300080B500AF034A04490448FFF731FC00BFF4
:1020400080BD00BF380400203004002018040020A8
:1020500080B500AF034A04490448FFF737FF00BFCB
:1020600080BD00BF3804002030040020FC030020A5
:1020700080B500AFFFF70CFF00BF80BD80B582B018
:1020800000AF1E4B1B681E4A136000237B602DE0CF
:102090001C4A7B681B0113440C331B78012B22D193
:1020A000184A7B681B01134408331A68144B1B68D9
:1020B0009A4218D8134A7B681B01134408331B68E3
:1020C00010497A6812010A44043212881A440D49F0
:1020D0007B681B010B4408331A600A4A7B681B01AA
:1020E00013441B6898477B6801337B607B68042B33
:1020F000CEDD00BF00BF0837BD4680BD48040020CC
:10210000DC0200200000002080B500AF00F0FAFAE9
:1021100000F02AF800F0D4F800F0A8F800F06AF80F
:102120000E4803F005F94FF47A7000F04DFBFFF70D
:1021300065F9FFF783FA0A48FFF7B6FA084B1B88E0
:102140001946074BDB881A46054BB3F9083005489A
:1021500003F086F8FFF792FFFCE700BF0873000862
:10216000180400201C73000880B590B000AF07F180
:10217000180328220021184603F0BAF93B1D00225B
:102180001A605A609A60DA601A610123BB614FF4E9
:102190008033FB6100233B620123BB6202237B632C
:1021A0004FF48033BB634FF4E013FB6307F1180374
:1021B000184601F04BFE0346002B01D000F0D8F882
:1021C0000F237B600223BB600023FB604FF480631E
:1021D0003B6100237B613B1D0221184602F0B8F8E9
:1021E0000346002B01D000F0C3F800BF4037BD46C6
:1021F00080BD000080B500AF184B194A1A60174B1C
:10220000184A5A60154B00229A60144B0022DA607B
:10221000124B4FF480421A61104B00225A610F4B4F
:1022200000229A610D4B0022DA610C4B00221A62E7
:102230000D4B1B690C4A43F4800313610A4B1B6965
:10224000094A23F480031361044800F08BFD034620
:10225000002B01D000F08CF800BF80BD40020020B0
:1022600000580040A08601000010024080B500AF79
:10227000114B124A1A60104B4FF4E1325A600E4B68
:1022800000229A600C4B0022DA600B4B00221A618C
:10229000094B0C225A61084B00229A61064B00221E
:1022A000DA61054802F0E2F90346002B01D000F0A4
:1022B0005FF800BF80BD00BF9402002000380140DD
:1022C00080B588B000AF07F1100300221A605A6091
:1022D0009A60DA60244B9B69234A43F010039361B0
:1022E000214B9B6903F01003FB60FB681E4B9B694D
:1022F0001D4A43F0200393611B4B9B6903F02003AD
:10230000BB60BB68184B9B69174A43F00803936195
:10231000154B9B6903F008037B607B68124B9B693C
:10232000114A43F0040393610F4B9B6903F00403CC
:102330003B603B6801224FF400510C4800F0FAFC6E
:102340004FF400533B6111237B610023BB610223E7
:10235000FB6107F110031946044800F067FB00BF5A
:102360002037BD4680BD00BF001002400010014074
:1023700080B400AF72B600BF00BFFDE780B485B087
:1023800000AF154B9B69144A43F001039361124B54
:102390009B6903F00103BB60BB680F4BDB690E4A0E
:1023A00043F08053D3610C4BDB6903F080537B60B7
:1023B0007B680A4B5B68FB60FB6823F0E063FB60B3
:1023C000FB6843F00073FB60044AFB68536000BF86
:1023D0001437BD4680BC7047001002400000014029
:1023E00080B588B000AF786007F1100300221A6052
:1023F0005A609A60DA607B681B68164A934224D15F
:10240000154B9B69144A43F008039361124B9B6977
:1024100003F00803FB60FB684FF440633B61122349
:102420007B610323FB6107F1100319460B4800F0A1
:10243000FDFA094BDB69084A43F48003D361064B7C
:10244000DB6903F48003BB60BB6800BF2037BD4677
:1024500080BD00BF0058004000100240000C014049
:1024600080B588B000AF786007F1100300221A60D1
:102470005A609A60DA607B681B68204A934239D1BF
:102480001F4B9B691E4A43F4804393611C4B9B691D
:1024900003F48043FB60FB68194B9B69184A43F0C7
:1024A00004039361164B9B6903F00403BB60BB6894
:1024B0004FF400733B6102237B610323FB6107F14F
:1024C000100319460F4800F0B1FA4FF480633B61E6
:1024D00000237B610023BB6107F110031946094803
:1024E00000F0A4FA00220021252000F068FA25203F
:1024F00000F081FA00BF2037BD4680BD00380140A2
:10250000001002400008014080B400AF00BFFDE7AA
:1025100080B400AF00BFFDE780B400AF00BFFDE7AF
:1025200080B400AF00BFFDE780B400AF00BFFDE79F
:1025300080B400AF00BFBD4680BC704780B400AF20
:1025400000BFBD4680BC704780B400AF00BFBD4631
:1025500080BC704780B500AF00F01AF900BF80BDA5
:1025600080B400AF01231846BD4680BC704780B5DB
:1025700082B000AF7860396003F00CF80346162291
:102580001A604FF0FF3318460837BD4680BD80B54E
:1025900082B000AF78604FF0FF317868FFF7E7FF57
:1025A00000BFFDE780B586B000AFF860B9607A6023
:1025B00000237B610AE0AFF300800146BB685A1C30
:1025C000BA60CAB21A707B6901337B617A697B6831
:1025D0009A42F0DB7B6818461837BD4680BD80B450
:1025E00083B000AF78604FF0FF3318460C37BD461C
:1025F00080BC704780B483B000AF786039603B68BE
:102600004FF400525A60002318460C37BD4680BC78
:10261000704780B483B000AF7860012318460C3750
:10262000BD4680BC704780B485B000AFF860B9602B
:102630007A60002318461437BD4680BC70470000FE
:1026400080B586B000AF7860144A154BD31A7B6111
:102650007B693B61134B1B68002B02D1114B124A63
:102660001A60104B1A687B6813443A699A4207D281
:1026700002F090FF03460C221A604FF0FF3309E08E
:10268000084B1B68FB60074B1A687B681344054ABC
:102690001360FB6818461837BD4680BD0050002007
:1026A00000040000440400209805002080B400AF1E
:1026B00000BFBD4680BC7047FFF7F8FF0B480C49D0
:1026C0000C4A002302E0D458C4500433C4188C428E
:1026D000F9D3094A094C002301E013600432A242F5
:1026E000FBD302F05DFFFFF70FFD704700000020F5
:1026F000240200200477000824020020980500200E
:10270000FEE7000080B500AF084B1B68074A43F0A6
:1027100010031360032000F047F90F2000F008F8C1
:10272000FFF72CFE0023184680BD00BF00200240AA
:1027300080B582B000AF7860124B1A68124B1B78DC
:1027400019464FF47A73B3FBF1F3B2FBF3F3184677
:1027500000F05FF90346002B01D001230EE07B68F7
:102760000F2B0AD8002279684FF0FF3000F027F9CC
:10277000064A7B681360002300E0012318460837EF
:10278000BD4680BD500000205800002054000020AD
:1027900080B400AF054B1B781A46054B1B681344E9
:1027A000034A136000BFBD4680BC7047580000203C
:1027B0004804002080B400AF024B1B681846BD4699
:1027C00080BC70474804002080B584B000AF7860BA
:1027D000FFF7F0FFB8607B68FB60FB68B3F1FF3F79
:1027E00005D00A4B1B781A46FB681344FB6000BFF8
:1027F000FFF7E0FF0246BB68D31AFA689A42F7D89F
:1028000000BF00BF1037BD4680BD00BF580000208C
:1028100080B485B000AF78607B6803F00703FB608D
:102820000C4BDB68BB60BA684FF6FF031340BB601C
:10283000FB681A02BB68134343F0BF6343F40033E1
:10284000BB60044ABB68D36000BF1437BD4680BC80
:10285000704700BF00ED00E080B400AF044BDB68C0
:102860001B0A03F007031846BD4680BC704700BF33
:1028700000ED00E080B483B000AF0346FB7197F930
:102880000730002B0BDBFB7903F01F02064997F999
:1028900007305B09012000FA02F241F8232000BF53
:1028A0000C37BD4680BC704700E100E080B483B0C7
:1028B00000AF03463960FB7197F90730002B0ADB44
:1028C0003B68DAB20C4997F907301201D2B20B44D7
:1028D00083F800230AE03B68DAB20849FB7903F089
:1028E0000F03043B1201D2B20B441A7600BF0C371F
:1028F000BD4680BC704700BF00E100E000ED00E095
:1029000080B489B000AFF860B9607A60FB6803F00A
:102910000703FB61FB69C3F10703042B28BF0423F2
:10292000BB61FB690433062B02D9FB69033B00E062
:1029300000237B614FF0FF32BB6902FA03F3DA43F5
:10294000BB681A407B699A404FF0FF317B6901FAFE
:1029500003F3D9437B680B40134318462437BD4625
:1029600080BC704780B582B000AF78607B68013B67
:10297000B3F1807F01D301230FE00A4A7B68013B5A
:1029800053600F214FF0FF30FFF790FF054B0022FF
:102990009A60044B07221A60002318460837BD4688
:1029A00080BD00BF10E000E080B582B000AF78606D
:1029B0007868FFF72DFF00BF0837BD4680BD80B5A2
:1029C00086B000AF0346B9607A60FB7300237B6179
:1029D000FFF742FF78617A68B9687869FFF790FF7E
:1029E000024697F90F3011461846FFF75FFF00BF08
:1029F0001837BD4680BD80B582B000AF0346FB717D
:102A000097F907301846FFF735FF00BF0837BD4676
:102A100080BD80B582B000AF78607868FFF7A2FF14
:102A2000034618460837BD4680BD000080B48BB011
:102A300000AF7860396000237B6200233B6269E16C
:102A400001227B6A02FA03F3FB613B681B68FA69A7
:102A50001340BB61BA69FB699A4240F058813B68F8
:102A60005B689A4A93425ED0984A934275D8984AD6
:102A7000934258D0964A93426FD8964A934252D086
:102A8000944A934269D8944A93424CD0924A9342D2
:102A900063D8924A934246D0904A93425DD8122B13
:102AA0002AD8122B59D801A252F823F0272B00085C
:102AB000012B0008132B0008552B00085B2B000886
:102AC0005B2B00085B2B00085B2B00085B2B0008CE
:102AD0005B2B00085B2B00085B2B00085B2B0008BE
:102AE0005B2B00085B2B00085B2B00085B2B0008AE
:102AF000092B00081D2B0008794A934213D02CE0C3
:102B00003B68DB683B6229E03B68DB6804333B627F
:102B100024E03B68DB6808333B621FE03B68DB680E
:102B20000C333B621AE03B689B68002B02D1042304
:102B30003B6213E03B689B68012B05D108233B6295
:102B40007B68FA691A6109E008233B627B68FA69CD
:102B50005A6103E000233B6200E000BFBB69FF2B2A
:102B600001D87B6801E07B6804337B61BB69FF2B84
:102B700002D87B6A9B0002E07B6A083B9B003B61BA
:102B80007B691A680F213B6901FA03F3DB431A40A2
:102B9000396A3B6901FA03F31A437B691A603B689F
:102BA0005B6803F08053002B00F0B1804D4B9B69B4
:102BB0004C4A43F0010393614A4B9B6903F00103C4
:102BC000BB60BB68484A7B6A9B08023352F82330DB
:102BD000FB607B6A03F003039B000F2202FA03F3FE
:102BE000DB43FA681340FB607B68404A934213D092
:102BF0007B683F4A93420DD07B683E4A934207D0A0
:102C00007B683D4A934201D1032306E0042304E09C
:102C1000022302E0012300E000237A6A02F00302AB
:102C200092009340FA681343FB602F497B6A9B082C
:102C30000233FA6841F823203B685B6803F4801391
:102C4000002B06D02D4B9A682C49BB6913438B602F
:102C500006E02A4B9A68BB69DB43284913408B6026
:102C60003B685B6803F40013002B06D0234BDA6843
:102C70002249BB691343CB6006E0204BDA68BB698D
:102C8000DB431E491340CB603B685B6803F40033B1
:102C9000002B06D0194B5A681849BB6913434B6087
:102CA00006E0164B5A68BB69DB43144913404B607E
:102CB0003B685B6803F48033002B21D00F4B1A680C
:102CC0000E49BB6913430B6021E000BF00003210C6
:102CD000000031100000221000002110000012102E
:102CE00000001110001002400000014000080140E7
:102CF000000C01400010014000140140000401409C
:102D00000B4B1A68BB69DB43094913400B607B6AB4
:102D100001337B623B681A687B6A22FA03F3002B5B
:102D20007FF48EAE00BF00BF2C37BD4680BC70471D
:102D30000004014080B483B000AF78600B467B8014
:102D400013467B707B78002B03D07A887B681A61EE
:102D500003E07B881A047B681A6100BF0C37BD460C
:102D600080BC704780B584B000AF78607B68002B72
:102D700001D101232BE17B6893F83D30DBB2002BBE
:102D800006D17B68002283F83C207868FFF728FB97
:102D90007B68242283F83D207B681B681A687B6867
:102DA0001B6822F001021A607B681B681A687B6846
:102DB0001B6842F400421A607B681B681A687B68D3
:102DC0001B6822F400421A6001F00AFCF8607B687C
:102DD0005B68814A934207D8FB68804A934294BF5C
:102DE00001230023DBB206E0FB687D4A934294BFD7
:102DF00001230023DBB2002B01D00123E7E0FB68B5
:102E0000784AA2FB03239B0CBB607B681B685B6852
:102E100023F03F017B681B68BA680A435A607B68ED
:102E20001B681B6A23F03F017B685B686A4A934218
:102E300002D8BB68013309E0BB684FF4967202FB0D
:102E400003F3694AA2FB03239B0901337A681268E2
:102E50000B4313627B681B68DB6923F44F4222F04B
:102E6000FF027B685B685C498B4219D8FB68591E7E
:102E70007B685B685B00B1FBF3F3591C40F6FC73A5
:102E80000B40002B0AD0FB68591E7B685B685B0017
:102E9000B1FBF3F30133C3F30B0351E004234FE021
:102EA0007B689B68002B11D1FB68581E7B685968B2
:102EB0000B465B000B44B0FBF3F30133C3F30B038E
:102EC000002B0CBF01230023DBB212E0FB68581E6D
:102ED0007B6859680B469B000B4499000B44B0FB80
:102EE000F3F30133C3F30B03002B0CBF01230023C7
:102EF000DBB2002B01D0012322E07B689B68002B12
:102F00000ED1FB68581E7B6859680B465B000B446A
:102F1000B0FBF3F30133C3F30B0343F400430FE0BF
:102F2000FB68581E7B6859680B469B000B44990050
:102F30000B44B0FBF3F30133C3F30B0343F44043FF
:102F4000796809681343CB617B681B681B6823F0B1
:102F5000C0017B68DA697B681B6A1A437B681B685F
:102F60000A431A607B681B689B6823F4034323F0C1
:102F7000FF037A6811697A68D26811437A68126827
:102F80000B4393607B681B68DB6823F0FF017B6861
:102F90005A697B689B691A437B681B680A43DA603D
:102FA0007B681B681A687B681B6842F001021A6024
:102FB0007B6800221A647B68202283F83D207B68AE
:102FC00000221A637B68002283F83E200023184603
:102FD0001037BD4680BD00BFA08601007F841E0063
:102FE000FF083D0083DE1B43D34D621080B588B0DF
:102FF00002AFF860084611461A4603467B810B462D
:103000003B811346FB80FFF7D5FB7861FB6893F8A3
:103010003D30DBB2202B40F0D9807B69009319232F
:1030200001226D49F86800F0DBFC0346002B01D05B
:103030000223CCE0FB6893F83C30012B01D1022342
:10304000C5E0FB68012283F83C20FB681B681B6815
:1030500003F00103012B07D0FB681B681A68FB68AB
:103060001B6842F001021A60FB681B681A68FB6863
:103070001B6822F400621A60FB68212283F83D205D
:10308000FB68402283F83E20FB6800221A64FB683C
:103090003A6A5A62FB68BA8C5A85FB685B8D9AB2B1
:1030A000FB681A85FB684D4ADA62F8883A897989A3
:1030B0007B690193BB6A00930346F86800F012FB3A
:1030C0000346002B52D0012381E07A69B96AF8687F
:1030D00000F0A0FD0346002B0DD0FB681B6C042BF9
:1030E00007D1FB681B681A68FB681B6842F4007212
:1030F0001A6001236BE0FB685B6A1A78FB681B6847
:103100001A61FB685B6A5A1CFB685A62FB681B8D7C
:10311000013B9AB2FB681A85FB685B8D9BB2013B51
:103120009AB2FB685A85FB681B685B6903F004036D
:10313000042B1BD1FB681B8D002B17D0FB685B6A2F
:103140001A78FB681B681A61FB685B6A5A1CFB688B
:103150005A62FB681B8D013B9AB2FB681A85FB68BB
:103160005B8D9BB2013B9AB2FB685A85FB681B8D55
:10317000002BAAD17A69B96AF86800F093FD03467A
:10318000002B0DD0FB681B6C042B07D1FB681B6860
:103190001A68FB681B6842F400721A60012316E08B
:1031A000FB681B681A68FB681B6842F400721A60AF
:1031B000FB68202283F83D20FB68002283F83E2034
:1031C000FB68002283F83C20002300E0022318461D
:1031D0001837BD4680BD00BF020010000000FFFF91
:1031E00080B58CB002AFF860084611461A46034617
:1031F0007B810B463B811346FB8000233B62FFF73C
:10320000D9FA7862FB6893F83D30DBB2202B40F0AE
:1032100050827B6A0093192301228249F86800F0EA
:10322000DFFB0346002B01D0022343E2FB6893F847
:103230003C30012B01D102233CE2FB68012283F8E0
:103240003C20FB681B681B6803F00103012B07D0BF
:10325000FB681B681A68FB681B6842F001021A6071
:10326000FB681B681A68FB681B6822F400621A601E
:10327000FB68222283F83D20FB68402283F83E2031
:10328000FB6800221A64FB683A6B5A62FB68BA8ECC
:103290005A85FB685B8D9AB2FB681A85FB68624AA7
:1032A000DA62F8883A8979897B6A0193BB6B00936B
:1032B0000346F86800F0ACFA0346002B01D0012366
:1032C000F8E1FB681B8D002B13D10023FB61FB6829
:1032D0001B685B69FB61FB681B689B69FB61FB69A1
:1032E000FB681B681A68FB681B6842F400721A606E
:1032F000CCE1FB681B8D012B1ED1FB681B681A6893
:10330000FB681B6822F480621A6072B600BF00235B
:10331000BB61FB681B685B69BB61FB681B689B69E1
:10332000BB61BB69FB681B681A68FB681B6842F4D9
:1033300000721A6062B635E0FB681B8D022B1ED14D
:10334000FB681B681A68FB681B6842F400621A601D
:1033500072B600BF00237B61FB681B685B697B6101
:10336000FB681B689B697B617B69FB681B681A684B
:10337000FB681B6822F480621A6062B612E0FB6888
:103380001B681A68FB681B6842F480621A6000239D
:103390003B61FB681B685B693B61FB681B689B6961
:1033A0003B613B6972E1FB681B8D032B00F21F81BF
:1033B000FB681B8D012B23D17A6AB96BF86800F08A
:1033C000B9FC0346002B01D0012373E1FB681B68A5
:1033D0001A69FB685B6AD2B21A70FB685B6A5A1C96
:1033E000FB685A62FB681B8D013B9AB2FB681A8529
:1033F000FB685B8D9BB2013B9AB2FB685A8545E145
:10340000FB681B8D022B52D17B6A0093BB6B0022A1
:103410000649F86800F0E4FA0346002B08D00123BF
:1034200048E100BF020010000000FFFF040001009F
:1034300072B600BFFB681B681A68FB681B6842F421
:1034400000721A60FB681B681A69FB685B6AD2B27B
:103450001A70FB685B6A5A1CFB685A62FB681B8D1A
:10346000013B9AB2FB681A85FB685B8D9BB2013BFE
:103470009AB2FB685A8562B600BFFB681B681A697E
:10348000FB685B6AD2B21A70FB685B6A5A1CFB6805
:103490005A62FB681B8D013B9AB2FB681A85FB6878
:1034A0005B8D9BB2013B9AB2FB685A85EEE07B6A6A
:1034B0000093BB6B00228149F86800F091FA034643
:1034C000002B01D00123F5E0FB681B681A68FB683C
:1034D0001B6822F480621A6072B600BFFB681B682A
:1034E0001A69FB685B6AD2B21A70FB685B6A5A1C85
:1034F000FB685A62FB681B8D013B9AB2FB681A8518
:10350000FB685B8D9BB2013B9AB2FB685A856C4BA2
:103510001B68DB086B4AA2FB03231A0A13469B00B5
:103520001344DA00D31A3B623B6A013B3B623B6ABD
:10353000002B18D1FB6800221A63FB68202283F855
:103540003D20FB68002283F83E20FB681B6C43F0A3
:103550002002FB681A6462B600BFFB68002283F891
:103560003C200123A6E0FB681B685B6903F00403B1
:10357000042BD9D1FB681B681A68FB681B6842F4EE
:1035800000721A60FB681B681A69FB685B6AD2B23A
:103590001A70FB685B6A5A1CFB685A62FB681B8DD9
:1035A000013B9AB2FB681A85FB685B8D9BB2013BBD
:1035B0009AB2FB685A8562B600BFFB681B681A693D
:1035C000FB685B6AD2B21A70FB685B6A5A1CFB68C4
:1035D0005A62FB681B8D013B9AB2FB681A85FB6837
:1035E0005B8D9BB2013B9AB2FB685A854EE07A6ACA
:1035F000B96BF86800F09EFB0346002B01D0012355
:1036000058E0FB681B681A69FB685B6AD2B21A70E3
:10361000FB685B6A5A1CFB685A62FB681B8D013BA6
:103620009AB2FB681A85FB685B8D9BB2013B9AB22C
:10363000FB685A85FB681B685B6903F00403042B75
:1036400024D1FB681B8D032B07D1FB681B681A680C
:10365000FB681B6822F480621A60FB681B681A69A9
:10366000FB685B6AD2B21A70FB685B6A5A1CFB6823
:103670005A62FB681B8D013B9AB2FB681A85FB6896
:103680005B8D9BB2013B9AB2FB685A85FB681B8D30
:10369000002B7FF488AEFB68202283F83D20FB6876
:1036A000002283F83E20FB68002283F83C200023A0
:1036B00000E0022318462837BD4680BD0400010003
:1036C0005000002089B5F81480B483B000AF786052
:1036D0007B6893F83D30DBB218460C37BD4680BCA2
:1036E0007047000080B588B002AFF8600846114608
:1036F0001A4603467B810B463B811346FB80FB68E1
:103700001B681A68FB681B6842F480721A607B6A47
:1037100000933B6A00224FF00111F86800F060F955
:103720000346002B0DD0FB681B681B6803F48073F5
:10373000B3F5807F03D1FB684FF400721A64032352
:103740005FE07B89DBB21A46FB681B6802F0FE0271
:103750001A617B6A3A6A2D49F86800F0BBF90346A2
:10376000002B01D001234CE000237B61FB681B6828
:103770005B697B61FB681B689B697B617B697A6A1B
:10378000396AF86800F046FA0346002B0DD0FB6852
:103790001B6C042B07D1FB681B681A68FB681B684D
:1037A00042F400721A6001232BE0FB88012B05D143
:1037B0003B89DAB2FB681B681A6121E03B891B0A6E
:1037C0009BB2DAB2FB681B681A617A6A396AF868D8
:1037D00000F020FA0346002B0DD0FB681B6C042B75
:1037E00007D1FB681B681A68FB681B6842F400720B
:1037F0001A60012305E03B89DAB2FB681B681A6195
:10380000002318461837BD4680BD00BF02000100E6
:1038100080B588B002AFF860084611461A460346E4
:103820007B810B463B811346FB80FB681B681A6853
:10383000FB681B6842F480621A60FB681B681A68A8
:10384000FB681B6842F480721A607B6A00933B6AD3
:1038500000224FF00111F86800F0C2F80346002B77
:103860000DD0FB681B681B6803F48073B3F5807F81
:1038700003D1FB684FF400721A640323AAE07B892A
:10388000DBB21A46FB681B6802F0FE021A617B6A13
:103890003A6A5249F86800F01DF90346002B01D03E
:1038A000012397E000237B61FB681B685B697B61F8
:1038B000FB681B689B697B617B697A6A396AF86877
:1038C00000F0A8F90346002B0DD0FB681B6C042BFD
:1038D00007D1FB681B681A68FB681B6842F400721A
:1038E0001A60012376E0FB88012B05D13B89DAB20F
:1038F000FB681B681A6121E03B891B0A9BB2DAB2A4
:10390000FB681B681A617A6A396AF86800F082F904
:103910000346002B0DD0FB681B6C042B07D1FB6802
:103920001B681A68FB681B6842F400721A60012366
:1039300050E03B89DAB2FB681B681A617A6A396A1F
:10394000F86800F067F90346002B0DD0FB681B6C8C
:10395000042B07D1FB681B681A68FB681B6842F4DC
:1039600000721A60012335E0FB681B681A68FB6867
:103970001B6842F480721A607B6A00933B6A0022E3
:103980004FF00111F86800F02BF80346002B0DD022
:10399000FB681B681B6803F48073B3F5807F03D159
:1039A000FB684FF400721A64032313E07B89DBB2D7
:1039B00043F00103DAB2FB681B681A617B6A3A6A5A
:1039C0000649F86800F086F80346002B01D0012371
:1039D00000E0002318461837BD4680BD02000100F4
:1039E00080B584B000AFF860B9603B601346FB71EE
:1039F00048E03B68B3F1FF3F44D0FEF7DBFE0246F0
:103A0000BB69D31A3A689A4202D33B68002B39D17A
:103A1000BB681B0CDBB2012B0DD1FB681B685B691B
:103A2000DA43BB6813409BB2002B0CBF0123002379
:103A3000DBB21A460CE0FB681B689B69DA43BB6883
:103A400013409BB2002B0CBF01230023DBB21A46AC
:103A5000FB799A4216D1FB6800221A63FB68202288
:103A600083F83D20FB68002283F83E20FB681B6C36
:103A700043F02002FB681A64FB68002283F83C20B4
:103A8000012323E0BB681B0CDBB2012B0DD1FB68CB
:103A90001B685B69DA43BB6813409BB2002B0CBF09
:103AA00001230023DBB21A460CE0FB681B689B690C
:103AB000DA43BB6813409BB2002B0CBF01230023E9
:103AC000DBB21A46FB799A4293D00023184610378E
:103AD000BD4680BD80B584B000AFF860B9607A6043
:103AE0003B6071E0FB681B685B6903F48063B3F5BE
:103AF000806F23D1FB681B681A68FB681B6842F45F
:103B000000721A60FB681B686FF480625A61FB6880
:103B100000221A63FB68202283F83D20FB68002204
:103B200083F83E20FB681B6C43F00402FB681A64B8
:103B3000FB68002283F83C20012367E07B68B3F137
:103B4000FF3F41D0FEF736FE02463B68D31A7A6843
:103B50009A4202D37B68002B36D1BB681B0CDBB2C8
:103B6000012B0CD1FB681B685B69DA43BB6813400F
:103B70009BB2002B14BF01230023DBB20BE0FB68D8
:103B80001B689B69DA43BB6813409BB2002B14BFD0
:103B900001230023DBB2002B16D0FB6800221A633E
:103BA000FB68202283F83D20FB68002283F83E203A
:103BB000FB681B6C43F02002FB681A64FB68002260
:103BC00083F83C20012321E0BB681B0CDBB2012BF6
:103BD0000CD1FB681B685B69DA43BB6813409BB27E
:103BE000002B14BF01230023DBB20BE0FB681B6832
:103BF0009B69DA43BB6813409BB2002B14BF0123BF
:103C00000023DBB2002B7FF46DAF00231846103782
:103C1000BD4680BD80B584B000AFF860B9607A6001
:103C200034E0F86800F0E3F80346002B01D00123EC
:103C300034E0BB68B3F1FF3F28D0FEF7BBFD02467E
:103C40007B68D31ABA689A4202D3BB68002B1DD195
:103C5000FB681B685B6903F08003802B16D0FB6850
:103C600000221A63FB68202283F83D20FB680022B3
:103C700083F83E20FB681B6C43F02002FB681A644B
:103C8000FB68002283F83C20012307E0FB681B68E7
:103C90005B6903F08003802BC3D1002318461037E3
:103CA000BD4680BD80B584B000AFF860B9607A6071
:103CB00034E0F86800F09BF80346002B01D00123A4
:103CC00034E0BB68B3F1FF3F28D0FEF773FD024636
:103CD0007B68D31ABA689A4202D3BB68002B1DD105
:103CE000FB681B685B6903F00403042B16D0FB68B8
:103CF00000221A63FB68202283F83D20FB68002223
:103D000083F83E20FB681B6C43F02002FB681A64BA
:103D1000FB68002283F83C20012307E0FB681B6856
:103D20005B6903F00403042BC3D10023184610374A
:103D3000BD4680BD80B584B000AFF860B9607A60E0
:103D400049E0FB681B685B6903F01003102B19D175
:103D5000FB681B686FF010025A61FB6800221A634F
:103D6000FB68202283F83D20FB68002283F83E2078
:103D7000FB681A6CFB681A64FB68002283F83C201D
:103D8000012330E0FEF716FD02467B68D31ABA68BD
:103D90009A4202D3BB68002B1DD1FB681B685B698C
:103DA00003F04003402B16D0FB6800221A63FB6827
:103DB000202283F83D20FB68002283F83E20FB6828
:103DC0001B6C43F02002FB681A64FB68002283F836
:103DD0003C20012307E0FB681B685B6903F040039C
:103DE000402BAED1002318461037BD4680BD80B4AD
:103DF00083B000AF78607B681B685B6903F4806305
:103E0000B3F5806F1BD17B681B686FF480625A61C9
:103E10007B6800221A637B68202283F83D207B6840
:103E2000002283F83E207B681B6C43F004027B6811
:103E30001A647B68002283F83C20012300E0002301
:103E400018460C37BD4680BC7047000080B586B070
:103E500000AF78607B68002B01D1012372E27B68A0
:103E60001B6803F00103002B00F08780924B5B6816
:103E700003F00C03042B0CD08F4B5B6803F00C0396
:103E8000082B12D18C4B5B6803F48033B3F5803F71
:103E90000BD1894B1B6803F40033002B6CD07B687B
:103EA0005B68002B68D101234CE27B685B68B3F54B
:103EB000803F06D1804B1B687F4A43F480331360F8
:103EC0002EE07B685B68002B0CD17B4B1B687A4A29
:103ED00023F480331360784B1B68774A23F48023E4
:103EE00013601DE07B685B68B3F5A02F0CD1724BAB
:103EF0001B68714A43F4802313606F4B1B686E4A42
:103F000043F4803313600BE06B4B1B686A4A23F465
:103F100080331360684B1B68674A23F48023136067
:103F20007B685B68002B13D0FEF744FC386108E027
:103F3000FEF740FC02463B69D31A642B01D90323E8
:103F400000E25D4B1B6803F40033002BF0D014E05B
:103F5000FEF730FC386108E0FEF72CFC02463B69B6
:103F6000D31A642B01D90323ECE1534B1B6803F4F0
:103F70000033002BF0D100E000BF7B681B6803F02A
:103F80000203002B63D04C4B5B6803F00C03002B47
:103F90000BD0494B5B6803F00C03082B1CD1464B3C
:103FA0005B6803F48033002B16D1434B1B6803F08E
:103FB0000203002B05D07B681B69012B01D0012374
:103FC000C0E13D4B1B6823F0F8027B685B69DB00B6
:103FD000394913430B603AE07B681B69002B20D002
:103FE000364B01221A60FEF7E5FB386108E0FEF768
:103FF000E1FB02463B69D31A022B01D90323A1E15D
:104000002D4B1B6803F00203002BF0D02A4B1B68DA
:1040100023F0F8027B685B69DB00274913430B60E0
:1040200015E0264B00221A60FEF7C4FB386108E059
:10403000FEF7C0FB02463B69D31A022B01D90323CA
:1040400080E11D4B1B6803F00203002BF0D17B685D
:104050001B6803F00803002B3AD07B689B69002B98
:1040600019D0174B01221A60FEF7A4FB386108E053
:10407000FEF7A0FB02463B69D31A022B01D90323AA
:1040800060E10D4B5B6A03F00203002BF0D00120CE
:1040900000F0CEFA1CE00A4B00221A60FEF78AFB01
:1040A00038610FE0FEF786FB02463B69D31A022B0C
:1040B00008D9032346E100BF00100240000042423D
:1040C00080044242924B5B6A03F00203002BE9D169
:1040D0007B681B6803F00403002B00F0A68000231C
:1040E000FB758B4BDB6903F08053002B0DD1884BA4
:1040F000DB69874A43F08053D361854BDB6903F06A
:104100008053BB60BB680123FB75824B1B6803F4C3
:104110008073002B18D17F4B1B687E4A43F4807359
:104120001360FEF747FB386108E0FEF743FB0246E9
:104130003B69D31A642B01D9032303E1754B1B6838
:1041400003F48073002BF0D07B68DB68012B06D171
:104150006F4B1B6A6E4A43F0010313622DE07B68CC
:10416000DB68002B0CD16A4B1B6A694A23F0010300
:104170001362674B1B6A664A23F0040313621CE058
:104180007B68DB68052B0CD1614B1B6A604A43F0EE
:10419000040313625E4B1B6A5D4A43F00103136222
:1041A0000BE05B4B1B6A5A4A23F001031362584B26
:1041B0001B6A574A23F0040313627B68DB68002BF9
:1041C00015D0FEF7F7FA38610AE0FEF7F3FA024677
:1041D0003B69D31A41F28832934201D90323B1E0FB
:1041E0004B4B1B6A03F00203002BEED014E0FEF7EA
:1041F000E1FA38610AE0FEF7DDFA02463B69D31ABC
:1042000041F28832934201D903239BE0404B1B6A61
:1042100003F00203002BEED1FB7D012B05D13C4BBB
:10422000DB693B4A23F08053D3617B68DB69002B59
:1042300000F08780364B5B6803F00C03082B61D0DD
:104240007B68DB69022B46D1334B00221A60FEF7F4
:10425000B1FA386108E0FEF7ADFA02463B69D31ABD
:10426000022B01D903236DE0294B1B6803F0007377
:10427000002BF0D17B681B6AB3F5803F08D1244B3B
:104280005B6823F400327B689B68214913434B60D1
:104290001F4B5B6823F474127B68196A7B685B6A46
:1042A0000B431B4913434B601B4B01221A60FEF763
:1042B00081FA386108E0FEF77DFA02463B69D31ABD
:1042C000022B01D903233DE0114B1B6803F000735F
:1042D000002BF0D035E0104B00221A60FEF76AFA8E
:1042E000386108E0FEF766FA02463B69D31A022BF2
:1042F00001D9032326E0064B1B6803F00073002B53
:10430000F0D11EE07B68DB69012B07D1012319E0A6
:104310000010024000700040600042420B4B5B689E
:10432000FB60FB6803F480327B681B6A9A4206D10B
:10433000FB6803F470127B685B6A9A4201D0012328
:1043400000E0002318461837BD4680BD001002402B
:1043500080B584B000AF786039607B68002B01D1F4
:104360000123D0E06A4B1B6803F007033A689A42C6
:1043700010D9674B1B6823F0070265493B6813435C
:104380000B60634B1B6803F007033A689A4201D045
:104390000123B8E07B681B6803F00203002B20D0E8
:1043A0007B681B6803F00403002B05D0594B5B6846
:1043B000584A43F4E06353607B681B6803F00803CA
:1043C000002B05D0534B5B68524A43F46053536053
:1043D000504B5B6823F0F0027B689B684D491343A8
:1043E0004B607B681B6803F00103002B40D07B68A7
:1043F0005B68012B07D1474B1B6803F40033002B8C
:1044000015D101237FE07B685B68022B07D1414B0C
:104410001B6803F00073002B09D1012373E03D4BAF
:104420001B6803F00203002B01D101236BE0394B21
:104430005B6823F003027B685B68364913434B607B
:10444000FEF7B8F9F8600AE0FEF7B4F90246FB6837
:10445000D31A41F28832934201D9032353E02D4B02
:104460005B6803F00C027B685B689B009A42EBD1AF
:10447000274B1B6803F007033A689A4210D2244B7B
:104480001B6823F0070222493B6813430B60204B53
:104490001B6803F007033A689A4201D0012332E017
:1044A0007B681B6803F00403002B08D0194B5B6882
:1044B00023F4E0627B68DB68164913434B607B683A
:1044C0001B6803F00803002B09D0124B5B6823F430
:1044D00060527B681B69DB000E4913434B6000F0A0
:1044E00021F802460B4B5B681B0903F00F030A49D6
:1044F000CB5C22FA03F3094A1360094B1B68184688
:10450000FEF716F9002318461037BD4680BD00BFE0
:1045100000200240001002405873000850000020A4
:104520005400002080B487B000AF0023FB6000235C
:10453000BB6000237B6100237B6000233B611E4B3B
:104540005B68FB60FB6803F00C03042B02D0082BB4
:1045500003D027E0194B3B6127E0FB689B0C03F07D
:104560000F03174AD35C7B60FB6803F48033002B96
:1045700010D0114B5B685B0C03F00103114AD35C54
:10458000BB607B680D4A03FB02F2BB68B2FBF3F32E
:104590007B6104E07B680C4A02FB03F37B617B696F
:1045A0003B6102E0054B3B6100BF3B6918461C378D
:1045B000BD4680BC704700BF0010024000127A0068
:1045C000707300088073000800093D0080B400AFDC
:1045D000024B1B681846BD4680BC70475000002047
:1045E00080B500AFFFF7F2FF0246054B5B681B0A80
:1045F00003F007030349CB5C22FA03F3184680BD9E
:10460000001002406873000880B500AFFFF7DEFFBE
:104610000246054B5B68DB0A03F007030349CB5CEA
:1046200022FA03F3184680BD0010024068730008A8
:1046300080B485B000AF78600A4B1B680A4AA2FBC1
:1046400003235B0A7A6802FB03F3FB6000BFFB688D
:104650005A1EFA60002BF9D100BF00BF1437BD46C7
:1046600080BC704750000020D34D621080B582B0EE
:1046700000AF78607B68002B01D1012342E07B68AA
:1046800093F84130DBB2002B06D17B68002283F81F
:1046900040207868FDF7E4FE7B68242283F84120FF
:1046A0007B681B68DA687B681B6822F40052DA605A
:1046B000786800F02BF87B681B681A697B681B68B8
:1046C00022F490421A617B681B685A697B681B68F8
:1046D00022F02A025A617B681B68DA687B681B68D3
:1046E00042F40052DA607B6800225A647B68202220
:1046F00083F841207B68202283F842207B680022D7
:104700005A63002318460837BD4680BD80B584B083
:1047100000AF78607B681B681B6923F440517B689D
:10472000DA687B681B680A431A617B689A687B6851
:104730001B691A437B685B691343BB607B681B681A
:10474000DB6823F4B05323F00C037A681268B9686D
:104750000B43D3607B681B685B6923F440717B6803
:104760009A697B681B680A435A617B681B682C4AFC
:10477000934203D1FFF748FFF86002E0FFF730FFF4
:10478000F860FA6813469B0013449A001A447B6849
:104790005B689B00B2FBF3F3224AA2FB03235B0995
:1047A0001901FA6813469B0013449A001A447B6867
:1047B0005B689B00B2FBF3F21A4BA3FB02035B099D
:1047C000642000FB03F3D31A1B013233154AA2FB0A
:1047D00003235B0903F0F0031944FA6813469B00B6
:1047E00013449A001A447B685B689B00B2FBF3F2A7
:1047F0000C4BA3FB02035B09642000FB03F3D31AF9
:104800001B013233074AA2FB03235B0903F00F02AB
:104810007B681B680A449A6000BF1037BD4680BDA4
:10482000003801401F85EB51002B2DE9F0471D4654
:10483000BBBF03F100431D4600232D2388B014465F
:10484000B8BF1446129A109E1370149BDDF84CA04A
:1048500023F02008B8F1460F05D0B8F1450F00D17C
:104860000136022300E0032307AA049206AACDE939
:1048700002A2CDE9003622462B4600F051FFB8F1E6
:10488000470F074619D1119BDB070ED500EB060930
:104890000022002320462946FCF786F808B1CDF80F
:1048A0001C903022079B4B451ED33846079B159A18
:1048B000DB1B136008B0BDE8F087B8F1460F00EBD2
:1048C0000609E5D10378302B0AD1002200232046C7
:1048D0002946FCF769F818B9C6F10106CAF8006064
:1048E000DAF800309944D3E7591C07911A70D9E7D8
:1048F000F7B50029B6BF2D232B23494209290270A1
:10490000437029DD0DF107031D460A27B1FBF7F6B9
:104910001A4607FB1614303402F8014C0C46632C7F
:10492000314603F1FF33F1DC3031941E03F8011CF2
:104930002346411CAB420AD30DF109039B1AAC423A
:1049400088BF002302330344181A03B0F0BD13F8E4
:10495000016B01F8016FEDE7302330318370C170D6
:10496000031DF1E72DE9F04F91B00C46DDF86880AA
:1049700016461F46054600F0C3FD03681846089317
:10498000FBF7E6FB00230E93D8F8003009900733BD
:1049900023F0070303F1080294F818A0D4F800B03C
:1049A000C8F80020D3E9008929F000430B93CDF823
:1049B00028804FF0FF32DDE90A01C4E912899C4BDF
:1049C000FCF724F870BBDDE90A014FF0FF32984B89
:1049D000FBF7FEFF30BB0022002340464946FBF7B1
:1049E000EDFF10B12D2384F84330924A924BBAF177
:1049F000470F8CBF9046984603234FF00009236170
:104A00002BF00403236033462146284600970FAA63
:104A100000F0D4F9013040F090804FF0FF3011B039
:104A2000BDE8F08F42464B4640464946FBF7EEFF55
:104A300048B14B46002BB8BF2D23804AB8BF84F83D
:104A400043307F4BD3E763680AF0DF015A1C3FD144
:104A50000623636000224BF48063236006920EAA53
:104A6000CDE904A20DAA03920DF13302CDE9013282
:104A700063684246009328464B460A91FFF7D4FEEE
:104A80000A99804647290D9928D1C81C02DB636822
:104A9000994240DDAAF1020A5FFA8AFA52460139C8
:104AA00004F150000D91FFF723FF0E9A8146131871
:104AB000012A236102DC2268D20701D50133236178
:104AC0009DF83330002B9ED02D2384F843309AE795
:104AD0004729BFD1002BBDD10123BAE7BAF1650F39
:104AE000DCD9BAF1660F18D1002963680BDD2161AA
:104AF00013B92268D00702D501330B4423614FF06C
:104B00000009A165DCE713B92268D20701D5023399
:104B1000F4E70123F2E74FF0670A0E9B994205DBA9
:104B200023682161D807EAD54B1CE7E70029CCBFF1
:104B30000122C1F102021344E0E723685A0507D4B9
:104B40002369424631462846B84701302BD164E7F5
:104B5000BAF1650F40F2DC80D4E912010022002393
:104B6000FBF722FF002833D0012331462846354A7F
:104B7000B84701303FF451AFDDE90D38434502DB62
:104B80002368D8070FD5DDE9082331462846B84702
:104B900001303FF442AF4FF0000908F1FF3804F153
:104BA0001A0AC84509DC23689B0700F10281E06806
:104BB0000F9B9842B8BF184631E701235246314651
:104BC0002846B84701303FF428AF09F10109E8E76A
:104BD0000D9B002B38DC012331462846194AB84783
:104BE00001303FF41AAFDDE90D3959EA030302D170
:104BF0002368D907D7D5DDE9082331462846B847C9
:104C000001303FF40AAF4FF0000A04F11A0B0D9B7C
:104C10005B42534501DC4B4693E701235A4631463C
:104C20002846B84701303FF4F8AE0AF1010AEEE732
:104C3000FFFFEF7F86730008827300088E73000801
:104C40008A73000892730008A36DDDF838A05345FD
:104C5000A8BF5346002B994636DC4FF0000B29EADB
:104C6000E97904F11A02A36D0A93A3EB09035B45EA
:104C700031DC0D9B9A453ADC2368DA0737D40D9B6B
:104C8000AAEB03090A9BAAEB03039945A8BF99461F
:104C9000B9F1000F33DC4FF0000829EAE97904F19B
:104CA0001A0B0D9BAAEB0303A3EB090343457FF704
:104CB0007AAF01235A4631462846B84701303FF4BF
:104CC000ACAE08F10108ECE7424631462846B84749
:104CD0000130C2D1A1E60123314628460A92B847E5
:104CE00001303FF49AAE0A9A0BF1010BBBE7314653
:104CF000DDE908232846B8470130C0D18DE60A9A7D
:104D00004B46314628464244B8470130C3D184E679
:104D1000DDF838A0BAF1010F01DCDB0736D501233D
:104D2000424631462846B84701303FF476AEDDE9C9
:104D3000082331462846B84701303FF46EAED4E927
:104D40001201002200230AF1FF3AFBF72DFEC0B941
:104D5000534608F1010231462846B84701300CD1CC
:104D60005BE601235A4631462846B84701303FF4F6
:104D700054AE08F10108D045F3DB4B4604F1500274
:104D8000E0E64FF0000804F11A0BF4E70123424675
:104D9000E1E701234A4631462846B84701303FF44F
:104DA0003CAE08F10108E3680F995B1A4345F0DC5B
:104DB000FDE64FF0000804F11909F4E72DE9F0478A
:104DC000164698468A680B6907469342B8BF134651
:104DD000336091F843200C46DDF820900AB101338E
:104DE00033602368990642BF336802333360256815
:104DF00015F0060506D104F1190AE36832689B1A1A
:104E0000AB422BDC94F843302268003B18BF0123EF
:104E1000920630D44146384604F14302C847013077
:104E200023D02368226903F00603042B14BF002556
:104E300033684FF0000608BFE56804F11A0408BFA4
:104E4000ED1A54F8123C08BF25EAE5759342C4BF39
:104E50009B1AED18B5421AD1002008E001235246F2
:104E600041463846C847013003D14FF0FF30BDE816
:104E7000F0870135C1E73020E11881F843005A1C62
:104E800094F845102244023382F84310C2E701230C
:104E9000224641463846C8470130E6D00136D9E7B8
:104EA0002DE9FF470F7E9146782F80460C469A46A3
:104EB0000C9E01F1430207D8622F0AD8002F00F0A0
:104EC000D180582F00F0B88004F1420684F8427077
:104ED0003AE0A7F16303152BF6D801A151F823F0AE
:104EE000394F00084D4F0008C94E0008C94E000850
:104EF000C94E0008C94E00084D4F0008C94E0008B1
:104F0000C94E0008C94E0008C94E00084B500008A1
:104F1000774F000805500008C94E0008C94E000828
:104F20006D500008C94E0008774F0008C94E0008B0
:104F3000C94E00080D50000833681A1D1B68326006
:104F400004F1420684F8423001239CE03368206873
:104F5000191D3160060601D51D6803E04506FBD525
:104F6000B3F90050002D03DA2D236D4284F843304D
:104F70000A23584811E021683368080653F8045B97
:104F800002D4490648BFADB26F2F336014BF0A2365
:104F900008235048002184F843106668002EA6605C
:104FA00005DB21682E4321F0040121604BD0164619
:104FB000B5FBF3F103FB1157C75D06F8017D2F46E2
:104FC000BB420D46F4D9082B0BD12368DF0708D567
:104FD000236961689942DEBF302306F8013C06F17F
:104FE000FF36921B22614B4621464046CDF800A079
:104FF00003AAFFF7E3FE01304AD14FF0FF3004B0BF
:10500000BDE8F087236843F0200323607827324807
:1050100084F84570236831681F0651F8045B02D498
:105020005F0648BFADB23160D90744BF43F02003EB
:1050300023601DB11023ADE72648E9E7236823F07C
:1050400020032360F6E71646BDE733682568181D80
:10505000616930602E061B6801D5196002E06806A0
:10506000FBD51980002316462361BCE73368002175
:105070001A1D32601E686268304600F0B8FA08B146
:10508000801B606063682361002384F84330AAE7D3
:105090003246494640462369D0470130ADD02368A7
:1050A0009B0713D4E068039B9842B8BF1846A6E755
:1050B0000123324649464046D04701309DD0013554
:1050C000E36803995B1AAB42F2DCEBE7002504F1DD
:1050D0001906F5E794730008A5730008002310B5BE
:1050E0000446C0E90033C0E904338360818143662C
:1050F000C2818361194608225C3000F0F9F90D4B3A
:10510000246263620C4BA3620C4BE3620C4B23637F
:105110000C4B9C4206D003F16802944202D0D0337B
:105120009C4205D104F15800BDE8104000F05CBA83
:1051300010BD00BF41530008635300089B53000893
:10514000BF5300084C040020024A0349034800F002
:1051500069B800BF5C000020396F00086C000020B7
:1051600041680C4B10B59942044601D001F0E4FEB1
:10517000A168094B994202D0204601F0DDFEE168AA
:10518000064B994204D02046BDE8104001F0D4BE41
:1051900010BD00BF4C040020B40400201C050020FA
:1051A00010B50B4B0B4C0C4A20461A600421002210
:1051B000FFF794FF04F1680001220921FFF78EFF39
:1051C00004F1D0000222BDE810401221FFF786BF93
:1051D000840500204C04002049510008014800F0DB
:1051E00004BA00BF8D050020014800F0FFB900BFE0
:1051F0008D05002010B50446FFF7F0FF236A1BB1B0
:10520000BDE81040FFF7F0BF044B2362044B1B685E
:10521000002BF5D1FFF7C4FFF2E700BF6151000892
:10522000840500202DE9F8430746884614460026E9
:10523000D4E90195B9F1010905D52468002CF7D10D
:105240003046BDE8F883AB89012B07D9B5F90E309C
:10525000013303D029463846C04706436835E9E79D
:105260000FB407B5064904AB086853F8042B8168EE
:10527000019301F0C9FC03B05DF804EB04B0704782
:1052800068000020036A70B505460E4684680BB9B5
:10529000FFF7B0FF636EDB0705D4A389980502D43E
:1052A000A06D00F0A2F9A389190702D52369002B8C
:1052B00035D12146284600F0C5F880B34FF0FF35C0
:1052C000636EDA0705D4A3899B0502D4A06D00F0B4
:1052D0008DF9284670BD002B04DAA2699A4217DCCA
:1052E0000A2915D023685A1C22601970A36816F881
:1052F000011F013BA3600029EDD1002B11DA2246EA
:105300000A21284600F05FF80130D7D00A25D7E7F8
:105310002246284600F057F80130E7D1CEE7013E9B
:10532000E4E723685A1C22600A221A70EEE70000A4
:10533000024B01461868FFF7A5BF00BF68000020B8
:1053400010B50C46B1F90E1000F000F90028ABBF03
:10535000636DA3891B1823F48053ACBF6365A381DD
:1053600010BD2DE9F0411F468B890546DB050C4633
:10537000164605D502230022B1F90E1000F0D4F82C
:10538000A389324623F48053A38128463B46B4F9CF
:105390000E10BDE8F04100F0EBB810B50C46B1F9C5
:1053A0000E1000F0C1F8431CA38915BF606523F4FB
:1053B000805343F48053A38118BFA38110BDB1F97A
:1053C0000E1000F0A1B8F8B50E461446054618B107
:1053D000036A0BB9FFF70EFFA369A360A3891A073D
:1053E00001D5236943B92146284600F02BF818B1AE
:1053F0004FF0FF373846F8BD23682269F6B2981A95
:1054000063693746834205DC2146284601F094FD56
:105410000028EDD1A368013BA36023685A1C2260D9
:105420001E706269431C9A4204D0A389DB07E1D550
:105430000A2EDFD12146284601F07EFD0028D9D072
:10544000D6E7000038B5294B054618680C4618B158
:10545000036A0BB9FFF7CEFEB4F90C30190722D45A
:10546000DA0607D409222A6043F040034FF0FF30E8
:10547000A38133E0580712D5616B41B104F14403B5
:10548000994202D0284600F01FFF00236363A389DE
:1054900023F02403A3810023636023692360A3898D
:1054A00043F00803A38123694BB9A38903F4207354
:1054B000B3F5007F03D02146284601F08AFDB4F9F8
:1054C0000C3013F001020AD00022A260626952423D
:1054D000A261226942B913F08000C5D138BD990795
:1054E00058BF6269A260F4E70020F7E76800002077
:1054F00003460244934200D1704703F8011BF9E7C9
:1055000000487047A801002038B50023054D044627
:1055100008462B60FDF763F8431C02D12B6803B1EA
:10552000236038BD8805002038B50446084611467A
:105530000022054D2A601A46FDF775F8431C02D17A
:105540002B6803B1236038BD8805002038B50446B8
:10555000084611460022054D2A601A46FDF722F83A
:10556000431C02D12B6803B1236038BD880500209D
:1055700038B50446084611460022054D2A601A46F1
:10558000FBF7EEFE431C02D12B6803B1236038BD4C
:1055900088050020014B1868704700BF6800002094
:1055A00070B500260C4D0D4C641BA410A64209D109
:1055B00001F03CFE00260A4D0A4C641BA410A642D2
:1055C00005D170BD55F8043B98470136EEE755F814
:1055D000043B98470136F2E7FC760008FC760008A9
:1055E000FC76000800770008704770477047034654
:1055F00010B5C9B202449342184601D1002003E01D
:10560000047801338C42F6D110BD2DE9F74F0369C0
:105610000C690746A3427EDB013CA30000F11405A0
:1056200001F11408009305EB8403019358F824302A
:1056300055F8242001339A42B2FBF3F608EB8409B3
:105640002ED34FF0000AC446AE46D3465CF8043B66
:1056500098B206FB00A01B0C020C06FB0323DEF82D
:10566000002080B292B2121A5A44DEF800004FEACB
:10567000134A9BB2C3EB224303EB104392B242EABC
:105680000342E1454FEA234B4EF8042BDED2009B48
:10569000EB582BB9019B043B9D421A462FD33C612A
:1056A000384601F081F9002825DB2946002058F80A
:1056B000042BD1F800C01FFA82FE1FFA8CF3A3EB73
:1056C0000E030344120CC2EB234202EB1C429BB2BA
:1056D00043EA0243C1454FEA224041F8043BE6D287
:1056E00055F8242005EB840322B9043B9D421A4659
:1056F0000BD33C610136304603B0BDE8F08F126831
:10570000043B002ACBD1013CC6E71268043B002AC7
:10571000EFD1013CEAE70020EEE7000000000000C6
:105720002DE9F04F14461D46C76997B08146CDE973
:105730000645239E7FB9102000F00EFE0246C9F8F0
:105740001C0020B9EF21AC4BAC4801F0BFFCC0E914
:1057500001770760C760D9F81C30196859B15A68D9
:10576000012393404A608B60484600F0EBFE002224
:10577000D9F81C301A602B1EAFBF0023012223F082
:1057800000430793A8BF3360DDF81C809C4BB8BF73
:10579000326033EA080312D142F20F73229A136087
:1057A000C8F31303234300F05E85249BDFF854A263
:1057B000002B00F060850AF1030300F05ABDDDE91B
:1057C0000623CDE90C23DDE90C0100220023FBF7C1
:1057D000EBF8074658B10123229A1360249B13B1BA
:1057E000894B249A1360DFF824A200F044BD14AB67
:1057F000019315AB00934846DDE90C2301F084F9D1
:10580000C8F30A560390002E78D0DDE90C010D9BF9
:10581000A6F2FF36C3F3130343F07F5343F4401360
:105820001297194600227A4BFAF79EFC6CA3D3E933
:105830000023FAF751FE6CA3D3E90023FAF796FC94
:10584000044630460D46FAF7DDFD69A3D3E900238F
:10585000FAF742FE02460B4620462946FAF786FC36
:1058600004460D46FBF7E8F80022074600232046D1
:105870002946FBF7A3F840B13846FAF7C3FD2246A4
:105880002B46FBF791F800B9013F162F54D8DDE9FC
:105890000C01604B03EBC703D3E90023FBF78EF841
:1058A00000284BD00023013F0F93149B9B1B5A1ED3
:1058B00049BFC3F10103002304930023099254BF9D
:1058C00004930993002F3BDB099B0E973B440993FC
:1058D00000230A93209B092B65D8052BC4BF043BEA
:1058E0002093209BC8BF0024A3F10203D8BF01244A
:1058F000032B64D8DFE803F05355382CDDE914633B
:105900001E4406F23243202BC1BFC3F1400308FA04
:1059100003F806F2124324FA03F3D6BFC3F12003BF
:1059200048EA030004FA03F0FAF75CFD0122A1F152
:10593000F873013E129274E70123B5E70F90B4E7C4
:10594000049BDB1B04937B420A9300230E93C1E765
:1059500001230B93219B07EB030B0BF10103012B9D
:105960000893B8BF012306E001230B93219B002B72
:1059700028DD9B46089300210422D9F81C0002F17F
:1059800014059D4226D94160484600F09BFD8246A1
:10599000002843D1024640F2AF111F4BD4E600234A
:1059A000E3E70023D5E7012400230B9420934FF075
:1059B000FF3B00221223CDF820B02192DBE7012328
:1059C0000B93F4E74FF0010B5B46CDF820B0CDF818
:1059D00084B0D0E701315200D1E700BFAFF30080BF
:1059E00061436F63A787D23FB3C8608B288AC63FE5
:1059F000FB799F501344D33FC3730008DA73000848
:105A00000000F07FBF7300089373000892730008D2
:105A10000000F83F2875000832740008D9F81C30DF
:105A20001860089B0E2B00F2A180002C00F09E80D5
:105A3000002F33DD9C4B07F00F0203EBC203F80588
:105A4000D3E90034CDE910344FEA271416D5DDE947
:105A50000C01964B0326D3E90823FAF767FECDE93C
:105A6000060104F00F04914D54B9DDE91023DDE97E
:105A70000601FAF75BFECDE9060128E00226F2E70F
:105A8000E10708D5DDE91001D5E90023FAF724FD87
:105A9000CDE91001013664100835E5E700F0AF806C
:105AA000DDE90C017C42804B04F00F0203EBC203E2
:105AB000D3E90023FAF710FD02260023CDE9060101
:105AC0007A4D2411002C40F08F80002BD3D1DDE9DA
:105AD00006450F9B002B00F09480002220462946AB
