:020000040800F2
:1000000000500020B90A0008FD0800080509000892
:100010000D090008150900081D090008000000006E
:10002000000000000000000000000000250900089A
:1000300031090008000000003D09000849090008D6
:10004000010B0008010B0008010B0008010B000860
:10005000010B0008010B0008010B0008010B000850
:10006000010B0008010B0008010B0008010B000840
:10007000010B0008010B0008010B0008010B000830
:10008000010B0008010B0008010B000855090008CE
:10009000690900087D09000891090008010B0008A2
:1000A000010B0008010B0008010B0008010B000800
:1000B000010B0008010B0008010B0008010B0008F0
:1000C000010B0008010B0008010B0008010B0008E0
:1000D000010B0008010B0008010B0008010B0008D0
:1000E000010B0008010B0008010B000800000000D4
:1000F0000000000000000000000000000000000000
:0C01000000000000000000005FF808F1A3
:10010C0010B5054C237833B9044B13B10448AFF345
:10011C0000800123237010BD70000020000000003F
:10012C008C38000808B5034B1BB103490348AFF3E7
:10013C00008008BD00000000740000208C3800080E
:10014C0080B584B000AFF860B9607A60FB68012BB1
:10015C0002D0FB68022B0FD17B689AB24FF0FF33B1
:10016C00B968084802F022FA0346002B01D17B68DB
:10017C0004E04FF0FF3301E04FF0FF331846103727
:10018C00BD4680BDB400002080B582B000AF786061
:10019C00034802F009FD00BF0837BD4680BD00BF13
:1001AC00A438000880B582B000AF7860034802F034
:1001BC00FBFC00BF0837BD4680BD00BFC838000837
:1001CC0080B582B000AF7860034802F0EDFC00BF50
:1001DC000837BD4680BD00BFEC38000880B582B042
:1001EC0000AF7860034802F0DFFC00BF0837BD4663
:1001FC0080BD00BF1039000880B582B000AF7860B8
:10020C00034802F0D1FC00BF0837BD4680BD00BFDB
:10021C003439000880B582B000AF7860034802F032
:10022C00C3FC00BF0837BD4680BD00BF583900086D
:10023C00F0B591B00AAF78612F4802F0B5FC2F4BA6
:10024C002F4A0021786900F090FF0346002B49D11A
:10025C002B4B1B6840F27D6293423AD1294B1B68B1
:10026C00591C274B1A68264BD868254B1B69234C05
:10027C00E4792546214CA4792646204C64793C61CE
:10028C001E4C2479FC601D4CE478BC601B4CA4789B
:10029C007C601A4C64783C60184C24780894D7F82D
:1002AC0000C0CDF81CC0D7F804C0CDF818C0D7F8E2
:1002BC0008C0CDF814C0D7F80CC0CDF810C03C69FC
:1002CC00039402960195009303460F4802F004FC38
:1002DC0008E00C4B1B68591C094B1A68074B0B4860
:1002EC0002F0FAFB074B1B680133064A136000BF90
:1002FC001C37BD46F0BD00BF7C3900083001002022
:10030C001401002038010020A0390008083A000828
:10031C0080B582B000AF7860034802F045FC00BFA6
:10032C000837BD4680BD00BF3C3A000880B582B09E
:10033C0000AF7860034802F037FC00BF0837BD46B9
:10034C0080BD00BF5C3A000880B582B000AF786019
:10035C00034802F029FC00BF0837BD4680BD00BF32
:10036C00803A000880B582B000AF7860034802F094
:10037C001BFC00BF0837BD4680BD00BFA03A00087B
:10038C0080B582B000AF7860034802F00DFC00BF6E
:10039C000837BD4680BD00BFB83A000880B582B0B2
:1003AC0000AF7860034802F0FFFB00BF0837BD4682
:1003BC0080BD00BFDC3A000880B592B000AF00F001
:1003CC009BFB00F0B3F800F057F900F0F5F800F0E3
:1003DC0029F94C4802F0E8FB0123FB6200237B6205
:1003EC004CF680733B614FF68073BB6100233B621C
:1003FC000023BB620023FB6107F10C031946424842
:10040C0000F0D7FC404800F09DFD40493E4800F00C
:10041C00CDFF00237B634FF4FA737B644FF47A7344
:10042C003B6441F28833FB6342F21073BB63384B7D
:10043C001B687B637B6B374AA2FB03239B09BB6066
:10044C007A6B7B6C9A4208D34FF40051324801F01E
:10045C0033FC7B6C03F5FA737B647A6B3B6C9A42CE
:10046C000CD37B6B2B4AA2FB03239B0919462B480D
:10047C0002F032FB3B6C03F57A733B647A6BFB6BDB
:10048C009A421CD3264B08221A61254B0022DA60B3
:10049C00234B00229A60224B40F27C621A603B1D77
:1004AC00204A1F49184800F091FDFB6B03F59C5343
:1004BC000833FB631C4B1B6801331B4A13607A6BBC
:1004CC00BB6B9A42B3D3164B04221A61144B002215
:1004DC00DA60134B00229A60114B40F27D621A6075
:1004EC003B4607F108020E49074800F06FFDBB6B55
:1004FC0003F51C531033BB630B4B1B6801330A4AC7
:10050C00136094E7F43A00088C0000207F8F0300FE
:10051C0040010020D34D6210001001400C3B00083C
:10052C00FC000020000000203801002080B590B0B5
:10053C0000AF07F1180328220021184602F014FC22
:10054C003B1D00221A605A609A60DA601A6101231E
:10055C00BB614FF48033FB6100233B620123BB6220
:10056C0002237B634FF48033BB634FF4E013FB63D4
:10057C0007F11803184601F0B9FB0346002B01D014
:10058C0000F0C6F80F237B600223BB600023FB60E6
:10059C004FF480633B6100237B613B1D02211846B5
:1005AC0001F026FE0346002B01D000F0B1F800BF8D
:1005BC004037BD4680BD000080B500AF174B184AD0
:1005CC001A60164B10225A60144B4FF080429A60FE
:1005DC00124B0022DA60114B00221A610F4B0022E1
:1005EC005A610E4B00221A760C4B00225A760B4B9A
:1005FC0000229A76094B0022DA76084B00221A77F1
:10060C00064B00225A77054800F0D8FA0346002B17
:10061C0001D000F07DF800BF80BD00BF8C00002031
:10062C000064004080B500AF114B124A1A60104BA9
:10063C004FF4E1325A600E4B00229A600C4B0022B0
:10064C00DA600B4B00221A61094B0C225A61084BE1
:10065C0000229A61064B0022DA61054801F056FF30
:10066C000346002B01D000F053F800BF80BD00BF43
:10067C00B40000200038014080B588B000AF07F10D
:10068C00100300221A605A609A60DA601E4B9B6954
:10069C001D4A43F0100393611B4B9B6903F010033D
:1006AC00FB60FB68184B9B69174A43F0200393616E
:1006BC00154B9B6903F02003BB60BB68124B9B6915
:1006CC00114A43F0040393610F4B9B6903F004033D
:1006DC007B607B6800224FF400510C4801F0D4FA87
:1006EC004FF400533B6101237B610023BB61022368
:1006FC00FB6107F110031946044801F041F900BFF2
:10070C002037BD4680BD00BF0010024000100140E4
:10071C0080B400AF72B600BF00BFFDE780B485B0F7
:10072C0000AF154B9B69144A43F001039361124BC4
:10073C009B6903F00103BB60BB680F4BDB690E4A7E
:10074C0043F08053D3610C4BDB6903F080537B6027
:10075C007B680A4B5B68FB60FB6823F0E063FB6023
:10076C00FB6843F00073FB60044AFB68536000BFF6
:10077C001437BD4680BC7047001002400000014099
:10078C0080B588B000AF786007F1100300221A60C2
:10079C005A609A60DA607B681B682C4A934251D18C
:1007AC002B4BDB692A4A43F00073D361284BDB697E
:1007BC0003F00073FB60FB68254B9B69244A43F0F4
:1007CC0004039361224B9B6903F00403BB60BB6879
:1007DC004FF400633B6100237B610023BB6107F195
:1007EC00100319461B4801F0CBF84FF480533B61C2
:1007FC0002237B610323FB6107F1100319461548A3
:10080C0001F0BEF800220021132001F082F8132021
:10081C0001F09BF800220021142001F07AF814203A
:10082C0001F093F800220021152001F072F8152038
:10083C0001F08BF800220021162001F06AF8162036
:10084C0001F083F800BF2037BD4680BD0064004036
:10085C00001002400008014080B588B000AF7860FD
:10086C0007F1100300221A605A609A60DA607B6804
:10087C001B681C4A934231D11B4B9B691A4A43F4A7
:10088C0080439361184B9B6903F48043FB60FB68C6
:10089C00154B9B69144A43F004039361124B9B69FB
:1008AC0003F00403BB60BB684FF400733B6102238D
:1008BC007B610323FB6107F1100319460B4801F020
:1008CC005FF84FF480633B6100237B610023BB61C5
:1008DC0007F110031946054801F052F800BF203704
:1008EC00BD4680BD003801400010024000080140A8
:1008FC0080B400AF00BFFDE780B400AF00BFFDE7E0
:10090C0080B400AF00BFFDE780B400AF00BFFDE7CF
:10091C0080B400AF00BFFDE780B400AF00BFBD46A0
:10092C0080BC704780B400AF00BFBD4680BC704730
:10093C0080B400AF00BFBD4680BC704780B500AF2F
:10094C0000F020F900BF80BD80B500AF024800F078
:10095C0052FD00BF80BD00BF8C00002080B500AFF1
:10096C00024800F048FD00BF80BD00BF8C00002095
:10097C0080B500AF024800F03EFD00BF80BD00BF57
:10098C008C00002080B500AF024800F034FD00BFA1
:10099C0080BD00BF8C00002080B586B000AFF86031
:1009AC00B9607A6000237B610AE0AFF300800146F6
:1009BC00BB685A1CBA60CAB21A707B6901337B617E
:1009CC007A697B689A42F0DB7B6818461837BD461B
:1009DC0080BD80B483B000AF78604FF0FF33184611
:1009EC000C37BD4680BC704780B483B000AF7860D4
:1009FC0039603B684FF400525A60002318460C379C
:100A0C00BD4680BC704780B483B000AF78600123D2
:100A1C0018460C37BD4680BC704780B485B000AF1B
:100A2C00F860B9607A60002318461437BD4680BC64
:100A3C007047000080B586B000AF7860144A154B43
:100A4C00D31A7B617B693B61134B1B68002B02D172
:100A5C00114B124A1A60104B1A687B6813443A699E
:100A6C009A4207D202F0CEF903460C221A604FF0DC
:100A7C00FF3309E0084B1B68FB60074B1A687B6867
:100A8C001344054A1360FB6818461837BD4680BDF1
:100A9C0000500020000400003C01002090020020C7
:100AAC0080B400AF00BFBD4680BC7047FFF7F8FFB5
:100ABC000B480C490C4A002302E0D458C4500433B0
:100ACC00C4188C42F9D3094A094C002301E0136085
:100ADC000432A242FBD302F09BF9FFF76DFC704786
:100AEC000000002070000020883B000870000020EF
:100AFC0090020020FEE7000080B500AF084B1B6899
:100B0C00074A43F010031360032000F0F7FE0F2098
:100B1C0000F008F8FFF702FE0023184680BD00BF66
:100B2C000020024080B582B000AF7860124B1A688A
:100B3C00124B1B7819464FF47A73B3FBF1F3B2FBEB
:100B4C00F3F3184600F00FFF0346002B01D00123EE
:100B5C000EE07B680F2B0AD8002279684FF0FF302B
:100B6C0000F0D7FE064A7B681360002300E00123E7
:100B7C0018460837BD4680BD080000201000002034
:100B8C000C00002080B400AF054B1B781A46054BB7
:100B9C001B681344034A136000BFBD4680BC7047FA
:100BAC00100000204001002080B400AF024B1B68F5
:100BBC001846BD4680BC70474001002080B584B00B
:100BCC0000AF78607B68002B01D10123EDE07B68DE
:100BDC0093F82030DBB2002B02D17868FFF7D0FD00
:100BEC007B681B681A687B681B6842F001021A60FC
:100BFC00FFF7DAFFF86012E0FFF7D6FF0246FB685A
:100C0C00D31A0A2B0BD97B685B6A43F400327B68DE
:100C1C005A627B68052283F820200123C5E07B689B
:100C2C001B685B6803F00103002BE5D07B681B6835
:100C3C001A687B681B6822F002021A60FFF7B4FF87
:100C4C00F86012E0FFF7B0FF0246FB68D31A0A2BDC
:100C5C000BD97B685B6A43F400327B685A627B6811
:100C6C00052283F8202001239FE07B681B685B68CA
:100C7C0003F00203002BE5D17B681B7E012B08D10E
:100C8C007B681B681A687B681B6842F080021A60DC
:100C9C0007E07B681B681A687B681B6822F080027F
:100CAC001A607B685B7E012B08D17B681B681A6815
:100CBC007B681B6842F040021A6007E07B681B6887
:100CCC001A687B681B6822F040021A607B689B7E66
:100CDC00012B08D17B681B681A687B681B6842F083
:100CEC0020021A6007E07B681B681A687B681B6827
:100CFC0022F020021A607B68DB7E012B08D17B6816
:100D0C001B681A687B681B6822F010021A6007E0E7
:100D1C007B681B681A687B681B6842F010021A60BB
:100D2C007B681B7F012B08D17B681B681A687B686A
:100D3C001B6842F008021A6007E07B681B681A689F
:100D4C007B681B6822F008021A607B685B7F012BB2
:100D5C0008D17B681B681A687B681B6842F0040228
:100D6C001A6007E07B681B681A687B681B6822F0B6
:100D7C0004021A607B689A687B68DB681A437B689C
:100D8C001B691A437B685B6942EA03017B685B68F9
:100D9C005A1E7B681B680A43DA617B6800225A6220
:100DAC007B68012283F82020002318461037BD46AB
:100DBC0080BD80B487B000AF786039607B681B68F9
:100DCC007B617B6893F82030FB74FB7C012B03D098
:100DDC00FB7C022B40F0AA807B69D3F8003243F0F5
:100DEC0001027B69C3F800223B685B6903F01F03B7
:100DFC00012202FA03F3FB607B69D3F81C22FB6827
:100E0C00DB431A407B69C3F81C223B68DB69002B6F
:100E1C0023D17B69D3F80C22FB68DB431A407B6936
:100E2C00C3F80C223B68DB6819043B685B689BB217
:100E3C003A68526919437B69483243F832103B686F
:100E4C009B6819043B681B689AB23B685B690A4350
:100E5C0079694833DB000B445A603B68DB69012B32
:100E6C0022D17B69D3F80C22FB681A437B69C3F847
:100E7C000C223B681B6819043B685B689BB23A68A0
:100E8C00526919437B69483243F832103B689B68BE
:100E9C0019043B68DB689AB23B685B690A43796961
:100EAC004833DB000B445A603B689B69002B09D12B
:100EBC007B69D3F80422FB68DB431A407B69C3F8D7
:100ECC00042207E07B69D3F80422FB681A437B6990
:100EDC00C3F804223B681B69002B09D17B69D3F84A
:100EEC001422FB68DB431A407B69C3F8142207E029
:100EFC007B69D3F81422FB681A437B69C3F814226C
:100F0C003B681B6A012B07D17B69D3F81C22FB6859
:100F1C001A437B69C3F81C227B69D3F8003223F097
:100F2C0001027B69C3F80022002306E07B685B6A40
:100F3C0043F480227B685A62012318461C37BD4655
:100F4C0080BC704780B584B000AF78607B6893F844
:100F5C002030DBB2012B2ED17B68022283F82020BB
:100F6C007B681B681A687B681B6822F001021A6098
:100F7C00FFF71AFEF86012E0FFF716FE0246FB6858
:100F8C00D31A0A2B0BD97B685B6A43F400327B685B
:100F9C005A627B68052283F82020012312E07B68CB
:100FAC001B685B6803F00103002BE5D17B68002212
:100FBC005A62002306E07B685B6A43F400227B687C
:100FCC005A62012318461037BD4680BD80B489B0E3
:100FDC0000AFF860B9607A603B60FB6893F8203032
:100FEC00FB77FB681B689B68BB61FB7F012B03D005
:100FFC00FB7F022B40F0AD80BB6903F08063002BBC
:10100C000AD1BB6903F00063002B05D1BB6903F067
:10101C008053002B00F09580BB691B0E03F003037B
:10102C007B6101227B699A403B681A60BB689B68B4
:10103C00002B0DD1BB681B685A05BB68DB68F968CF
:10104C0009681A437B6918331B010B441A600FE0C3
:10105C00BB685B68DA00BB689B681A43BB68DB68DB
:10106C00F96809681A437B6918331B010B441A6031
:10107C00FB681968BB681A697B6918331B010B4440
:10108C0004331A60BB681B7D012B11D1FB681A68F5
:10109C007B6918331B01134404331B68FA6811680D
:1010AC0043F480727B6918331B010B4404331A60C0
:1010BC007B6807331B781A067B6806331B781B0486
:1010CC001A437B6805331B781B0213437A6804327E
:1010DC0012781046FA68116843EA00027B691B011A
:1010EC000B4403F5C6731A607B6803331B781A062E
:1010FC007B6802331B781B041A437B6801331B7813
:10110C001B0213437A6812781046FA68116843EA96
:10111C0000027B691B010B4403F5C4731A60FB6866
:10112C001A687B6918331B0113441B68FA68116831
:10113C0043F001027B6918331B010B441A60002336
:10114C000EE0FB685B6A43F40012FB685A620123F1
:10115C0006E0FB685B6A43F48022FB685A62012359
:10116C0018462437BD4680BC704780B487B000AFAA
:10117C00F860B9607A603B60FB6893F82030FB75CF
:10118C00FB7D012B03D0FB7D022B40F00381BB6860
:10119C00002B0ED1FB681B68DB6803F00303002BEC
:1011AC0016D1FB685B6A43F40012FB685A62012398
:1011BC00F7E0FB681B681B6903F00303002B07D1E6
:1011CC00FB685B6A43F40012FB685A620123E8E097
:1011DC00FB681A68BB681B331B0113441B6803F0C4
:1011EC0004027B689A607B689B68002B0CD1FB68BF
:1011FC001A68BB681B331B0113441B685B0DC3F3DC
:10120C000A027B681A600BE0FB681A68BB681B3328
:10121C001B0113441B68DB0823F060427B685A6097
:10122C00FB681A68BB681B331B0113441B6803F073
:10123C0002027B68DA60FB681A68BB681B331B010F
:10124C00134404331B6803F00803002B03D07B68A2
:10125C0008221A610BE0FB681A68BB681B331B0180
:10126C00134404331B6803F00F027B681A61FB689C
:10127C001A68BB681B331B01134404331B681B0A1D
:10128C00DAB27B689A61FB681A68BB681B331B0176
:10129C00134404331B681B0C9AB27B685A61FB68BD
:1012AC001A68BB681B01134403F5DC731B68DAB2C4
:1012BC003B681A70FB681A68BB681B01134403F582
:1012CC00DC731B681A0A3B680133D2B21A70FB68D4
:1012DC001A68BB681B01134403F5DC731B681A0CFA
:1012EC003B680233D2B21A70FB681A68BB681B01E8
:1012FC00134403F5DC731B681A0E3B680333D2B23C
:10130C001A70FB681A68BB681B01134403F5DE7383
:10131C001A683B680433D2B21A70FB681A68BB684F
:10132C001B01134403F5DE731B681A0A3B68053373
:10133C00D2B21A70FB681A68BB681B01134403F520
:10134C00DE731B681A0C3B680633D2B21A70FB684A
:10135C001A68BB681B01134403F5DE731B681A0E75
:10136C003B680733D2B21A70BB68002B08D1FB68FC
:10137C001B68DA68FB681B6842F02002DA6007E041
:10138C00FB681B681A69FB681B6842F020021A6133
:10139C00002306E0FB685B6A43F48022FB685A6218
:1013AC00012318461C37BD4680BC704780B485B0FD
:1013BC0000AF786039607B6893F82030FB73FB7B5F
:1013CC00012B02D0FB7B022B09D17B681B6859696E
:1013DC007B681B683A680A435A61002306E07B6805
:1013EC005B6A43F480227B685A62012318461437E7
:1013FC00BD4680BC704780B58AB000AF78600023D2
:10140C007B627B681B685B693B627B681B685B6803
:10141C00FB617B681B689B68BB617B681B68DB6836
:10142C007B617B681B681B693B617B681B689B69E4
:10143C00FB603B6A03F00103002B7CD0BB6903F01B
:10144C000103002B23D07B681B6801229A60BB69C7
:10145C0003F00203002B03D07868FEF795FE16E02C
:10146C00BB6903F00403002B04D07B6A43F40063D4
:10147C007B620CE0BB6903F00803002B04D07B6A91
:10148C0043F480537B6202E07868FEF7A7FEBB69E9
:10149C0003F48073002B24D07B681B684FF480729C
:1014AC009A60BB6903F40073002B03D07868FEF7D5
:1014BC0079FE16E0BB6903F48063002B04D07B6AD1
:1014CC0043F400537B620CE0BB6903F40063002B14
:1014DC0004D07B6A43F480437B6202E07868FEF7B9
:1014EC008BFEBB6903F48033002B24D07B681B6814
:1014FC004FF480329A60BB6903F40033002B03D0A5
:10150C007868FEF75DFE16E0BB6903F48023002BC0
:10151C0004D07B6A43F400437B620CE0BB6903F4A8
:10152C000023002B04D07B6A43F480337B6202E0FF
:10153C007868FEF76FFE3B6A03F00803002B0CD0B3
:10154C007B6903F01003002B07D07B6A43F4007314
:10155C007B627B681B681022DA603B6A03F0040331
:10156C00002B0BD07B6903F00803002B06D07B68A3
:10157C001B680822DA607868FEF7CAFE3B6A03F043
:10158C000203002B09D07B681B68DB6803F00303A4
:10159C00002B02D07868FEF74BFE3B6A03F0400349
:1015AC00002B0CD03B6903F01003002B07D07B6A97
:1015BC0043F480637B627B681B6810221A613B6A70
:1015CC0003F02003002B0BD03B6903F00803002B26
:1015DC0006D07B681B6808221A617868FEF7B4FE97
:1015EC003B6A03F01003002B09D07B681B681B6956
:1015FC0003F00303002B02D07868FEF797FE3B6ADA
:10160C0003F40033002B0BD0FB6903F01003002B09
:10161C0006D07B681B6810225A607868FEF7A2FE21
:10162C003B6A03F48033002B0BD0FB6903F00803F7
:10163C00002B06D07B681B6808225A607868FEF77E
:10164C009FFE3B6A03F40043002B7BD0FB6903F045
:10165C000403002B72D03B6A03F48073002B08D078
:10166C00FB6803F00103002B03D07B6A43F00103FA
:10167C007B623B6A03F40073002B08D0FB6803F019
:10168C000203002B03D07B6A43F002037B623B6AAC
:10169C0003F48063002B08D0FB6803F00403002BD9
:1016AC0003D07B6A43F004037B623B6A03F4006360
:1016BC00002B43D0FB6803F07003002B3ED0FB687B
:1016CC0003F07003602B2BD0602B2ED8502B22D024
:1016DC00502B2AD8402B19D0402B26D8302B10D089
:1016EC00302B22D8102B02D0202B05D01DE07B6A8A
:1016FC0043F008037B6219E07B6A43F010037B62C2
:10170C0014E07B6A43F020037B620FE07B6A43F0BA
:10171C0040037B620AE07B6A43F080037B6205E056
:10172C007B6A43F480737B6200E000BF7B681B68BC
:10173C009A697B681B6822F070029A617B681B684F
:10174C0004225A607B6A002B08D07B685A6A7B6A39
:10175C001A437B685A627868FEF720FE00BF283770
:10176C00BD4680BD80B485B000AF78607B6803F067
:10177C000703FB600C4BDB68BB60BA684FF6FF03DA
:10178C001340BB60FB681A02BB68134343F0BF6392
:10179C0043F40033BB60044ABB68D36000BF14370A
:1017AC00BD4680BC704700BF00ED00E080B400AFC8
:1017BC00044BDB681B0A03F007031846BD4680BCCC
:1017CC00704700BF00ED00E080B483B000AF03466B
:1017DC00FB7197F90730002B0BDBFB7903F01F0231
:1017EC00064997F907305B09012000FA02F241F82B
:1017FC00232000BF0C37BD4680BC704700E100E0E1
:10180C0080B483B000AF03463960FB7197F90730A1
:10181C00002B0ADB3B68DAB20C4997F9073012014E
:10182C00D2B20B4483F800230AE03B68DAB20849D1
:10183C00FB7903F00F03043B1201D2B20B441A766E
:10184C0000BF0C37BD4680BC704700BF00E100E014
:10185C0000ED00E080B489B000AFF860B9607A6048
:10186C00FB6803F00703FB61FB69C3F10703042B5F
:10187C0028BF0423BB61FB690433062B02D9FB6927
:10188C00033B00E000237B614FF0FF32BB6902FA9F
:10189C0003F3DA43BB681A407B699A404FF0FF317F
:1018AC007B6901FA03F3D9437B680B401343184659
:1018BC002437BD4680BC704780B582B000AF7860DD
:1018CC007B68013BB3F1807F01D301230FE00A4A0F
:1018DC007B68013B53600F214FF0FF30FFF790FF07
:1018EC00054B00229A60044B07221A60002318460D
:1018FC000837BD4680BD00BF10E000E080B582B067
:10190C0000AF78607868FFF72DFF00BF0837BD4641
:10191C0080BD80B586B000AF0346B9607A60FB73BA
:10192C0000237B61FFF742FF78617A68B9687869B8
:10193C00FFF790FF024697F90F3011461846FFF754
:10194C005FFF00BF1837BD4680BD80B582B000AFC9
:10195C000346FB7197F907301846FFF735FF00BFB8
:10196C000837BD4680BD80B582B000AF786078681E
:10197C00FFF7A2FF034618460837BD4680BD00009E
:10198C0080B48BB000AF7860396000237B62002399
:10199C003B6269E101227B6A02FA03F3FB613B685B
:1019AC001B68FA691340BB61BA69FB699A4240F043
:1019BC0058813B685B689A4A93425ED0984A93423E
:1019CC0075D8984A934258D0964A93426FD8964A03
:1019DC00934252D0944A934269D8944A93424CD041
:1019EC00924A934263D8924A934246D0904A934289
:1019FC005DD8122B2AD8122B59D801A252F823F0F9
:101A0C00871A0008611A0008731A0008B51A000832
:101A1C00BB1A0008BB1A0008BB1A0008BB1A000846
:101A2C00BB1A0008BB1A0008BB1A0008BB1A000836
:101A3C00BB1A0008BB1A0008BB1A0008BB1A000826
:101A4C00BB1A0008691A00087D1A0008794A9342EB
:101A5C0013D02CE03B68DB683B6229E03B68DB6819
:101A6C0004333B6224E03B68DB6808333B621FE0D5
:101A7C003B68DB680C333B621AE03B689B68002BCD
:101A8C0002D104233B6213E03B689B68012B05D118
:101A9C0008233B627B68FA691A6109E008233B6200
:101AAC007B68FA695A6103E000233B6200E000BFE7
:101ABC00BB69FF2B01D87B6801E07B6804337B6139
:101ACC00BB69FF2B02D87B6A9B0002E07B6A083B58
:101ADC009B003B617B691A680F213B6901FA03F398
:101AEC00DB431A40396A3B6901FA03F31A437B69F9
:101AFC001A603B685B6803F08053002B00F0B180E8
:101B0C004D4B9B694C4A43F0010393614A4B9B69D3
:101B1C0003F00103BB60BB68484A7B6A9B08023335
:101B2C0052F82330FB607B6A03F003039B000F2207
:101B3C0002FA03F3DB43FA681340FB607B68404A0C
:101B4C00934213D07B683F4A93420DD07B683E4A48
:101B5C00934207D07B683D4A934201D1032306E0B0
:101B6C00042304E0022302E0012300E000237A6A4C
:101B7C0002F0030292009340FA681343FB602F4972
:101B8C007B6A9B080233FA6841F823203B685B6848
:101B9C0003F48013002B06D02D4B9A682C49BB699B
:101BAC0013438B6006E02A4B9A68BB69DB432849D8
:101BBC0013408B603B685B6803F40013002B06D06A
:101BCC00234BDA682249BB691343CB6006E0204BF8
:101BDC00DA68BB69DB431E491340CB603B685B682A
:101BEC0003F40033002B06D0194B5A681849BB6913
:101BFC0013434B6006E0164B5A68BB69DB43144930
:101C0C0013404B603B685B6803F48033002B21D09E
:101C1C000F4B1A680E49BB6913430B6021E000BFE0
:101C2C0000003210000031100000221000002110C2
:101C3C0000001210000011100010024000000140C2
:101C4C0000080140000C014000100140001401404C
:101C5C00000401400B4B1A68BB69DB430949134074
:101C6C000B607B6A01337B623B681A687B6A22FAE1
:101C7C0003F3002B7FF48EAE00BF00BF2C37BD46A4
:101C8C0080BC70470004014080B483B000AF786022
:101C9C000B467B8013467B707B78002B03D07A88B5
:101CAC007B681A6103E07B881A047B681A6100BFA9
:101CBC000C37BD4680BC704780B485B000AF7860EF
:101CCC000B467B807B68DB68FB607A88FB68134083
:101CDC001A04FB68D9437B880B401A437B681A6152
:101CEC0000BF1437BD4680BC7047000080B586B07D
:101CFC0000AF78607B68002B01D1012372E27B6816
:101D0C001B6803F00103002B00F08780924B5B688B
:101D1C0003F00C03042B0CD08F4B5B6803F00C030B
:101D2C00082B12D18C4B5B6803F48033B3F5803FE6
:101D3C000BD1894B1B6803F40033002B6CD07B68F0
:101D4C005B68002B68D101234CE27B685B68B3F5C0
:101D5C00803F06D1804B1B687F4A43F4803313606D
:101D6C002EE07B685B68002B0CD17B4B1B687A4A9E
:101D7C0023F480331360784B1B68774A23F4802359
:101D8C0013601DE07B685B68B3F5A02F0CD1724B20
:101D9C001B68714A43F4802313606F4B1B686E4AB7
:101DAC0043F4803313600BE06B4B1B686A4A23F4DB
:101DBC0080331360684B1B68674A23F480231360DD
:101DCC007B685B68002B13D0FEF7EEFE386108E0F1
:101DDC00FEF7EAFE02463B69D31A642B01D90323B2
:101DEC0000E25D4B1B6803F40033002BF0D014E0D1
:101DFC00FEF7DAFE386108E0FEF7D6FE02463B69D4
:101E0C00D31A642B01D90323ECE1534B1B6803F465
:101E1C000033002BF0D100E000BF7B681B6803F09F
:101E2C000203002B63D04C4B5B6803F00C03002BBC
:101E3C000BD0494B5B6803F00C03082B1CD1464BB1
:101E4C005B6803F48033002B16D1434B1B6803F003
:101E5C000203002B05D07B681B69012B01D00123E9
:101E6C00C0E13D4B1B6823F0F8027B685B69DB002B
:101E7C00394913430B603AE07B681B69002B20D077
:101E8C00364B01221A60FEF78FFE386108E0FEF730
:101E9C008BFE02463B69D31A022B01D90323A1E125
:101EAC002D4B1B6803F00203002BF0D02A4B1B6850
:101EBC0023F0F8027B685B69DB00274913430B6056
:101ECC0015E0264B00221A60FEF76EFE386108E022
:101EDC00FEF76AFE02463B69D31A022B01D9032393
:101EEC0080E11D4B1B6803F00203002BF0D17B68D3
:101EFC001B6803F00803002B3AD07B689B69002B0E
:101F0C0019D0174B01221A60FEF74EFE386108E01B
:101F1C00FEF74AFE02463B69D31A022B01D9032372
:101F2C0060E10D4B5B6A03F00203002BF0D0012043
:101F3C0000F0CEFA1CE00A4B00221A60FEF734FEC9
:101F4C0038610FE0FEF730FE02463B69D31A022BD4
:101F5C0008D9032346E100BF0010024000004242B2
:101F6C0080044242924B5B6A03F00203002BE9D1DE
:101F7C007B681B6803F00403002B00F0A680002391
:101F8C00FB758B4BDB6903F08053002B0DD1884B19
:101F9C00DB69874A43F08053D361854BDB6903F0DF
:101FAC008053BB60BB680123FB75824B1B6803F439
:101FBC008073002B18D17F4B1B687E4A43F48073CF
:101FCC001360FEF7F1FD386108E0FEF7EDFD024607
:101FDC003B69D31A642B01D9032303E1754B1B68AE
:101FEC0003F48073002BF0D07B68DB68012B06D1E7
:101FFC006F4B1B6A6E4A43F0010313622DE07B6842
:10200C00DB68002B0CD16A4B1B6A694A23F0010375
:10201C001362674B1B6A664A23F0040313621CE0CD
:10202C007B68DB68052B0CD1614B1B6A604A43F063
:10203C00040313625E4B1B6A5D4A43F00103136297
:10204C000BE05B4B1B6A5A4A23F001031362584B9B
:10205C001B6A574A23F0040313627B68DB68002B6E
:10206C0015D0FEF7A1FD38610AE0FEF79DFD024692
:10207C003B69D31A41F28832934201D90323B1E070
:10208C004B4B1B6A03F00203002BEED014E0FEF75F
:10209C008BFD38610AE0FEF787FD02463B69D31AD7
:1020AC0041F28832934201D903239BE0404B1B6AD7
:1020BC0003F00203002BEED1FB7D012B05D13C4B31
:1020CC00DB693B4A23F08053D3617B68DB69002BCF
:1020DC0000F08780364B5B6803F00C03082B61D053
:1020EC007B68DB69022B46D1334B00221A60FEF76A
:1020FC005BFD386108E0FEF757FD02463B69D31AD9
:10210C00022B01D903236DE0294B1B6803F00073EC
:10211C00002BF0D17B681B6AB3F5803F08D1244BB0
:10212C005B6823F400327B689B68214913434B6046
:10213C001F4B5B6823F474127B68196A7B685B6ABB
:10214C000B431B4913434B601B4B01221A60FEF7D8
:10215C002BFD386108E0FEF727FD02463B69D31AD8
:10216C00022B01D903233DE0114B1B6803F00073D4
:10217C00002BF0D035E0104B00221A60FEF714FD56
:10218C00386108E0FEF710FD02463B69D31A022BBA
:10219C0001D9032326E0064B1B6803F00073002BC8
:1021AC00F0D11EE07B68DB69012B07D1012319E01C
:1021BC000010024000700040600042420B4B5B6814
:1021CC00FB60FB6803F480327B681B6A9A4206D181
:1021DC00FB6803F470127B685B6A9A4201D001239E
:1021EC0000E0002318461837BD4680BD00100240A1
:1021FC0080B584B000AF786039607B68002B01D16A
:10220C000123D0E06A4B1B6803F007033A689A423B
:10221C0010D9674B1B6823F0070265493B681343D1
:10222C000B60634B1B6803F007033A689A4201D0BA
:10223C000123B8E07B681B6803F00203002B20D05D
:10224C007B681B6803F00403002B05D0594B5B68BB
:10225C00584A43F4E06353607B681B6803F008033F
:10226C00002B05D0534B5B68524A43F460535360C8
:10227C00504B5B6823F0F0027B689B684D4913431D
:10228C004B607B681B6803F00103002B40D07B681C
:10229C005B68012B07D1474B1B6803F40033002B01
:1022AC0015D101237FE07B685B68022B07D1414B82
:1022BC001B6803F00073002B09D1012373E03D4B25
:1022CC001B6803F00203002B01D101236BE0394B97
:1022DC005B6823F003027B685B68364913434B60F1
:1022EC00FEF762FCF8600AE0FEF75EFC0246FB6853
:1022FC00D31A41F28832934201D9032353E02D4B78
:10230C005B6803F00C027B685B689B009A42EBD124
:10231C00274B1B6803F007033A689A4210D2244BF0
:10232C001B6823F0070222493B6813430B60204BC8
:10233C001B6803F007033A689A4201D0012332E08C
:10234C007B681B6803F00403002B08D0194B5B68F7
:10235C0023F4E0627B68DB68164913434B607B68AF
:10236C001B6803F00803002B09D0124B5B6823F4A5
:10237C0060527B681B69DB000E4913434B6000F015
:10238C0021F802460B4B5B681B0903F00F030A494B
:10239C00CB5C22FA03F3094A1360094B1B681846FD
:1023AC00FEF7C0FB002318461037BD4680BD00BFAA
:1023BC000020024000100240203B000808000020D2
:1023CC000C00002080B487B000AF0023FB6000231A
:1023DC00BB6000237B6100237B6000233B611E4BB1
:1023EC005B68FB60FB6803F00C03042B02D0082B2A
:1023FC0003D027E0194B3B6127E0FB689B0C03F0F3
:10240C000F03174AD35C7B60FB6803F48033002B0B
:10241C0010D0114B5B685B0C03F00103114AD35CC9
:10242C00BB607B680D4A03FB02F2BB68B2FBF3F3A3
:10243C007B6104E07B680C4A02FB03F37B617B69E4
:10244C003B6102E0054B3B6100BF3B6918461C3702
:10245C00BD4680BC704700BF0010024000127A00DD
:10246C00383B0008483B000800093D0080B400AF31
:10247C00024B1B681846BD4680BC70470800002004
:10248C0080B500AFFFF7F2FF0246054B5B681B0AF5
:10249C0003F007030349CB5C22FA03F3184680BD13
:1024AC0000100240303B000880B500AFFFF7DEFFA4
:1024BC000246054B5B68DB0A03F007030349CB5C60
:1024CC0022FA03F3184680BD00100240303B00088E
:1024DC0080B485B000AF78600A4B1B680A4AA2FB37
:1024EC0003235B0A7A6802FB03F3FB6000BFFB6803
:1024FC005A1EFA60002BF9D100BF00BF1437BD463D
:10250C0080BC704708000020D34D621080B582B0AB
:10251C0000AF78607B68002B01D1012342E07B681F
:10252C0093F84130DBB2002B06D17B68002283F894
:10253C0040207868FEF790F97B68242283F84120CC
:10254C007B681B68DA687B681B6822F40052DA60CF
:10255C00786800F071F97B681B681A697B681B68E6
:10256C0022F490421A617B681B685A697B681B686D
:10257C0022F02A025A617B681B68DA687B681B6848
:10258C0042F40052DA607B6800225A647B68202295
:10259C0083F841207B68202283F842207B6800224C
:1025AC005A63002318460837BD4680BD80B58AB0F3
:1025BC0002AFF860B9603B601346FB8000237B617F
:1025CC00FB6893F84130DBB2202B75D1BB68002B34
:1025DC0002D0FB88002B01D101236EE0FB680022A6
:1025EC005A64FB68212283F84120FEF7DDFA7861FA
:1025FC00FB68FA889A84FB68FA88DA84FB689B6823
:10260C00B3F5805F08D1FB681B69002B04D1002354
:10261C00FB61BB68BB6103E0BB68FB610023BB6172
:10262C002EE03B6800937B6900228021F86800F063
:10263C0048F80346002B05D0FB68202283F8412084
:10264C0003233AE0FB69002B0BD1BB691B881A46AC
:10265C00FB681B68C2F308025A60BB690233BB619A
:10266C0007E0FB691A78FB681B685A60FB69013349
:10267C00FB61FB68DB8C9BB2013B9AB2FB68DA8492
:10268C00FB68DB8C9BB2002BCBD13B6800937B6946
:10269C0000224021F86800F014F80346002B05D006
:1026AC00FB68202283F84120032306E0FB682022EC
:1026BC0083F84120002300E0022318462037BD4652
:1026CC0080BD80B586B000AFF860B9603B60134642
:1026DC00FB713BE03B6AB3F1FF3F37D0FEF764FA86
:1026EC0002463B68D31A3A6A9A4202D33B6A002BE1
:1026FC0001D103233AE0FB681B68DB6803F0040399
:10270C00002B23D0BB68802B20D0BB68402B1DD066
:10271C00FB681B681B6803F00803082B16D1002309
:10272C007B61FB681B681B687B61FB681B685B68D3
:10273C007B617B69F86800F01DF8FB6808225A641D
:10274C00FB68002283F8402001230FE0FB681B6824
:10275C001A68BB681340BA689A420CBF0123002365
:10276C00DBB21A46FB799A42B4D0002318461837CC
:10277C00BD4680BD80B495B000AF78607B681B68A7
:10278C000C337B637B6B53E8003F3B633B6B23F465
:10279C009073FB647B681B680C33FA6C3A64FB63C4
:1027AC00F96B3A6C41E80023BB63BB6B002BE5D1A2
:1027BC007B681B6814333B623B6A53E8003FFB6148
:1027CC00FB6923F00103BB647B681B681433BA6C90
:1027DC00FA62BB62B96AFA6A41E800237B627B6ADF
:1027EC00002BE5D17B681B6B012B19D17B681B6817
:1027FC000C33FB60FB6853E8003FBB60BB6823F005
:10280C0010037B647B681B680C337A6CBA617B6148
:10281C007969BA6941E800233B613B69002BE5D13A
:10282C007B68202283F842207B6800221A6300BF59
:10283C005437BD4680BC704780B584B000AF78601B
:10284C007B681B681B6923F440517B68DA687B68E2
:10285C001B680A431A617B689A687B681B691A4378
:10286C007B685B691343BB607B681B68DB6823F484
:10287C00B05323F00C037A681268B9680B43D36029
:10288C007B681B685B6923F440717B689A697B6881
:10289C001B680A435A617B681B682C4A934203D11C
:1028AC00FFF702FEF86002E0FFF7EAFDF860FA6855
:1028BC0013469B0013449A001A447B685B689B0088
:1028CC00B2FBF3F3224AA2FB03235B091901FA685A
:1028DC0013469B0013449A001A447B685B689B0068
:1028EC00B2FBF3F21A4BA3FB02035B09642000FB5F
:1028FC0003F3D31A1B013233154AA2FB03235B09E2
:10290C0003F0F0031944FA6813469B0013449A0031
:10291C001A447B685B689B00B2FBF3F20C4BA3FB85
:10292C0002035B09642000FB03F3D31A1B0132334F
:10293C00074AA2FB03235B0903F00F027B681B68A9
:10294C000A449A6000BF1037BD4680BD0038014074
:10295C001F85EB51002310B50446C0E90033C0E9D4
:10296C000433836081814366C281836119460822E6
:10297C005C3000F0F9F90D4B246263620C4BA362DE
:10298C000C4BE3620C4B23630C4B9C4206D003F1C3
:10299C006802944202D0D0339C4205D104F1580015
:1029AC00BDE8104000F058BA10BD00BFC52B0008A0
:1029BC00E72B00081F2C0008432C000844010020C2
:1029CC00024A0349034800F069B800BF1400002014
:1029DC00F93600082400002041680C4B10B59942D0
:1029EC00044601D000F082FEA168094B994202D046
:1029FC00204600F07BFEE168064B994204D020464D
:102A0C00BDE8104000F072BE10BD00BF44010020B4
:102A1C00AC0100201402002010B50B4B0B4C0C4ADF
:102A2C0020461A6004210022FFF794FF04F168008D
:102A3C0001220921FFF78EFF04F1D0000222BDE82C
:102A4C0010401221FFF786BF7C02002044010020B9
:102A5C00CD290008014800F000BA00BF8502002013
:102A6C00014800F0FBB900BF8502002010B50446F8
:102A7C00FFF7F0FF236A1BB1BDE81040FFF7F0BF72
:102A8C00044B2362044B1B68002BF5D1FFF7C4FFEA
:102A9C00F2E700BFE52900087C0200202DE9F8438D
:102AAC000746884614460026D4E90195B9F1010978
:102ABC0005D52468002CF7D13046BDE8F883AB89E6
:102ACC00012B07D9B5F90E30013303D0294638460E
:102ADC00C04706436835E9E70FB407B5064904ABB0
:102AEC00086853F8042B8168019300F0D7FA03B0FF
:102AFC005DF804EB04B0704720000020036A70B549
:102B0C0005460E4684680BB9FFF7B0FF636EDB0712
:102B1C0005D4A389980502D4A06D00F09EF9A38971
:102B2C00190702D52369002B35D12146284600F020
:102B3C00C5F880B34FF0FF35636EDA0705D4A3896F
:102B4C009B0502D4A06D00F089F9284670BD002BBE
:102B5C0004DAA2699A4217DC0A2915D023685A1C98
:102B6C0022601970A36816F8011F013BA3600029AD
:102B7C00EDD1002B11DA22460A21284600F05FF82D
:102B8C000130D7D00A25D7E72246284600F057F85F
:102B9C000130E7D1CEE7013EE4E723685A1C2260FE
:102BAC000A221A70EEE70000024B01461868FFF784
:102BBC00A5BF00BF2000002010B50C46B1F90E10C7
:102BCC0000F0FCF80028ABBF636DA3891B1823F43D
:102BDC008053ACBF6365A38110BD2DE9F0411F4646
:102BEC008B890546DB050C46164605D502230022CB
:102BFC00B1F90E1000F0D0F8A389324623F48053BB
:102C0C00A38128463B46B4F90E10BDE8F04100F014
:102C1C00E7B810B50C46B1F90E1000F0BDF8431C26
:102C2C00A38915BF606523F4805343F48053A381BB
:102C3C0018BFA38110BDB1F90E1000F09DB8F8B506
:102C4C000E461446054618B1036A0BB9FFF70EFF82
:102C5C00A369A360A3891A0701D5236943B9214647
:102C6C00284600F02BF818B14FF0FF373846F8BD66
:102C7C0023682269F6B2981A63693746834205DCE9
:102C8C002146284600F032FD0028EDD1A368013B17
:102C9C00A36023685A1C22601E706269431C9A420E
:102CAC0004D0A389DB07E1D50A2EDFD121462846C3
:102CBC0000F01CFD0028D9D0D6E7000038B5294B10
:102CCC00054618680C4618B1036A0BB9FFF7CEFE1F
:102CDC00B4F90C30190722D4DA0607D409222A6079
:102CEC0043F040034FF0FF30A38133E0580712D577
:102CFC00616B41B104F14403994202D0284600F0C3
:102D0C00AFF800236363A38923F02403A38100237A
:102D1C00636023692360A38943F00803A3812369BB
:102D2C004BB9A38903F42073B3F5007F03D021467C
:102D3C00284600F028FDB4F90C3013F001020AD03B
:102D4C000022A26062695242A261226942B913F068
:102D5C008000C5D138BD990758BF6269A260F4E7FD
:102D6C000020F7E72000002003460244934200D1E4
:102D7C00704703F8011BF9E738B50023054D0446ED
:102D8C0008462B60FDF725FE431C02D12B6803B1CE
:102D9C00236038BD8002002038B504460846114631
:102DAC000022054D2A601A46FDF737FE431C02D15E
:102DBC002B6803B1236038BD8002002038B504466F
:102DCC00084611460022054D2A601A46FDF7E4FD1F
:102DDC00431C02D12B6803B1236038BD8002002054
:102DEC0038B50446084611460022054D2A601A469D
:102DFC00FDF7A6F9431C02D12B6803B1236038BD43
:102E0C0080020020014B1868704700BF2000002092
:102E1C0070B500260C4D0D4C641BA410A64209D1B4
:102E2C0000F02EFD00260A4D0A4C641BA410A6428D
:102E3C0005D170BD55F8043B98470136EEE755F8BF
:102E4C00043B98470136F2E7803B0008803B0008C2
:102E5C00803B0008843B00087047704770470000B7
:102E6C0038B50546002940D051F8043C0C1F002B06
:102E7C00B8BFE41800F0DEF81C4A136833B963607D
:102E8C0014602846BDE8384000F0DAB8A34208D9EF
:102E9C00206821188B4201BF19685B6809182160F2
:102EAC00EDE71A465B680BB1A342FAD911685018CA
:102EBC00A0420BD120680144501883421160E0D12C
:102ECC0018685B68084410605360DAE702D90C2379
:102EDC002B60D6E7206821188B4201BF19685B680C
:102EEC000918216063605460CBE738BD8C02002068
:102EFC0070B50F4E0C463168054611B900F0A2FCB6
:102F0C0030602146284600F09DFC431C03D14FF055
:102F1C00FF34204670BDC41C24F00304A042F8D03A
:102F2C00211A284600F08EFC0130F2D1EFE700BFE9
:102F3C00880200202DE9F843CD1C25F00305083547
:102F4C000C2D38BF0C25002D064601DBA94204D9F7
:102F5C000C2333600020BDE8F883DFF8D48000F048
:102F6C0069F8D8F800301C4644BB29463046FFF7B8
:102F7C00BFFF431C044658D1D8F800402746002F09
:102F8C0043D1002C4BD023683946304604EB03095F
:102F9C0000F058FC814542D1216830466D1A294613
:102FAC00FFF7A6FF01303AD023682B442360D8F8F2
:102FBC0000305A6862BBC8F800700FE02268521BE0
:102FCC0020D40B2A17D96119A342256018BF596068
:102FDC00636808BFC8F8001062514B60304600F0BF
:102FEC002FF804F10B00231D20F00700C21A1CBFA0
:102FFC001B1AA350AFE76268A3420CBFC8F80020AD
:10300C005A60EBE723466468AEE73C467F68B6E758
:10301C001A465B68A342FBD100235360DEE70C2306
:10302C003046336000F00CF894E70560D6E700BF3B
:10303C008C0200200148FFF710BF00BF8402002063
:10304C000148FFF70BBF00BF84020020936810B447
:10305C00013B002B936007DA9469A34201DB0A2938
:10306C0002D110BCFFF7EBBD1368581C106019702F
:10307C00084610BC7047F8B506460F461446D518DE
:10308C00AC4201D1002007E03A46304614F8011B4F
:10309C00FFF7DCFF431CF3D1F8BD00002DE9F04F26
:1030AC000D461446984606469DB018B1036A0BB9F6
:1030BC00FFF7DCFC6B6ED90705D4AB899A0502D4FB
:1030CC00A86DFFF7CAFEAB891B0701D52B699BB90D
:1030DC0029463046FFF7F2FD70B16B6EDC0704D564
:1030EC004FF0FF301DB0BDE8F08FAB899805F7D4D9
:1030FC00A86DFFF7B3FEF3E70023099320238DF8A7
:10310C00293030234FF00109CDF80C80DFF8A8816D
:10311C008DF82A3023469A4613F8012B0AB1252A3A
:10312C00F9D1BAEB040B0BD05B462246294630464C
:10313C00FFF7A1FF013000F0A780099A5A440992C9
:10314C009AF80030002B00F09F8000234FF0FF32E4
:10315C00CDE905230AF1010A049307938DF8533046
:10316C001A935446052214F8011B534800F07AFBBD
:10317C00049AD8B9D10644BF20238DF853301307D5
:10318C0044BF2B238DF853309AF800302A2B15D0DE
:10319C00544600204FF00A0C079A214611F8013BC7
:1031AC00303B092B4BD9B0B1079214E0A0EB0803CC
:1031BC0009FA03F31343A2460493D2E7039B191DA8
:1031CC001B680391002BBBBF5B4242F002020793CA
:1031DC000793B8BF049223782E2B0AD163782A2B3D
:1031EC0032D1039B02341A1D1B68039243EAE3732A
:1031FC000593DFF8C8A003225046217800F032FB7B
:10320C0038B14022049BA0EB0A00824013430134E6
:10321C00049314F8011B062229488DF8281000F09D
:10322C0021FB00283FD0274B1BBB039B073323F00C
:10323C00070308330393099B3B4409936AE70C4645
:10324C0001200CFB0232A8E700234FF00A0C1946B0
:10325C0001340593204610F8012B303A092A03D982
:10326C00002BC6D00591C4E7044601230CFB0121B9
:10327C00F0E703AB00932A463046134B04A9AFF397
:10328C0000800746781CD6D16B6ED90705D4AB8964
:10329C009A0502D4A86DFFF7E1FDAB895B063FF5FB
:1032AC001FAF09981EE703AB00932A463046064B26
:1032BC0004A900F07DF8E4E74A3B0008503B000805
:1032CC00543B000800000000833000082DE9F04753
:1032DC00164698468A680B6907469342B8BF134650
:1032EC00336091F843200C46DDF820900AB101338D
:1032FC0033602368990642BF336802333360256814
:10330C0015F0060506D104F1190AE36832689B1A18
:10331C00AB422BDC94F843302268003B18BF0123EE
:10332C00920630D44146384604F14302C847013076
:10333C0023D02368226903F00603042B14BF002555
:10334C0033684FF0000608BFE56804F11A0408BFA3
:10335C00ED1A54F8123C08BF25EAE5759342C4BF38
:10336C009B1AED18B5421AD1002008E001235246F1
:10337C0041463846C847013003D14FF0FF30BDE815
:10338C00F0870135C1E73020E11881F843005A1C61
:10339C0094F845102244023382F84310C2E701230B
:1033AC00224641463846C8470130E6D00136D9E7B7
:1033BC002DE9FF470F7E9146782F80460C469A46A2
:1033CC000C9E01F1430207D8622F0AD8002F00F09F
:1033DC00D180582F00F0B88004F1420684F8427076
:1033EC003AE0A7F16303152BF6D801A151F823F0AD
:1033FC005534000869340008E5330008E53300084B
:10340C00E5330008E533000869340008E5330008AB
:10341C00E5330008E5330008E5330008673500089C
:10342C009334000821350008E5330008E533000823
:10343C0089350008E533000893340008E5330008AB
:10344C00E53300082935000833681A1D1B68326003
:10345C0004F1420684F8423001239CE03368206872
:10346C00191D3160060601D51D6803E04506FBD524
:10347C00B3F90050002D03DA2D236D4284F843304C
:10348C000A23584811E021683368080653F8045B96
:10349C0002D4490648BFADB26F2F336014BF0A2364
:1034AC0008235048002184F843106668002EA6605B
:1034BC0005DB21682E4321F0040121604BD0164618
:1034CC00B5FBF3F103FB1157C75D06F8017D2F46E1
:1034DC00BB420D46F4D9082B0BD12368DF0708D566
:1034EC00236961689942DEBF302306F8013C06F17E
:1034FC00FF36921B22614B4621464046CDF800A078
:10350C0003AAFFF7E3FE01304AD14FF0FF3004B0BD
:10351C00BDE8F087236843F0200323607827324806
:10352C0084F84570236831681F0651F8045B02D497
:10353C005F0648BFADB23160D90744BF43F02003EA
:10354C0023601DB11023ADE72648E9E7236823F07B
:10355C0020032360F6E71646BDE733682568181D7F
:10356C00616930602E061B6801D5196002E068069F
:10357C00FBD51980002316462361BCE73368002174
:10358C001A1D32601E686268304600F06BF908B193
:10359C00801B606063682361002384F84330AAE7D2
:1035AC003246494640462369D0470130ADD02368A6
:1035BC009B0713D4E068039B9842B8BF1846A6E754
:1035CC000123324649464046D04701309DD0013553
:1035DC00E36803995B1AAB42F2DCEBE7002504F1DC
:1035EC001906F5E75B3B00086C3B0008B1F90C20B1
:1035FC00F8B5160705460C4654D44B68002B02DC74
:10360C000B6C002B48DDE66A002E45D0002312F42B
:10361C0080522F68216A2B6030D0626DA3895907C4
:10362C0005D56368D21A636B0BB1236CD21A0023D5
:10363C002846E66A216AB047431CA38906D129684B
:10364C001D292BD8284ACA40D60727D500226260EC
:10365C002269D904226004D5421C01D12B6803B91C
:10366C006065616B2F60B9B104F14403994202D0DB
:10367C002846FFF7F5FB002363630DE00123284682
:10368C00B0470246501CC9D12B68002BC6D01D2B4D
:10369C0001D0162B1DD12F60002021E043F04003F8
:1036AC001BB21AE00F69002FF6D0930718BF002346
:1036BC000E6808BF4B69F61B0F608B60002EEBDDAC
:1036CC0033463A462846216AD4F828C0E0470028F9
:1036DC0007DCB4F90C3043F040034FF0FF30A3810A
:1036EC00F8BD0744361AE9E70100402038B50B69EC
:1036FC0005460C4613B90025284638BD18B1036A97
:10370C000BB9FFF7B3F9B4F90C30002BF3D0626EA0
:10371C00D00704D4990502D4A06DFFF79EFB284670
:10372C002146FFF763FF636E0546DA07E4D4A389ED
:10373C009B05E1D4A06DFFF791FBDDE770B50C465E
:10374C00B1F90E10154600291E4696B00CDAA38965
:10375C00002113F0800F14BF40234FF4806300202E
:10376C0031602B6016B070BD6A4600F049F8002835
:10377C00EDDB019901F47041A1F500535942594117
:10378C004FF48063EBE78B89F7B59D0706460C4633
:10379C0007D504F14703236023610123636103B060
:1037AC00F0BD6A4601ABFFF7C9FF009F05463946DD
:1037BC003046FFF7BFFB48B9B4F90C309A05EED48C
:1037CC0023F0030343F00203A381E2E7A389C4E9D6
:1037DC00040743F08003A381019B20605BB130465A
:1037EC00B4F90E1000F01EF828B1A38923F00303DE
:1037FC0043F00103A381A3891D43A581CFE70000FA
:10380C0038B50023064D0446084611462B60FDF7DB
:10381C00EBF8431C02D12B6803B1236038BD00BF09
:10382C008002002038B50023054D044608462B6065
:10383C00FDF7E9F8431C02D12B6803B1236038BDB6
:10384C008002002038B50023054D044608462B6045
:10385C00FDF7F0F8431C02D12B6803B1236038BD8F
:10386C0080020020034610B5C9B2024493421846A8
:10387C0001D1002003E0047801338C42F6D110BD55
:10388C00F8B500BFF8BC08BC9E467047F8B500BF41
:08389C00F8BC08BC9E46704711
:1038A40048414C5F43414E5F54784D61696C626F8F
:1038B4007830436F6D706C65746543616C6C6261E4
:1038C400636B0D0048414C5F43414E5F54784D613A
:1038D400696C626F7831436F6D706C6574654361B8
:1038E4006C6C6261636B0D0048414C5F43414E5FF9
:1038F40054784D61696C626F7832436F6D706C659A
:10390400746543616C6C6261636B0D0048414C5F8C
:1039140043414E5F54784D61696C626F7830416207
:103924006F727443616C6C6261636B0D0000000024
:1039340048414C5F43414E5F54784D61696C626FFE
:10394400783141626F727443616C6C6261636B0DB8
:103954000000000048414C5F43414E5F54784D6184
:10396400696C626F783241626F727443616C6C622D
:1039740061636B0D0000000048414C5F43414E5FA2
:1039840052784669666F304D736750656E64696E30
:103994006743616C6C6261636B0D0000476F742058
:1039A4006D65737361676520256C75202D206964CE
:1039B4003D30782530346C7820747970653D256C01
:1039C40078206C656E3D3078256C782C20646174A9
:1039D400613D3078253032782530327825303278A0
:1039E40025303278253032782530327825303278D7
:1039F40025303278202854696D6520696E2073293A
:103A04000D0A0000476F74206D657373616765204C
:103A1400256C75202D2069643D30782530346C7810
:103A240020747970653D30206C656E3D3120646191
:103A340074613D25730D0A0048414C5F43414E5F5C
:103A440052784669666F3046756C6C43616C6C6283
:103A540061636B0D0000000048414C5F43414E5FC1
:103A640052784669666F314D736750656E64696E4E
:103A74006743616C6C6261636B0D000048414C5F8D
:103A840043414E5F52784669666F3146756C6C43AC
:103A9400616C6C6261636B0D0000000048414C5F17
:103AA40043414E5F536C65657043616C6C62616346
:103AB4006B0D000048414C5F43414E5F57616B659D
:103AC400557046726F6D52784D736743616C6C62CA
:103AD40061636B0D0000000048414C5F43414E5F41
:103AE4004572726F7243616C6C6261636B0D0000AE
:103AF4000A0A0A2D2D2D2D2D2D2D53746172742D2E
:103B04002D2D2D2D2D2D0D004375722E2074696DD4
:103B1400653A20256C7520730D0A00000000000032
:103B24000000000001020304060708090000000069
:103B34000102030402030405060708090A0B0C0D1D
:103B44000E0F10100102232D302B2000686C4C0046
:103B54006566674546470030313233343536373889
:103B640039414243444546003031323334353637E7
:0C3B74003839616263646566000000007F
:043B80003101000807
:043B84000D01000827
:103B880043414E206D73670000127A001000000058
:103B980001000000000000000300000044010020B4
:103BA800240000200000000044010020AC01002097
:103BB80014020020000000000000000000000000C7
:103BC80000000000000000000000000000000000ED
:103BD80000000000000000000000000000000000DD
:103BE80000000000000000000000000000000000CD
:0400000508000AB92C
:00000001FF
